
TestProject.elf:     file format elf32-littlearm

Sections:
Idx Name          Size      VMA       LMA       File off  Algn
  0 .isr_vector   00000188  08000000  08000000  00010000  2**0
                  CONTENTS, ALLOC, LOAD, READONLY, DATA
  1 .text         00020a74  08000188  08000188  00010188  2**3
                  CONTENTS, ALLOC, LOAD, READONLY, CODE
  2 .rodata       00001b28  08020c00  08020c00  00030c00  2**3
                  CONTENTS, ALLOC, LOAD, READONLY, DATA
  3 .init_array   00000018  08022728  08022728  00032728  2**2
                  CONTENTS, ALLOC, LOAD, DATA
  4 .fini_array   00000004  08022740  08022740  00032740  2**2
                  CONTENTS, ALLOC, LOAD, DATA
  5 .data         000004bc  20000000  08022744  00040000  2**2
                  CONTENTS, ALLOC, LOAD, DATA
  6 .ccmram       00000000  10000000  10000000  000404bc  2**0
                  CONTENTS
  7 .bss          00003a40  200004c0  200004c0  000404c0  2**3
                  ALLOC
  8 ._user_heap_stack 00000400  20003f00  20003f00  000404c0  2**0
                  ALLOC
  9 .ARM.attributes 00000030  00000000  00000000  000404bc  2**0
                  CONTENTS, READONLY
 10 .debug_info   0003a0a0  00000000  00000000  000404ec  2**0
                  CONTENTS, READONLY, DEBUGGING
 11 .debug_abbrev 000072f0  00000000  00000000  0007a58c  2**0
                  CONTENTS, READONLY, DEBUGGING
 12 .debug_aranges 000025a8  00000000  00000000  00081880  2**3
                  CONTENTS, READONLY, DEBUGGING
 13 .debug_ranges 00002470  00000000  00000000  00083e28  2**3
                  CONTENTS, READONLY, DEBUGGING
 14 .debug_line   000178a7  00000000  00000000  00086298  2**0
                  CONTENTS, READONLY, DEBUGGING
 15 .debug_str    0000e250  00000000  00000000  0009db3f  2**0
                  CONTENTS, READONLY, DEBUGGING
 16 .comment      0000007c  00000000  00000000  000abd8f  2**0
                  CONTENTS, READONLY
 17 .debug_frame  0000ae88  00000000  00000000  000abe0c  2**2
                  CONTENTS, READONLY, DEBUGGING
 18 .stab         00000024  00000000  00000000  000b6c94  2**2
                  CONTENTS, READONLY, DEBUGGING
 19 .stabstr      0000003f  00000000  00000000  000b6cb8  2**0
                  CONTENTS, READONLY, DEBUGGING

Disassembly of section .text:

08000188 <__do_global_dtors_aux>:
 8000188:	b510      	push	{r4, lr}
 800018a:	4c05      	ldr	r4, [pc, #20]	; (80001a0 <__do_global_dtors_aux+0x18>)
 800018c:	7823      	ldrb	r3, [r4, #0]
 800018e:	b933      	cbnz	r3, 800019e <__do_global_dtors_aux+0x16>
 8000190:	4b04      	ldr	r3, [pc, #16]	; (80001a4 <__do_global_dtors_aux+0x1c>)
 8000192:	b113      	cbz	r3, 800019a <__do_global_dtors_aux+0x12>
 8000194:	4804      	ldr	r0, [pc, #16]	; (80001a8 <__do_global_dtors_aux+0x20>)
 8000196:	f3af 8000 	nop.w
 800019a:	2301      	movs	r3, #1
 800019c:	7023      	strb	r3, [r4, #0]
 800019e:	bd10      	pop	{r4, pc}
 80001a0:	200004c0 	.word	0x200004c0
 80001a4:	00000000 	.word	0x00000000
 80001a8:	08020be4 	.word	0x08020be4

080001ac <frame_dummy>:
 80001ac:	b508      	push	{r3, lr}
 80001ae:	4b03      	ldr	r3, [pc, #12]	; (80001bc <frame_dummy+0x10>)
 80001b0:	b11b      	cbz	r3, 80001ba <frame_dummy+0xe>
 80001b2:	4903      	ldr	r1, [pc, #12]	; (80001c0 <frame_dummy+0x14>)
 80001b4:	4803      	ldr	r0, [pc, #12]	; (80001c4 <frame_dummy+0x18>)
 80001b6:	f3af 8000 	nop.w
 80001ba:	bd08      	pop	{r3, pc}
 80001bc:	00000000 	.word	0x00000000
 80001c0:	200004c4 	.word	0x200004c4
 80001c4:	08020be4 	.word	0x08020be4

080001c8 <strcmp>:
 80001c8:	f810 2b01 	ldrb.w	r2, [r0], #1
 80001cc:	f811 3b01 	ldrb.w	r3, [r1], #1
 80001d0:	2a01      	cmp	r2, #1
 80001d2:	bf28      	it	cs
 80001d4:	429a      	cmpcs	r2, r3
 80001d6:	d0f7      	beq.n	80001c8 <strcmp>
 80001d8:	1ad0      	subs	r0, r2, r3
 80001da:	4770      	bx	lr

080001dc <strlen>:
 80001dc:	4603      	mov	r3, r0
 80001de:	f813 2b01 	ldrb.w	r2, [r3], #1
 80001e2:	2a00      	cmp	r2, #0
 80001e4:	d1fb      	bne.n	80001de <strlen+0x2>
 80001e6:	1a18      	subs	r0, r3, r0
 80001e8:	3801      	subs	r0, #1
 80001ea:	4770      	bx	lr

080001ec <__aeabi_drsub>:
 80001ec:	f081 4100 	eor.w	r1, r1, #2147483648	; 0x80000000
 80001f0:	e002      	b.n	80001f8 <__adddf3>
 80001f2:	bf00      	nop

080001f4 <__aeabi_dsub>:
 80001f4:	f083 4300 	eor.w	r3, r3, #2147483648	; 0x80000000

080001f8 <__adddf3>:
 80001f8:	b530      	push	{r4, r5, lr}
 80001fa:	ea4f 0441 	mov.w	r4, r1, lsl #1
 80001fe:	ea4f 0543 	mov.w	r5, r3, lsl #1
 8000202:	ea94 0f05 	teq	r4, r5
 8000206:	bf08      	it	eq
 8000208:	ea90 0f02 	teqeq	r0, r2
 800020c:	bf1f      	itttt	ne
 800020e:	ea54 0c00 	orrsne.w	ip, r4, r0
 8000212:	ea55 0c02 	orrsne.w	ip, r5, r2
 8000216:	ea7f 5c64 	mvnsne.w	ip, r4, asr #21
 800021a:	ea7f 5c65 	mvnsne.w	ip, r5, asr #21
 800021e:	f000 80e2 	beq.w	80003e6 <__adddf3+0x1ee>
 8000222:	ea4f 5454 	mov.w	r4, r4, lsr #21
 8000226:	ebd4 5555 	rsbs	r5, r4, r5, lsr #21
 800022a:	bfb8      	it	lt
 800022c:	426d      	neglt	r5, r5
 800022e:	dd0c      	ble.n	800024a <__adddf3+0x52>
 8000230:	442c      	add	r4, r5
 8000232:	ea80 0202 	eor.w	r2, r0, r2
 8000236:	ea81 0303 	eor.w	r3, r1, r3
 800023a:	ea82 0000 	eor.w	r0, r2, r0
 800023e:	ea83 0101 	eor.w	r1, r3, r1
 8000242:	ea80 0202 	eor.w	r2, r0, r2
 8000246:	ea81 0303 	eor.w	r3, r1, r3
 800024a:	2d36      	cmp	r5, #54	; 0x36
 800024c:	bf88      	it	hi
 800024e:	bd30      	pophi	{r4, r5, pc}
 8000250:	f011 4f00 	tst.w	r1, #2147483648	; 0x80000000
 8000254:	ea4f 3101 	mov.w	r1, r1, lsl #12
 8000258:	f44f 1c80 	mov.w	ip, #1048576	; 0x100000
 800025c:	ea4c 3111 	orr.w	r1, ip, r1, lsr #12
 8000260:	d002      	beq.n	8000268 <__adddf3+0x70>
 8000262:	4240      	negs	r0, r0
 8000264:	eb61 0141 	sbc.w	r1, r1, r1, lsl #1
 8000268:	f013 4f00 	tst.w	r3, #2147483648	; 0x80000000
 800026c:	ea4f 3303 	mov.w	r3, r3, lsl #12
 8000270:	ea4c 3313 	orr.w	r3, ip, r3, lsr #12
 8000274:	d002      	beq.n	800027c <__adddf3+0x84>
 8000276:	4252      	negs	r2, r2
 8000278:	eb63 0343 	sbc.w	r3, r3, r3, lsl #1
 800027c:	ea94 0f05 	teq	r4, r5
 8000280:	f000 80a7 	beq.w	80003d2 <__adddf3+0x1da>
 8000284:	f1a4 0401 	sub.w	r4, r4, #1
 8000288:	f1d5 0e20 	rsbs	lr, r5, #32
 800028c:	db0d      	blt.n	80002aa <__adddf3+0xb2>
 800028e:	fa02 fc0e 	lsl.w	ip, r2, lr
 8000292:	fa22 f205 	lsr.w	r2, r2, r5
 8000296:	1880      	adds	r0, r0, r2
 8000298:	f141 0100 	adc.w	r1, r1, #0
 800029c:	fa03 f20e 	lsl.w	r2, r3, lr
 80002a0:	1880      	adds	r0, r0, r2
 80002a2:	fa43 f305 	asr.w	r3, r3, r5
 80002a6:	4159      	adcs	r1, r3
 80002a8:	e00e      	b.n	80002c8 <__adddf3+0xd0>
 80002aa:	f1a5 0520 	sub.w	r5, r5, #32
 80002ae:	f10e 0e20 	add.w	lr, lr, #32
 80002b2:	2a01      	cmp	r2, #1
 80002b4:	fa03 fc0e 	lsl.w	ip, r3, lr
 80002b8:	bf28      	it	cs
 80002ba:	f04c 0c02 	orrcs.w	ip, ip, #2
 80002be:	fa43 f305 	asr.w	r3, r3, r5
 80002c2:	18c0      	adds	r0, r0, r3
 80002c4:	eb51 71e3 	adcs.w	r1, r1, r3, asr #31
 80002c8:	f001 4500 	and.w	r5, r1, #2147483648	; 0x80000000
 80002cc:	d507      	bpl.n	80002de <__adddf3+0xe6>
 80002ce:	f04f 0e00 	mov.w	lr, #0
 80002d2:	f1dc 0c00 	rsbs	ip, ip, #0
 80002d6:	eb7e 0000 	sbcs.w	r0, lr, r0
 80002da:	eb6e 0101 	sbc.w	r1, lr, r1
 80002de:	f5b1 1f80 	cmp.w	r1, #1048576	; 0x100000
 80002e2:	d31b      	bcc.n	800031c <__adddf3+0x124>
 80002e4:	f5b1 1f00 	cmp.w	r1, #2097152	; 0x200000
 80002e8:	d30c      	bcc.n	8000304 <__adddf3+0x10c>
 80002ea:	0849      	lsrs	r1, r1, #1
 80002ec:	ea5f 0030 	movs.w	r0, r0, rrx
 80002f0:	ea4f 0c3c 	mov.w	ip, ip, rrx
 80002f4:	f104 0401 	add.w	r4, r4, #1
 80002f8:	ea4f 5244 	mov.w	r2, r4, lsl #21
 80002fc:	f512 0f80 	cmn.w	r2, #4194304	; 0x400000
 8000300:	f080 809a 	bcs.w	8000438 <__adddf3+0x240>
 8000304:	f1bc 4f00 	cmp.w	ip, #2147483648	; 0x80000000
 8000308:	bf08      	it	eq
 800030a:	ea5f 0c50 	movseq.w	ip, r0, lsr #1
 800030e:	f150 0000 	adcs.w	r0, r0, #0
 8000312:	eb41 5104 	adc.w	r1, r1, r4, lsl #20
 8000316:	ea41 0105 	orr.w	r1, r1, r5
 800031a:	bd30      	pop	{r4, r5, pc}
 800031c:	ea5f 0c4c 	movs.w	ip, ip, lsl #1
 8000320:	4140      	adcs	r0, r0
 8000322:	eb41 0101 	adc.w	r1, r1, r1
 8000326:	f411 1f80 	tst.w	r1, #1048576	; 0x100000
 800032a:	f1a4 0401 	sub.w	r4, r4, #1
 800032e:	d1e9      	bne.n	8000304 <__adddf3+0x10c>
 8000330:	f091 0f00 	teq	r1, #0
 8000334:	bf04      	itt	eq
 8000336:	4601      	moveq	r1, r0
 8000338:	2000      	moveq	r0, #0
 800033a:	fab1 f381 	clz	r3, r1
 800033e:	bf08      	it	eq
 8000340:	3320      	addeq	r3, #32
 8000342:	f1a3 030b 	sub.w	r3, r3, #11
 8000346:	f1b3 0220 	subs.w	r2, r3, #32
 800034a:	da0c      	bge.n	8000366 <__adddf3+0x16e>
 800034c:	320c      	adds	r2, #12
 800034e:	dd08      	ble.n	8000362 <__adddf3+0x16a>
 8000350:	f102 0c14 	add.w	ip, r2, #20
 8000354:	f1c2 020c 	rsb	r2, r2, #12
 8000358:	fa01 f00c 	lsl.w	r0, r1, ip
 800035c:	fa21 f102 	lsr.w	r1, r1, r2
 8000360:	e00c      	b.n	800037c <__adddf3+0x184>
 8000362:	f102 0214 	add.w	r2, r2, #20
 8000366:	bfd8      	it	le
 8000368:	f1c2 0c20 	rsble	ip, r2, #32
 800036c:	fa01 f102 	lsl.w	r1, r1, r2
 8000370:	fa20 fc0c 	lsr.w	ip, r0, ip
 8000374:	bfdc      	itt	le
 8000376:	ea41 010c 	orrle.w	r1, r1, ip
 800037a:	4090      	lslle	r0, r2
 800037c:	1ae4      	subs	r4, r4, r3
 800037e:	bfa2      	ittt	ge
 8000380:	eb01 5104 	addge.w	r1, r1, r4, lsl #20
 8000384:	4329      	orrge	r1, r5
 8000386:	bd30      	popge	{r4, r5, pc}
 8000388:	ea6f 0404 	mvn.w	r4, r4
 800038c:	3c1f      	subs	r4, #31
 800038e:	da1c      	bge.n	80003ca <__adddf3+0x1d2>
 8000390:	340c      	adds	r4, #12
 8000392:	dc0e      	bgt.n	80003b2 <__adddf3+0x1ba>
 8000394:	f104 0414 	add.w	r4, r4, #20
 8000398:	f1c4 0220 	rsb	r2, r4, #32
 800039c:	fa20 f004 	lsr.w	r0, r0, r4
 80003a0:	fa01 f302 	lsl.w	r3, r1, r2
 80003a4:	ea40 0003 	orr.w	r0, r0, r3
 80003a8:	fa21 f304 	lsr.w	r3, r1, r4
 80003ac:	ea45 0103 	orr.w	r1, r5, r3
 80003b0:	bd30      	pop	{r4, r5, pc}
 80003b2:	f1c4 040c 	rsb	r4, r4, #12
 80003b6:	f1c4 0220 	rsb	r2, r4, #32
 80003ba:	fa20 f002 	lsr.w	r0, r0, r2
 80003be:	fa01 f304 	lsl.w	r3, r1, r4
 80003c2:	ea40 0003 	orr.w	r0, r0, r3
 80003c6:	4629      	mov	r1, r5
 80003c8:	bd30      	pop	{r4, r5, pc}
 80003ca:	fa21 f004 	lsr.w	r0, r1, r4
 80003ce:	4629      	mov	r1, r5
 80003d0:	bd30      	pop	{r4, r5, pc}
 80003d2:	f094 0f00 	teq	r4, #0
 80003d6:	f483 1380 	eor.w	r3, r3, #1048576	; 0x100000
 80003da:	bf06      	itte	eq
 80003dc:	f481 1180 	eoreq.w	r1, r1, #1048576	; 0x100000
 80003e0:	3401      	addeq	r4, #1
 80003e2:	3d01      	subne	r5, #1
 80003e4:	e74e      	b.n	8000284 <__adddf3+0x8c>
 80003e6:	ea7f 5c64 	mvns.w	ip, r4, asr #21
 80003ea:	bf18      	it	ne
 80003ec:	ea7f 5c65 	mvnsne.w	ip, r5, asr #21
 80003f0:	d029      	beq.n	8000446 <__adddf3+0x24e>
 80003f2:	ea94 0f05 	teq	r4, r5
 80003f6:	bf08      	it	eq
 80003f8:	ea90 0f02 	teqeq	r0, r2
 80003fc:	d005      	beq.n	800040a <__adddf3+0x212>
 80003fe:	ea54 0c00 	orrs.w	ip, r4, r0
 8000402:	bf04      	itt	eq
 8000404:	4619      	moveq	r1, r3
 8000406:	4610      	moveq	r0, r2
 8000408:	bd30      	pop	{r4, r5, pc}
 800040a:	ea91 0f03 	teq	r1, r3
 800040e:	bf1e      	ittt	ne
 8000410:	2100      	movne	r1, #0
 8000412:	2000      	movne	r0, #0
 8000414:	bd30      	popne	{r4, r5, pc}
 8000416:	ea5f 5c54 	movs.w	ip, r4, lsr #21
 800041a:	d105      	bne.n	8000428 <__adddf3+0x230>
 800041c:	0040      	lsls	r0, r0, #1
 800041e:	4149      	adcs	r1, r1
 8000420:	bf28      	it	cs
 8000422:	f041 4100 	orrcs.w	r1, r1, #2147483648	; 0x80000000
 8000426:	bd30      	pop	{r4, r5, pc}
 8000428:	f514 0480 	adds.w	r4, r4, #4194304	; 0x400000
 800042c:	bf3c      	itt	cc
 800042e:	f501 1180 	addcc.w	r1, r1, #1048576	; 0x100000
 8000432:	bd30      	popcc	{r4, r5, pc}
 8000434:	f001 4500 	and.w	r5, r1, #2147483648	; 0x80000000
 8000438:	f045 41fe 	orr.w	r1, r5, #2130706432	; 0x7f000000
 800043c:	f441 0170 	orr.w	r1, r1, #15728640	; 0xf00000
 8000440:	f04f 0000 	mov.w	r0, #0
 8000444:	bd30      	pop	{r4, r5, pc}
 8000446:	ea7f 5c64 	mvns.w	ip, r4, asr #21
 800044a:	bf1a      	itte	ne
 800044c:	4619      	movne	r1, r3
 800044e:	4610      	movne	r0, r2
 8000450:	ea7f 5c65 	mvnseq.w	ip, r5, asr #21
 8000454:	bf1c      	itt	ne
 8000456:	460b      	movne	r3, r1
 8000458:	4602      	movne	r2, r0
 800045a:	ea50 3401 	orrs.w	r4, r0, r1, lsl #12
 800045e:	bf06      	itte	eq
 8000460:	ea52 3503 	orrseq.w	r5, r2, r3, lsl #12
 8000464:	ea91 0f03 	teqeq	r1, r3
 8000468:	f441 2100 	orrne.w	r1, r1, #524288	; 0x80000
 800046c:	bd30      	pop	{r4, r5, pc}
 800046e:	bf00      	nop

08000470 <__aeabi_ui2d>:
 8000470:	f090 0f00 	teq	r0, #0
 8000474:	bf04      	itt	eq
 8000476:	2100      	moveq	r1, #0
 8000478:	4770      	bxeq	lr
 800047a:	b530      	push	{r4, r5, lr}
 800047c:	f44f 6480 	mov.w	r4, #1024	; 0x400
 8000480:	f104 0432 	add.w	r4, r4, #50	; 0x32
 8000484:	f04f 0500 	mov.w	r5, #0
 8000488:	f04f 0100 	mov.w	r1, #0
 800048c:	e750      	b.n	8000330 <__adddf3+0x138>
 800048e:	bf00      	nop

08000490 <__aeabi_i2d>:
 8000490:	f090 0f00 	teq	r0, #0
 8000494:	bf04      	itt	eq
 8000496:	2100      	moveq	r1, #0
 8000498:	4770      	bxeq	lr
 800049a:	b530      	push	{r4, r5, lr}
 800049c:	f44f 6480 	mov.w	r4, #1024	; 0x400
 80004a0:	f104 0432 	add.w	r4, r4, #50	; 0x32
 80004a4:	f010 4500 	ands.w	r5, r0, #2147483648	; 0x80000000
 80004a8:	bf48      	it	mi
 80004aa:	4240      	negmi	r0, r0
 80004ac:	f04f 0100 	mov.w	r1, #0
 80004b0:	e73e      	b.n	8000330 <__adddf3+0x138>
 80004b2:	bf00      	nop

080004b4 <__aeabi_f2d>:
 80004b4:	0042      	lsls	r2, r0, #1
 80004b6:	ea4f 01e2 	mov.w	r1, r2, asr #3
 80004ba:	ea4f 0131 	mov.w	r1, r1, rrx
 80004be:	ea4f 7002 	mov.w	r0, r2, lsl #28
 80004c2:	bf1f      	itttt	ne
 80004c4:	f012 437f 	andsne.w	r3, r2, #4278190080	; 0xff000000
 80004c8:	f093 4f7f 	teqne	r3, #4278190080	; 0xff000000
 80004cc:	f081 5160 	eorne.w	r1, r1, #939524096	; 0x38000000
 80004d0:	4770      	bxne	lr
 80004d2:	f092 0f00 	teq	r2, #0
 80004d6:	bf14      	ite	ne
 80004d8:	f093 4f7f 	teqne	r3, #4278190080	; 0xff000000
 80004dc:	4770      	bxeq	lr
 80004de:	b530      	push	{r4, r5, lr}
 80004e0:	f44f 7460 	mov.w	r4, #896	; 0x380
 80004e4:	f001 4500 	and.w	r5, r1, #2147483648	; 0x80000000
 80004e8:	f021 4100 	bic.w	r1, r1, #2147483648	; 0x80000000
 80004ec:	e720      	b.n	8000330 <__adddf3+0x138>
 80004ee:	bf00      	nop

080004f0 <__aeabi_ul2d>:
 80004f0:	ea50 0201 	orrs.w	r2, r0, r1
 80004f4:	bf08      	it	eq
 80004f6:	4770      	bxeq	lr
 80004f8:	b530      	push	{r4, r5, lr}
 80004fa:	f04f 0500 	mov.w	r5, #0
 80004fe:	e00a      	b.n	8000516 <__aeabi_l2d+0x16>

08000500 <__aeabi_l2d>:
 8000500:	ea50 0201 	orrs.w	r2, r0, r1
 8000504:	bf08      	it	eq
 8000506:	4770      	bxeq	lr
 8000508:	b530      	push	{r4, r5, lr}
 800050a:	f011 4500 	ands.w	r5, r1, #2147483648	; 0x80000000
 800050e:	d502      	bpl.n	8000516 <__aeabi_l2d+0x16>
 8000510:	4240      	negs	r0, r0
 8000512:	eb61 0141 	sbc.w	r1, r1, r1, lsl #1
 8000516:	f44f 6480 	mov.w	r4, #1024	; 0x400
 800051a:	f104 0432 	add.w	r4, r4, #50	; 0x32
 800051e:	ea5f 5c91 	movs.w	ip, r1, lsr #22
 8000522:	f43f aedc 	beq.w	80002de <__adddf3+0xe6>
 8000526:	f04f 0203 	mov.w	r2, #3
 800052a:	ea5f 0cdc 	movs.w	ip, ip, lsr #3
 800052e:	bf18      	it	ne
 8000530:	3203      	addne	r2, #3
 8000532:	ea5f 0cdc 	movs.w	ip, ip, lsr #3
 8000536:	bf18      	it	ne
 8000538:	3203      	addne	r2, #3
 800053a:	eb02 02dc 	add.w	r2, r2, ip, lsr #3
 800053e:	f1c2 0320 	rsb	r3, r2, #32
 8000542:	fa00 fc03 	lsl.w	ip, r0, r3
 8000546:	fa20 f002 	lsr.w	r0, r0, r2
 800054a:	fa01 fe03 	lsl.w	lr, r1, r3
 800054e:	ea40 000e 	orr.w	r0, r0, lr
 8000552:	fa21 f102 	lsr.w	r1, r1, r2
 8000556:	4414      	add	r4, r2
 8000558:	e6c1      	b.n	80002de <__adddf3+0xe6>
 800055a:	bf00      	nop

0800055c <__aeabi_dmul>:
 800055c:	b570      	push	{r4, r5, r6, lr}
 800055e:	f04f 0cff 	mov.w	ip, #255	; 0xff
 8000562:	f44c 6ce0 	orr.w	ip, ip, #1792	; 0x700
 8000566:	ea1c 5411 	ands.w	r4, ip, r1, lsr #20
 800056a:	bf1d      	ittte	ne
 800056c:	ea1c 5513 	andsne.w	r5, ip, r3, lsr #20
 8000570:	ea94 0f0c 	teqne	r4, ip
 8000574:	ea95 0f0c 	teqne	r5, ip
 8000578:	f000 f8de 	bleq	8000738 <__aeabi_dmul+0x1dc>
 800057c:	442c      	add	r4, r5
 800057e:	ea81 0603 	eor.w	r6, r1, r3
 8000582:	ea21 514c 	bic.w	r1, r1, ip, lsl #21
 8000586:	ea23 534c 	bic.w	r3, r3, ip, lsl #21
 800058a:	ea50 3501 	orrs.w	r5, r0, r1, lsl #12
 800058e:	bf18      	it	ne
 8000590:	ea52 3503 	orrsne.w	r5, r2, r3, lsl #12
 8000594:	f441 1180 	orr.w	r1, r1, #1048576	; 0x100000
 8000598:	f443 1380 	orr.w	r3, r3, #1048576	; 0x100000
 800059c:	d038      	beq.n	8000610 <__aeabi_dmul+0xb4>
 800059e:	fba0 ce02 	umull	ip, lr, r0, r2
 80005a2:	f04f 0500 	mov.w	r5, #0
 80005a6:	fbe1 e502 	umlal	lr, r5, r1, r2
 80005aa:	f006 4200 	and.w	r2, r6, #2147483648	; 0x80000000
 80005ae:	fbe0 e503 	umlal	lr, r5, r0, r3
 80005b2:	f04f 0600 	mov.w	r6, #0
 80005b6:	fbe1 5603 	umlal	r5, r6, r1, r3
 80005ba:	f09c 0f00 	teq	ip, #0
 80005be:	bf18      	it	ne
 80005c0:	f04e 0e01 	orrne.w	lr, lr, #1
 80005c4:	f1a4 04ff 	sub.w	r4, r4, #255	; 0xff
 80005c8:	f5b6 7f00 	cmp.w	r6, #512	; 0x200
 80005cc:	f564 7440 	sbc.w	r4, r4, #768	; 0x300
 80005d0:	d204      	bcs.n	80005dc <__aeabi_dmul+0x80>
 80005d2:	ea5f 0e4e 	movs.w	lr, lr, lsl #1
 80005d6:	416d      	adcs	r5, r5
 80005d8:	eb46 0606 	adc.w	r6, r6, r6
 80005dc:	ea42 21c6 	orr.w	r1, r2, r6, lsl #11
 80005e0:	ea41 5155 	orr.w	r1, r1, r5, lsr #21
 80005e4:	ea4f 20c5 	mov.w	r0, r5, lsl #11
 80005e8:	ea40 505e 	orr.w	r0, r0, lr, lsr #21
 80005ec:	ea4f 2ece 	mov.w	lr, lr, lsl #11
 80005f0:	f1b4 0cfd 	subs.w	ip, r4, #253	; 0xfd
 80005f4:	bf88      	it	hi
 80005f6:	f5bc 6fe0 	cmphi.w	ip, #1792	; 0x700
 80005fa:	d81e      	bhi.n	800063a <__aeabi_dmul+0xde>
 80005fc:	f1be 4f00 	cmp.w	lr, #2147483648	; 0x80000000
 8000600:	bf08      	it	eq
 8000602:	ea5f 0e50 	movseq.w	lr, r0, lsr #1
 8000606:	f150 0000 	adcs.w	r0, r0, #0
 800060a:	eb41 5104 	adc.w	r1, r1, r4, lsl #20
 800060e:	bd70      	pop	{r4, r5, r6, pc}
 8000610:	f006 4600 	and.w	r6, r6, #2147483648	; 0x80000000
 8000614:	ea46 0101 	orr.w	r1, r6, r1
 8000618:	ea40 0002 	orr.w	r0, r0, r2
 800061c:	ea81 0103 	eor.w	r1, r1, r3
 8000620:	ebb4 045c 	subs.w	r4, r4, ip, lsr #1
 8000624:	bfc2      	ittt	gt
 8000626:	ebd4 050c 	rsbsgt	r5, r4, ip
 800062a:	ea41 5104 	orrgt.w	r1, r1, r4, lsl #20
 800062e:	bd70      	popgt	{r4, r5, r6, pc}
 8000630:	f441 1180 	orr.w	r1, r1, #1048576	; 0x100000
 8000634:	f04f 0e00 	mov.w	lr, #0
 8000638:	3c01      	subs	r4, #1
 800063a:	f300 80ab 	bgt.w	8000794 <__aeabi_dmul+0x238>
 800063e:	f114 0f36 	cmn.w	r4, #54	; 0x36
 8000642:	bfde      	ittt	le
 8000644:	2000      	movle	r0, #0
 8000646:	f001 4100 	andle.w	r1, r1, #2147483648	; 0x80000000
 800064a:	bd70      	pople	{r4, r5, r6, pc}
 800064c:	f1c4 0400 	rsb	r4, r4, #0
 8000650:	3c20      	subs	r4, #32
 8000652:	da35      	bge.n	80006c0 <__aeabi_dmul+0x164>
 8000654:	340c      	adds	r4, #12
 8000656:	dc1b      	bgt.n	8000690 <__aeabi_dmul+0x134>
 8000658:	f104 0414 	add.w	r4, r4, #20
 800065c:	f1c4 0520 	rsb	r5, r4, #32
 8000660:	fa00 f305 	lsl.w	r3, r0, r5
 8000664:	fa20 f004 	lsr.w	r0, r0, r4
 8000668:	fa01 f205 	lsl.w	r2, r1, r5
 800066c:	ea40 0002 	orr.w	r0, r0, r2
 8000670:	f001 4200 	and.w	r2, r1, #2147483648	; 0x80000000
 8000674:	f021 4100 	bic.w	r1, r1, #2147483648	; 0x80000000
 8000678:	eb10 70d3 	adds.w	r0, r0, r3, lsr #31
 800067c:	fa21 f604 	lsr.w	r6, r1, r4
 8000680:	eb42 0106 	adc.w	r1, r2, r6
 8000684:	ea5e 0e43 	orrs.w	lr, lr, r3, lsl #1
 8000688:	bf08      	it	eq
 800068a:	ea20 70d3 	biceq.w	r0, r0, r3, lsr #31
 800068e:	bd70      	pop	{r4, r5, r6, pc}
 8000690:	f1c4 040c 	rsb	r4, r4, #12
 8000694:	f1c4 0520 	rsb	r5, r4, #32
 8000698:	fa00 f304 	lsl.w	r3, r0, r4
 800069c:	fa20 f005 	lsr.w	r0, r0, r5
 80006a0:	fa01 f204 	lsl.w	r2, r1, r4
 80006a4:	ea40 0002 	orr.w	r0, r0, r2
 80006a8:	f001 4100 	and.w	r1, r1, #2147483648	; 0x80000000
 80006ac:	eb10 70d3 	adds.w	r0, r0, r3, lsr #31
 80006b0:	f141 0100 	adc.w	r1, r1, #0
 80006b4:	ea5e 0e43 	orrs.w	lr, lr, r3, lsl #1
 80006b8:	bf08      	it	eq
 80006ba:	ea20 70d3 	biceq.w	r0, r0, r3, lsr #31
 80006be:	bd70      	pop	{r4, r5, r6, pc}
 80006c0:	f1c4 0520 	rsb	r5, r4, #32
 80006c4:	fa00 f205 	lsl.w	r2, r0, r5
 80006c8:	ea4e 0e02 	orr.w	lr, lr, r2
 80006cc:	fa20 f304 	lsr.w	r3, r0, r4
 80006d0:	fa01 f205 	lsl.w	r2, r1, r5
 80006d4:	ea43 0302 	orr.w	r3, r3, r2
 80006d8:	fa21 f004 	lsr.w	r0, r1, r4
 80006dc:	f001 4100 	and.w	r1, r1, #2147483648	; 0x80000000
 80006e0:	fa21 f204 	lsr.w	r2, r1, r4
 80006e4:	ea20 0002 	bic.w	r0, r0, r2
 80006e8:	eb00 70d3 	add.w	r0, r0, r3, lsr #31
 80006ec:	ea5e 0e43 	orrs.w	lr, lr, r3, lsl #1
 80006f0:	bf08      	it	eq
 80006f2:	ea20 70d3 	biceq.w	r0, r0, r3, lsr #31
 80006f6:	bd70      	pop	{r4, r5, r6, pc}
 80006f8:	f094 0f00 	teq	r4, #0
 80006fc:	d10f      	bne.n	800071e <__aeabi_dmul+0x1c2>
 80006fe:	f001 4600 	and.w	r6, r1, #2147483648	; 0x80000000
 8000702:	0040      	lsls	r0, r0, #1
 8000704:	eb41 0101 	adc.w	r1, r1, r1
 8000708:	f411 1f80 	tst.w	r1, #1048576	; 0x100000
 800070c:	bf08      	it	eq
 800070e:	3c01      	subeq	r4, #1
 8000710:	d0f7      	beq.n	8000702 <__aeabi_dmul+0x1a6>
 8000712:	ea41 0106 	orr.w	r1, r1, r6
 8000716:	f095 0f00 	teq	r5, #0
 800071a:	bf18      	it	ne
 800071c:	4770      	bxne	lr
 800071e:	f003 4600 	and.w	r6, r3, #2147483648	; 0x80000000
 8000722:	0052      	lsls	r2, r2, #1
 8000724:	eb43 0303 	adc.w	r3, r3, r3
 8000728:	f413 1f80 	tst.w	r3, #1048576	; 0x100000
 800072c:	bf08      	it	eq
 800072e:	3d01      	subeq	r5, #1
 8000730:	d0f7      	beq.n	8000722 <__aeabi_dmul+0x1c6>
 8000732:	ea43 0306 	orr.w	r3, r3, r6
 8000736:	4770      	bx	lr
 8000738:	ea94 0f0c 	teq	r4, ip
 800073c:	ea0c 5513 	and.w	r5, ip, r3, lsr #20
 8000740:	bf18      	it	ne
 8000742:	ea95 0f0c 	teqne	r5, ip
 8000746:	d00c      	beq.n	8000762 <__aeabi_dmul+0x206>
 8000748:	ea50 0641 	orrs.w	r6, r0, r1, lsl #1
 800074c:	bf18      	it	ne
 800074e:	ea52 0643 	orrsne.w	r6, r2, r3, lsl #1
 8000752:	d1d1      	bne.n	80006f8 <__aeabi_dmul+0x19c>
 8000754:	ea81 0103 	eor.w	r1, r1, r3
 8000758:	f001 4100 	and.w	r1, r1, #2147483648	; 0x80000000
 800075c:	f04f 0000 	mov.w	r0, #0
 8000760:	bd70      	pop	{r4, r5, r6, pc}
 8000762:	ea50 0641 	orrs.w	r6, r0, r1, lsl #1
 8000766:	bf06      	itte	eq
 8000768:	4610      	moveq	r0, r2
 800076a:	4619      	moveq	r1, r3
 800076c:	ea52 0643 	orrsne.w	r6, r2, r3, lsl #1
 8000770:	d019      	beq.n	80007a6 <__aeabi_dmul+0x24a>
 8000772:	ea94 0f0c 	teq	r4, ip
 8000776:	d102      	bne.n	800077e <__aeabi_dmul+0x222>
 8000778:	ea50 3601 	orrs.w	r6, r0, r1, lsl #12
 800077c:	d113      	bne.n	80007a6 <__aeabi_dmul+0x24a>
 800077e:	ea95 0f0c 	teq	r5, ip
 8000782:	d105      	bne.n	8000790 <__aeabi_dmul+0x234>
 8000784:	ea52 3603 	orrs.w	r6, r2, r3, lsl #12
 8000788:	bf1c      	itt	ne
 800078a:	4610      	movne	r0, r2
 800078c:	4619      	movne	r1, r3
 800078e:	d10a      	bne.n	80007a6 <__aeabi_dmul+0x24a>
 8000790:	ea81 0103 	eor.w	r1, r1, r3
 8000794:	f001 4100 	and.w	r1, r1, #2147483648	; 0x80000000
 8000798:	f041 41fe 	orr.w	r1, r1, #2130706432	; 0x7f000000
 800079c:	f441 0170 	orr.w	r1, r1, #15728640	; 0xf00000
 80007a0:	f04f 0000 	mov.w	r0, #0
 80007a4:	bd70      	pop	{r4, r5, r6, pc}
 80007a6:	f041 41fe 	orr.w	r1, r1, #2130706432	; 0x7f000000
 80007aa:	f441 0178 	orr.w	r1, r1, #16252928	; 0xf80000
 80007ae:	bd70      	pop	{r4, r5, r6, pc}

080007b0 <__aeabi_ddiv>:
 80007b0:	b570      	push	{r4, r5, r6, lr}
 80007b2:	f04f 0cff 	mov.w	ip, #255	; 0xff
 80007b6:	f44c 6ce0 	orr.w	ip, ip, #1792	; 0x700
 80007ba:	ea1c 5411 	ands.w	r4, ip, r1, lsr #20
 80007be:	bf1d      	ittte	ne
 80007c0:	ea1c 5513 	andsne.w	r5, ip, r3, lsr #20
 80007c4:	ea94 0f0c 	teqne	r4, ip
 80007c8:	ea95 0f0c 	teqne	r5, ip
 80007cc:	f000 f8a7 	bleq	800091e <__aeabi_ddiv+0x16e>
 80007d0:	eba4 0405 	sub.w	r4, r4, r5
 80007d4:	ea81 0e03 	eor.w	lr, r1, r3
 80007d8:	ea52 3503 	orrs.w	r5, r2, r3, lsl #12
 80007dc:	ea4f 3101 	mov.w	r1, r1, lsl #12
 80007e0:	f000 8088 	beq.w	80008f4 <__aeabi_ddiv+0x144>
 80007e4:	ea4f 3303 	mov.w	r3, r3, lsl #12
 80007e8:	f04f 5580 	mov.w	r5, #268435456	; 0x10000000
 80007ec:	ea45 1313 	orr.w	r3, r5, r3, lsr #4
 80007f0:	ea43 6312 	orr.w	r3, r3, r2, lsr #24
 80007f4:	ea4f 2202 	mov.w	r2, r2, lsl #8
 80007f8:	ea45 1511 	orr.w	r5, r5, r1, lsr #4
 80007fc:	ea45 6510 	orr.w	r5, r5, r0, lsr #24
 8000800:	ea4f 2600 	mov.w	r6, r0, lsl #8
 8000804:	f00e 4100 	and.w	r1, lr, #2147483648	; 0x80000000
 8000808:	429d      	cmp	r5, r3
 800080a:	bf08      	it	eq
 800080c:	4296      	cmpeq	r6, r2
 800080e:	f144 04fd 	adc.w	r4, r4, #253	; 0xfd
 8000812:	f504 7440 	add.w	r4, r4, #768	; 0x300
 8000816:	d202      	bcs.n	800081e <__aeabi_ddiv+0x6e>
 8000818:	085b      	lsrs	r3, r3, #1
 800081a:	ea4f 0232 	mov.w	r2, r2, rrx
 800081e:	1ab6      	subs	r6, r6, r2
 8000820:	eb65 0503 	sbc.w	r5, r5, r3
 8000824:	085b      	lsrs	r3, r3, #1
 8000826:	ea4f 0232 	mov.w	r2, r2, rrx
 800082a:	f44f 1080 	mov.w	r0, #1048576	; 0x100000
 800082e:	f44f 2c00 	mov.w	ip, #524288	; 0x80000
 8000832:	ebb6 0e02 	subs.w	lr, r6, r2
 8000836:	eb75 0e03 	sbcs.w	lr, r5, r3
 800083a:	bf22      	ittt	cs
 800083c:	1ab6      	subcs	r6, r6, r2
 800083e:	4675      	movcs	r5, lr
 8000840:	ea40 000c 	orrcs.w	r0, r0, ip
 8000844:	085b      	lsrs	r3, r3, #1
 8000846:	ea4f 0232 	mov.w	r2, r2, rrx
 800084a:	ebb6 0e02 	subs.w	lr, r6, r2
 800084e:	eb75 0e03 	sbcs.w	lr, r5, r3
 8000852:	bf22      	ittt	cs
 8000854:	1ab6      	subcs	r6, r6, r2
 8000856:	4675      	movcs	r5, lr
 8000858:	ea40 005c 	orrcs.w	r0, r0, ip, lsr #1
 800085c:	085b      	lsrs	r3, r3, #1
 800085e:	ea4f 0232 	mov.w	r2, r2, rrx
 8000862:	ebb6 0e02 	subs.w	lr, r6, r2
 8000866:	eb75 0e03 	sbcs.w	lr, r5, r3
 800086a:	bf22      	ittt	cs
 800086c:	1ab6      	subcs	r6, r6, r2
 800086e:	4675      	movcs	r5, lr
 8000870:	ea40 009c 	orrcs.w	r0, r0, ip, lsr #2
 8000874:	085b      	lsrs	r3, r3, #1
 8000876:	ea4f 0232 	mov.w	r2, r2, rrx
 800087a:	ebb6 0e02 	subs.w	lr, r6, r2
 800087e:	eb75 0e03 	sbcs.w	lr, r5, r3
 8000882:	bf22      	ittt	cs
 8000884:	1ab6      	subcs	r6, r6, r2
 8000886:	4675      	movcs	r5, lr
 8000888:	ea40 00dc 	orrcs.w	r0, r0, ip, lsr #3
 800088c:	ea55 0e06 	orrs.w	lr, r5, r6
 8000890:	d018      	beq.n	80008c4 <__aeabi_ddiv+0x114>
 8000892:	ea4f 1505 	mov.w	r5, r5, lsl #4
 8000896:	ea45 7516 	orr.w	r5, r5, r6, lsr #28
 800089a:	ea4f 1606 	mov.w	r6, r6, lsl #4
 800089e:	ea4f 03c3 	mov.w	r3, r3, lsl #3
 80008a2:	ea43 7352 	orr.w	r3, r3, r2, lsr #29
 80008a6:	ea4f 02c2 	mov.w	r2, r2, lsl #3
 80008aa:	ea5f 1c1c 	movs.w	ip, ip, lsr #4
 80008ae:	d1c0      	bne.n	8000832 <__aeabi_ddiv+0x82>
 80008b0:	f411 1f80 	tst.w	r1, #1048576	; 0x100000
 80008b4:	d10b      	bne.n	80008ce <__aeabi_ddiv+0x11e>
 80008b6:	ea41 0100 	orr.w	r1, r1, r0
 80008ba:	f04f 0000 	mov.w	r0, #0
 80008be:	f04f 4c00 	mov.w	ip, #2147483648	; 0x80000000
 80008c2:	e7b6      	b.n	8000832 <__aeabi_ddiv+0x82>
 80008c4:	f411 1f80 	tst.w	r1, #1048576	; 0x100000
 80008c8:	bf04      	itt	eq
 80008ca:	4301      	orreq	r1, r0
 80008cc:	2000      	moveq	r0, #0
 80008ce:	f1b4 0cfd 	subs.w	ip, r4, #253	; 0xfd
 80008d2:	bf88      	it	hi
 80008d4:	f5bc 6fe0 	cmphi.w	ip, #1792	; 0x700
 80008d8:	f63f aeaf 	bhi.w	800063a <__aeabi_dmul+0xde>
 80008dc:	ebb5 0c03 	subs.w	ip, r5, r3
 80008e0:	bf04      	itt	eq
 80008e2:	ebb6 0c02 	subseq.w	ip, r6, r2
 80008e6:	ea5f 0c50 	movseq.w	ip, r0, lsr #1
 80008ea:	f150 0000 	adcs.w	r0, r0, #0
 80008ee:	eb41 5104 	adc.w	r1, r1, r4, lsl #20
 80008f2:	bd70      	pop	{r4, r5, r6, pc}
 80008f4:	f00e 4e00 	and.w	lr, lr, #2147483648	; 0x80000000
 80008f8:	ea4e 3111 	orr.w	r1, lr, r1, lsr #12
 80008fc:	eb14 045c 	adds.w	r4, r4, ip, lsr #1
 8000900:	bfc2      	ittt	gt
 8000902:	ebd4 050c 	rsbsgt	r5, r4, ip
 8000906:	ea41 5104 	orrgt.w	r1, r1, r4, lsl #20
 800090a:	bd70      	popgt	{r4, r5, r6, pc}
 800090c:	f441 1180 	orr.w	r1, r1, #1048576	; 0x100000
 8000910:	f04f 0e00 	mov.w	lr, #0
 8000914:	3c01      	subs	r4, #1
 8000916:	e690      	b.n	800063a <__aeabi_dmul+0xde>
 8000918:	ea45 0e06 	orr.w	lr, r5, r6
 800091c:	e68d      	b.n	800063a <__aeabi_dmul+0xde>
 800091e:	ea0c 5513 	and.w	r5, ip, r3, lsr #20
 8000922:	ea94 0f0c 	teq	r4, ip
 8000926:	bf08      	it	eq
 8000928:	ea95 0f0c 	teqeq	r5, ip
 800092c:	f43f af3b 	beq.w	80007a6 <__aeabi_dmul+0x24a>
 8000930:	ea94 0f0c 	teq	r4, ip
 8000934:	d10a      	bne.n	800094c <__aeabi_ddiv+0x19c>
 8000936:	ea50 3401 	orrs.w	r4, r0, r1, lsl #12
 800093a:	f47f af34 	bne.w	80007a6 <__aeabi_dmul+0x24a>
 800093e:	ea95 0f0c 	teq	r5, ip
 8000942:	f47f af25 	bne.w	8000790 <__aeabi_dmul+0x234>
 8000946:	4610      	mov	r0, r2
 8000948:	4619      	mov	r1, r3
 800094a:	e72c      	b.n	80007a6 <__aeabi_dmul+0x24a>
 800094c:	ea95 0f0c 	teq	r5, ip
 8000950:	d106      	bne.n	8000960 <__aeabi_ddiv+0x1b0>
 8000952:	ea52 3503 	orrs.w	r5, r2, r3, lsl #12
 8000956:	f43f aefd 	beq.w	8000754 <__aeabi_dmul+0x1f8>
 800095a:	4610      	mov	r0, r2
 800095c:	4619      	mov	r1, r3
 800095e:	e722      	b.n	80007a6 <__aeabi_dmul+0x24a>
 8000960:	ea50 0641 	orrs.w	r6, r0, r1, lsl #1
 8000964:	bf18      	it	ne
 8000966:	ea52 0643 	orrsne.w	r6, r2, r3, lsl #1
 800096a:	f47f aec5 	bne.w	80006f8 <__aeabi_dmul+0x19c>
 800096e:	ea50 0441 	orrs.w	r4, r0, r1, lsl #1
 8000972:	f47f af0d 	bne.w	8000790 <__aeabi_dmul+0x234>
 8000976:	ea52 0543 	orrs.w	r5, r2, r3, lsl #1
 800097a:	f47f aeeb 	bne.w	8000754 <__aeabi_dmul+0x1f8>
 800097e:	e712      	b.n	80007a6 <__aeabi_dmul+0x24a>

08000980 <__gedf2>:
 8000980:	f04f 3cff 	mov.w	ip, #4294967295	; 0xffffffff
 8000984:	e006      	b.n	8000994 <__cmpdf2+0x4>
 8000986:	bf00      	nop

08000988 <__ledf2>:
 8000988:	f04f 0c01 	mov.w	ip, #1
 800098c:	e002      	b.n	8000994 <__cmpdf2+0x4>
 800098e:	bf00      	nop

08000990 <__cmpdf2>:
 8000990:	f04f 0c01 	mov.w	ip, #1
 8000994:	f84d cd04 	str.w	ip, [sp, #-4]!
 8000998:	ea4f 0c41 	mov.w	ip, r1, lsl #1
 800099c:	ea7f 5c6c 	mvns.w	ip, ip, asr #21
 80009a0:	ea4f 0c43 	mov.w	ip, r3, lsl #1
 80009a4:	bf18      	it	ne
 80009a6:	ea7f 5c6c 	mvnsne.w	ip, ip, asr #21
 80009aa:	d01b      	beq.n	80009e4 <__cmpdf2+0x54>
 80009ac:	b001      	add	sp, #4
 80009ae:	ea50 0c41 	orrs.w	ip, r0, r1, lsl #1
 80009b2:	bf0c      	ite	eq
 80009b4:	ea52 0c43 	orrseq.w	ip, r2, r3, lsl #1
 80009b8:	ea91 0f03 	teqne	r1, r3
 80009bc:	bf02      	ittt	eq
 80009be:	ea90 0f02 	teqeq	r0, r2
 80009c2:	2000      	moveq	r0, #0
 80009c4:	4770      	bxeq	lr
 80009c6:	f110 0f00 	cmn.w	r0, #0
 80009ca:	ea91 0f03 	teq	r1, r3
 80009ce:	bf58      	it	pl
 80009d0:	4299      	cmppl	r1, r3
 80009d2:	bf08      	it	eq
 80009d4:	4290      	cmpeq	r0, r2
 80009d6:	bf2c      	ite	cs
 80009d8:	17d8      	asrcs	r0, r3, #31
 80009da:	ea6f 70e3 	mvncc.w	r0, r3, asr #31
 80009de:	f040 0001 	orr.w	r0, r0, #1
 80009e2:	4770      	bx	lr
 80009e4:	ea4f 0c41 	mov.w	ip, r1, lsl #1
 80009e8:	ea7f 5c6c 	mvns.w	ip, ip, asr #21
 80009ec:	d102      	bne.n	80009f4 <__cmpdf2+0x64>
 80009ee:	ea50 3c01 	orrs.w	ip, r0, r1, lsl #12
 80009f2:	d107      	bne.n	8000a04 <__cmpdf2+0x74>
 80009f4:	ea4f 0c43 	mov.w	ip, r3, lsl #1
 80009f8:	ea7f 5c6c 	mvns.w	ip, ip, asr #21
 80009fc:	d1d6      	bne.n	80009ac <__cmpdf2+0x1c>
 80009fe:	ea52 3c03 	orrs.w	ip, r2, r3, lsl #12
 8000a02:	d0d3      	beq.n	80009ac <__cmpdf2+0x1c>
 8000a04:	f85d 0b04 	ldr.w	r0, [sp], #4
 8000a08:	4770      	bx	lr
 8000a0a:	bf00      	nop

08000a0c <__aeabi_cdrcmple>:
 8000a0c:	4684      	mov	ip, r0
 8000a0e:	4610      	mov	r0, r2
 8000a10:	4662      	mov	r2, ip
 8000a12:	468c      	mov	ip, r1
 8000a14:	4619      	mov	r1, r3
 8000a16:	4663      	mov	r3, ip
 8000a18:	e000      	b.n	8000a1c <__aeabi_cdcmpeq>
 8000a1a:	bf00      	nop

08000a1c <__aeabi_cdcmpeq>:
 8000a1c:	b501      	push	{r0, lr}
 8000a1e:	f7ff ffb7 	bl	8000990 <__cmpdf2>
 8000a22:	2800      	cmp	r0, #0
 8000a24:	bf48      	it	mi
 8000a26:	f110 0f00 	cmnmi.w	r0, #0
 8000a2a:	bd01      	pop	{r0, pc}

08000a2c <__aeabi_dcmpeq>:
 8000a2c:	f84d ed08 	str.w	lr, [sp, #-8]!
 8000a30:	f7ff fff4 	bl	8000a1c <__aeabi_cdcmpeq>
 8000a34:	bf0c      	ite	eq
 8000a36:	2001      	moveq	r0, #1
 8000a38:	2000      	movne	r0, #0
 8000a3a:	f85d fb08 	ldr.w	pc, [sp], #8
 8000a3e:	bf00      	nop

08000a40 <__aeabi_dcmplt>:
 8000a40:	f84d ed08 	str.w	lr, [sp, #-8]!
 8000a44:	f7ff ffea 	bl	8000a1c <__aeabi_cdcmpeq>
 8000a48:	bf34      	ite	cc
 8000a4a:	2001      	movcc	r0, #1
 8000a4c:	2000      	movcs	r0, #0
 8000a4e:	f85d fb08 	ldr.w	pc, [sp], #8
 8000a52:	bf00      	nop

08000a54 <__aeabi_dcmple>:
 8000a54:	f84d ed08 	str.w	lr, [sp, #-8]!
 8000a58:	f7ff ffe0 	bl	8000a1c <__aeabi_cdcmpeq>
 8000a5c:	bf94      	ite	ls
 8000a5e:	2001      	movls	r0, #1
 8000a60:	2000      	movhi	r0, #0
 8000a62:	f85d fb08 	ldr.w	pc, [sp], #8
 8000a66:	bf00      	nop

08000a68 <__aeabi_dcmpge>:
 8000a68:	f84d ed08 	str.w	lr, [sp, #-8]!
 8000a6c:	f7ff ffce 	bl	8000a0c <__aeabi_cdrcmple>
 8000a70:	bf94      	ite	ls
 8000a72:	2001      	movls	r0, #1
 8000a74:	2000      	movhi	r0, #0
 8000a76:	f85d fb08 	ldr.w	pc, [sp], #8
 8000a7a:	bf00      	nop

08000a7c <__aeabi_dcmpgt>:
 8000a7c:	f84d ed08 	str.w	lr, [sp, #-8]!
 8000a80:	f7ff ffc4 	bl	8000a0c <__aeabi_cdrcmple>
 8000a84:	bf34      	ite	cc
 8000a86:	2001      	movcc	r0, #1
 8000a88:	2000      	movcs	r0, #0
 8000a8a:	f85d fb08 	ldr.w	pc, [sp], #8
 8000a8e:	bf00      	nop

08000a90 <__aeabi_dcmpun>:
 8000a90:	ea4f 0c41 	mov.w	ip, r1, lsl #1
 8000a94:	ea7f 5c6c 	mvns.w	ip, ip, asr #21
 8000a98:	d102      	bne.n	8000aa0 <__aeabi_dcmpun+0x10>
 8000a9a:	ea50 3c01 	orrs.w	ip, r0, r1, lsl #12
 8000a9e:	d10a      	bne.n	8000ab6 <__aeabi_dcmpun+0x26>
 8000aa0:	ea4f 0c43 	mov.w	ip, r3, lsl #1
 8000aa4:	ea7f 5c6c 	mvns.w	ip, ip, asr #21
 8000aa8:	d102      	bne.n	8000ab0 <__aeabi_dcmpun+0x20>
 8000aaa:	ea52 3c03 	orrs.w	ip, r2, r3, lsl #12
 8000aae:	d102      	bne.n	8000ab6 <__aeabi_dcmpun+0x26>
 8000ab0:	f04f 0000 	mov.w	r0, #0
 8000ab4:	4770      	bx	lr
 8000ab6:	f04f 0001 	mov.w	r0, #1
 8000aba:	4770      	bx	lr

08000abc <__aeabi_d2iz>:
 8000abc:	ea4f 0241 	mov.w	r2, r1, lsl #1
 8000ac0:	f512 1200 	adds.w	r2, r2, #2097152	; 0x200000
 8000ac4:	d215      	bcs.n	8000af2 <__aeabi_d2iz+0x36>
 8000ac6:	d511      	bpl.n	8000aec <__aeabi_d2iz+0x30>
 8000ac8:	f46f 7378 	mvn.w	r3, #992	; 0x3e0
 8000acc:	ebb3 5262 	subs.w	r2, r3, r2, asr #21
 8000ad0:	d912      	bls.n	8000af8 <__aeabi_d2iz+0x3c>
 8000ad2:	ea4f 23c1 	mov.w	r3, r1, lsl #11
 8000ad6:	f043 4300 	orr.w	r3, r3, #2147483648	; 0x80000000
 8000ada:	ea43 5350 	orr.w	r3, r3, r0, lsr #21
 8000ade:	f011 4f00 	tst.w	r1, #2147483648	; 0x80000000
 8000ae2:	fa23 f002 	lsr.w	r0, r3, r2
 8000ae6:	bf18      	it	ne
 8000ae8:	4240      	negne	r0, r0
 8000aea:	4770      	bx	lr
 8000aec:	f04f 0000 	mov.w	r0, #0
 8000af0:	4770      	bx	lr
 8000af2:	ea50 3001 	orrs.w	r0, r0, r1, lsl #12
 8000af6:	d105      	bne.n	8000b04 <__aeabi_d2iz+0x48>
 8000af8:	f011 4000 	ands.w	r0, r1, #2147483648	; 0x80000000
 8000afc:	bf08      	it	eq
 8000afe:	f06f 4000 	mvneq.w	r0, #2147483648	; 0x80000000
 8000b02:	4770      	bx	lr
 8000b04:	f04f 0000 	mov.w	r0, #0
 8000b08:	4770      	bx	lr
 8000b0a:	bf00      	nop

08000b0c <__aeabi_d2uiz>:
 8000b0c:	004a      	lsls	r2, r1, #1
 8000b0e:	d211      	bcs.n	8000b34 <__aeabi_d2uiz+0x28>
 8000b10:	f512 1200 	adds.w	r2, r2, #2097152	; 0x200000
 8000b14:	d211      	bcs.n	8000b3a <__aeabi_d2uiz+0x2e>
 8000b16:	d50d      	bpl.n	8000b34 <__aeabi_d2uiz+0x28>
 8000b18:	f46f 7378 	mvn.w	r3, #992	; 0x3e0
 8000b1c:	ebb3 5262 	subs.w	r2, r3, r2, asr #21
 8000b20:	d40e      	bmi.n	8000b40 <__aeabi_d2uiz+0x34>
 8000b22:	ea4f 23c1 	mov.w	r3, r1, lsl #11
 8000b26:	f043 4300 	orr.w	r3, r3, #2147483648	; 0x80000000
 8000b2a:	ea43 5350 	orr.w	r3, r3, r0, lsr #21
 8000b2e:	fa23 f002 	lsr.w	r0, r3, r2
 8000b32:	4770      	bx	lr
 8000b34:	f04f 0000 	mov.w	r0, #0
 8000b38:	4770      	bx	lr
 8000b3a:	ea50 3001 	orrs.w	r0, r0, r1, lsl #12
 8000b3e:	d102      	bne.n	8000b46 <__aeabi_d2uiz+0x3a>
 8000b40:	f04f 30ff 	mov.w	r0, #4294967295	; 0xffffffff
 8000b44:	4770      	bx	lr
 8000b46:	f04f 0000 	mov.w	r0, #0
 8000b4a:	4770      	bx	lr

08000b4c <__aeabi_d2f>:
 8000b4c:	ea4f 0241 	mov.w	r2, r1, lsl #1
 8000b50:	f1b2 43e0 	subs.w	r3, r2, #1879048192	; 0x70000000
 8000b54:	bf24      	itt	cs
 8000b56:	f5b3 1c00 	subscs.w	ip, r3, #2097152	; 0x200000
 8000b5a:	f1dc 5cfe 	rsbscs	ip, ip, #532676608	; 0x1fc00000
 8000b5e:	d90d      	bls.n	8000b7c <__aeabi_d2f+0x30>
 8000b60:	f001 4c00 	and.w	ip, r1, #2147483648	; 0x80000000
 8000b64:	ea4f 02c0 	mov.w	r2, r0, lsl #3
 8000b68:	ea4c 7050 	orr.w	r0, ip, r0, lsr #29
 8000b6c:	f1b2 4f00 	cmp.w	r2, #2147483648	; 0x80000000
 8000b70:	eb40 0083 	adc.w	r0, r0, r3, lsl #2
 8000b74:	bf08      	it	eq
 8000b76:	f020 0001 	biceq.w	r0, r0, #1
 8000b7a:	4770      	bx	lr
 8000b7c:	f011 4f80 	tst.w	r1, #1073741824	; 0x40000000
 8000b80:	d121      	bne.n	8000bc6 <__aeabi_d2f+0x7a>
 8000b82:	f113 7238 	adds.w	r2, r3, #48234496	; 0x2e00000
 8000b86:	bfbc      	itt	lt
 8000b88:	f001 4000 	andlt.w	r0, r1, #2147483648	; 0x80000000
 8000b8c:	4770      	bxlt	lr
 8000b8e:	f441 1180 	orr.w	r1, r1, #1048576	; 0x100000
 8000b92:	ea4f 5252 	mov.w	r2, r2, lsr #21
 8000b96:	f1c2 0218 	rsb	r2, r2, #24
 8000b9a:	f1c2 0c20 	rsb	ip, r2, #32
 8000b9e:	fa10 f30c 	lsls.w	r3, r0, ip
 8000ba2:	fa20 f002 	lsr.w	r0, r0, r2
 8000ba6:	bf18      	it	ne
 8000ba8:	f040 0001 	orrne.w	r0, r0, #1
 8000bac:	ea4f 23c1 	mov.w	r3, r1, lsl #11
 8000bb0:	ea4f 23d3 	mov.w	r3, r3, lsr #11
 8000bb4:	fa03 fc0c 	lsl.w	ip, r3, ip
 8000bb8:	ea40 000c 	orr.w	r0, r0, ip
 8000bbc:	fa23 f302 	lsr.w	r3, r3, r2
 8000bc0:	ea4f 0343 	mov.w	r3, r3, lsl #1
 8000bc4:	e7cc      	b.n	8000b60 <__aeabi_d2f+0x14>
 8000bc6:	ea7f 5362 	mvns.w	r3, r2, asr #21
 8000bca:	d107      	bne.n	8000bdc <__aeabi_d2f+0x90>
 8000bcc:	ea50 3301 	orrs.w	r3, r0, r1, lsl #12
 8000bd0:	bf1e      	ittt	ne
 8000bd2:	f04f 40fe 	movne.w	r0, #2130706432	; 0x7f000000
 8000bd6:	f440 0040 	orrne.w	r0, r0, #12582912	; 0xc00000
 8000bda:	4770      	bxne	lr
 8000bdc:	f001 4000 	and.w	r0, r1, #2147483648	; 0x80000000
 8000be0:	f040 40fe 	orr.w	r0, r0, #2130706432	; 0x7f000000
 8000be4:	f440 0000 	orr.w	r0, r0, #8388608	; 0x800000
 8000be8:	4770      	bx	lr
 8000bea:	bf00      	nop

08000bec <L6474_AttachErrorHandler>:
 * @param[in] callback Name of the callback to attach 
 * to the error Hanlder
 * @retval None
 **********************************************************/
void L6474_AttachErrorHandler(void (*callback)(uint16_t))
{
 8000bec:	b480      	push	{r7}
 8000bee:	b083      	sub	sp, #12
 8000bf0:	af00      	add	r7, sp, #0
 8000bf2:	6078      	str	r0, [r7, #4]
  errorHandlerCallback = (void (*)(uint16_t))callback;
 8000bf4:	4a04      	ldr	r2, [pc, #16]	; (8000c08 <L6474_AttachErrorHandler+0x1c>)
 8000bf6:	687b      	ldr	r3, [r7, #4]
 8000bf8:	6013      	str	r3, [r2, #0]
}
 8000bfa:	bf00      	nop
 8000bfc:	370c      	adds	r7, #12
 8000bfe:	46bd      	mov	sp, r7
 8000c00:	f85d 7b04 	ldr.w	r7, [sp], #4
 8000c04:	4770      	bx	lr
 8000c06:	bf00      	nop
 8000c08:	20001218 	.word	0x20001218

08000c0c <L6474_AttachFlagInterrupt>:
 * @param[in] callback Name of the callback to attach 
 * to the Flag Interrupt
 * @retval None
 **********************************************************/
void L6474_AttachFlagInterrupt(void (*callback)(void))
{
 8000c0c:	b480      	push	{r7}
 8000c0e:	b083      	sub	sp, #12
 8000c10:	af00      	add	r7, sp, #0
 8000c12:	6078      	str	r0, [r7, #4]
  flagInterruptCallback = (void (*)())callback;
 8000c14:	4a04      	ldr	r2, [pc, #16]	; (8000c28 <L6474_AttachFlagInterrupt+0x1c>)
 8000c16:	687b      	ldr	r3, [r7, #4]
 8000c18:	6013      	str	r3, [r2, #0]
}
 8000c1a:	bf00      	nop
 8000c1c:	370c      	adds	r7, #12
 8000c1e:	46bd      	mov	sp, r7
 8000c20:	f85d 7b04 	ldr.w	r7, [sp], #4
 8000c24:	4770      	bx	lr
 8000c26:	bf00      	nop
 8000c28:	2000121c 	.word	0x2000121c

08000c2c <L6474_Init>:
 * @brief Starts the L6474 library
 * @param[in] nbDevices Number of L6474 devices to use (from 1 to 3)
 * @retval None
 **********************************************************/
void L6474_Init(uint8_t nbDevices)
{
 8000c2c:	b580      	push	{r7, lr}
 8000c2e:	b084      	sub	sp, #16
 8000c30:	af00      	add	r7, sp, #0
 8000c32:	4603      	mov	r3, r0
 8000c34:	71fb      	strb	r3, [r7, #7]
  uint32_t i;
  numberOfDevices = nbDevices;
 8000c36:	4a2f      	ldr	r2, [pc, #188]	; (8000cf4 <L6474_Init+0xc8>)
 8000c38:	79fb      	ldrb	r3, [r7, #7]
 8000c3a:	7013      	strb	r3, [r2, #0]
  
  l6474DriverInstance++;
 8000c3c:	4b2e      	ldr	r3, [pc, #184]	; (8000cf8 <L6474_Init+0xcc>)
 8000c3e:	881b      	ldrh	r3, [r3, #0]
 8000c40:	3301      	adds	r3, #1
 8000c42:	b29a      	uxth	r2, r3
 8000c44:	4b2c      	ldr	r3, [pc, #176]	; (8000cf8 <L6474_Init+0xcc>)
 8000c46:	801a      	strh	r2, [r3, #0]
  
  /* Initialise the GPIOs */
  BSP_MotorControlBoard_GpioInit(nbDevices);
 8000c48:	79fb      	ldrb	r3, [r7, #7]
 8000c4a:	4618      	mov	r0, r3
 8000c4c:	f002 ff26 	bl	8003a9c <BSP_MotorControlBoard_GpioInit>
  
  if(BSP_MotorControlBoard_SpiInit() != 0)
 8000c50:	f003 fa9c 	bl	800418c <BSP_MotorControlBoard_SpiInit>
 8000c54:	4603      	mov	r3, r0
 8000c56:	2b00      	cmp	r3, #0
 8000c58:	d003      	beq.n	8000c62 <L6474_Init+0x36>
  {
    /* Initialization Error */
    L6474_ErrorHandler(L6474_ERROR_0);
 8000c5a:	f44f 4000 	mov.w	r0, #32768	; 0x8000
 8000c5e:	f001 f86b 	bl	8001d38 <L6474_ErrorHandler>
  } 

  /* Initialise the PWMs used for the Step clocks ----------------------------*/
  switch (nbDevices)
 8000c62:	79fb      	ldrb	r3, [r7, #7]
 8000c64:	3b01      	subs	r3, #1
 8000c66:	2b06      	cmp	r3, #6
 8000c68:	d825      	bhi.n	8000cb6 <L6474_Init+0x8a>
 8000c6a:	a201      	add	r2, pc, #4	; (adr r2, 8000c70 <L6474_Init+0x44>)
 8000c6c:	f852 f023 	ldr.w	pc, [r2, r3, lsl #2]
 8000c70:	08000cb1 	.word	0x08000cb1
 8000c74:	08000cab 	.word	0x08000cab
 8000c78:	08000ca5 	.word	0x08000ca5
 8000c7c:	08000c9f 	.word	0x08000c9f
 8000c80:	08000c99 	.word	0x08000c99
 8000c84:	08000c93 	.word	0x08000c93
 8000c88:	08000c8d 	.word	0x08000c8d
  {
    case 7:
      BSP_MotorControlBoard_PwmInit(6);            
 8000c8c:	2006      	movs	r0, #6
 8000c8e:	f003 f907 	bl	8003ea0 <BSP_MotorControlBoard_PwmInit>
    case 6:
      BSP_MotorControlBoard_PwmInit(5);        
 8000c92:	2005      	movs	r0, #5
 8000c94:	f003 f904 	bl	8003ea0 <BSP_MotorControlBoard_PwmInit>
    case 5:
      BSP_MotorControlBoard_PwmInit(4);    
 8000c98:	2004      	movs	r0, #4
 8000c9a:	f003 f901 	bl	8003ea0 <BSP_MotorControlBoard_PwmInit>
    case 4:
      BSP_MotorControlBoard_PwmInit(3);
 8000c9e:	2003      	movs	r0, #3
 8000ca0:	f003 f8fe 	bl	8003ea0 <BSP_MotorControlBoard_PwmInit>
    case 3:
      BSP_MotorControlBoard_PwmInit(2);
 8000ca4:	2002      	movs	r0, #2
 8000ca6:	f003 f8fb 	bl	8003ea0 <BSP_MotorControlBoard_PwmInit>
    case 2:
      BSP_MotorControlBoard_PwmInit(1);
 8000caa:	2001      	movs	r0, #1
 8000cac:	f003 f8f8 	bl	8003ea0 <BSP_MotorControlBoard_PwmInit>
    case 1:
      BSP_MotorControlBoard_PwmInit(0);
 8000cb0:	2000      	movs	r0, #0
 8000cb2:	f003 f8f5 	bl	8003ea0 <BSP_MotorControlBoard_PwmInit>
  }
 
  /* Initialise the L6474s ------------------------------------------------*/
  
  /* Standby-reset deactivation */
  BSP_MotorControlBoard_ReleaseReset();
 8000cb6:	f003 f9c5 	bl	8004044 <BSP_MotorControlBoard_ReleaseReset>
  
  /* Let a delay after reset */
  BSP_MotorControlBoard_Delay(1); 
 8000cba:	2001      	movs	r0, #1
 8000cbc:	f002 fed2 	bl	8003a64 <BSP_MotorControlBoard_Delay>
  
  /* Set all registers and context variables to the predefined values from l6474_target_config.h */
  L6474_SetDeviceParamsToPredefinedValues();
 8000cc0:	f001 fac8 	bl	8002254 <L6474_SetDeviceParamsToPredefinedValues>
  
  /* Disable L6474 powerstage */
  for (i = 0; i < nbDevices; i++)
 8000cc4:	2300      	movs	r3, #0
 8000cc6:	60fb      	str	r3, [r7, #12]
 8000cc8:	e00c      	b.n	8000ce4 <L6474_Init+0xb8>
  {
    L6474_CmdDisable(i);
 8000cca:	68fb      	ldr	r3, [r7, #12]
 8000ccc:	b2db      	uxtb	r3, r3
 8000cce:	4618      	mov	r0, r3
 8000cd0:	f000 fbd9 	bl	8001486 <L6474_CmdDisable>
    /* Get Status to clear flags after start up */
    L6474_CmdGetStatus(i);
 8000cd4:	68fb      	ldr	r3, [r7, #12]
 8000cd6:	b2db      	uxtb	r3, r3
 8000cd8:	4618      	mov	r0, r3
 8000cda:	f000 fce5 	bl	80016a8 <L6474_CmdGetStatus>
  for (i = 0; i < nbDevices; i++)
 8000cde:	68fb      	ldr	r3, [r7, #12]
 8000ce0:	3301      	adds	r3, #1
 8000ce2:	60fb      	str	r3, [r7, #12]
 8000ce4:	79fa      	ldrb	r2, [r7, #7]
 8000ce6:	68fb      	ldr	r3, [r7, #12]
 8000ce8:	429a      	cmp	r2, r3
 8000cea:	d8ee      	bhi.n	8000cca <L6474_Init+0x9e>
  }
}
 8000cec:	bf00      	nop
 8000cee:	3710      	adds	r7, #16
 8000cf0:	46bd      	mov	sp, r7
 8000cf2:	bd80      	pop	{r7, pc}
 8000cf4:	200004dc 	.word	0x200004dc
 8000cf8:	2000051a 	.word	0x2000051a

08000cfc <L6474_GetAcceleration>:
 * @brief Returns the acceleration of the specified device
 * @param[in] deviceId (from 0 to 2)
 * @retval Acceleration in pps^2
 **********************************************************/
uint16_t L6474_GetAcceleration(uint8_t deviceId)
{                                                  
 8000cfc:	b480      	push	{r7}
 8000cfe:	b083      	sub	sp, #12
 8000d00:	af00      	add	r7, sp, #0
 8000d02:	4603      	mov	r3, r0
 8000d04:	71fb      	strb	r3, [r7, #7]
  return (devicePrm[deviceId].acceleration);
 8000d06:	79fa      	ldrb	r2, [r7, #7]
 8000d08:	4907      	ldr	r1, [pc, #28]	; (8000d28 <L6474_GetAcceleration+0x2c>)
 8000d0a:	4613      	mov	r3, r2
 8000d0c:	009b      	lsls	r3, r3, #2
 8000d0e:	4413      	add	r3, r2
 8000d10:	00db      	lsls	r3, r3, #3
 8000d12:	440b      	add	r3, r1
 8000d14:	3318      	adds	r3, #24
 8000d16:	881b      	ldrh	r3, [r3, #0]
 8000d18:	b29b      	uxth	r3, r3
}            
 8000d1a:	4618      	mov	r0, r3
 8000d1c:	370c      	adds	r7, #12
 8000d1e:	46bd      	mov	sp, r7
 8000d20:	f85d 7b04 	ldr.w	r7, [sp], #4
 8000d24:	4770      	bx	lr
 8000d26:	bf00      	nop
 8000d28:	20001100 	.word	0x20001100

08000d2c <L6474_GetCurrentSpeed>:
 * @brief Returns the current speed of the specified device
 * @param[in] deviceId (from 0 to 2)
 * @retval Speed in pps
 **********************************************************/
uint16_t L6474_GetCurrentSpeed(uint8_t deviceId)
{
 8000d2c:	b480      	push	{r7}
 8000d2e:	b083      	sub	sp, #12
 8000d30:	af00      	add	r7, sp, #0
 8000d32:	4603      	mov	r3, r0
 8000d34:	71fb      	strb	r3, [r7, #7]
  return devicePrm[deviceId].speed;
 8000d36:	79fa      	ldrb	r2, [r7, #7]
 8000d38:	4907      	ldr	r1, [pc, #28]	; (8000d58 <L6474_GetCurrentSpeed+0x2c>)
 8000d3a:	4613      	mov	r3, r2
 8000d3c:	009b      	lsls	r3, r3, #2
 8000d3e:	4413      	add	r3, r2
 8000d40:	00db      	lsls	r3, r3, #3
 8000d42:	440b      	add	r3, r1
 8000d44:	3320      	adds	r3, #32
 8000d46:	881b      	ldrh	r3, [r3, #0]
 8000d48:	b29b      	uxth	r3, r3
}
 8000d4a:	4618      	mov	r0, r3
 8000d4c:	370c      	adds	r7, #12
 8000d4e:	46bd      	mov	sp, r7
 8000d50:	f85d 7b04 	ldr.w	r7, [sp], #4
 8000d54:	4770      	bx	lr
 8000d56:	bf00      	nop
 8000d58:	20001100 	.word	0x20001100

08000d5c <L6474_GetDeceleration>:
 * @brief Returns the deceleration of the specified device
 * @param[in] deviceId (from 0 to 2)
 * @retval Deceleration in pps^2
 **********************************************************/
uint16_t L6474_GetDeceleration(uint8_t deviceId)
{                                                  
 8000d5c:	b480      	push	{r7}
 8000d5e:	b083      	sub	sp, #12
 8000d60:	af00      	add	r7, sp, #0
 8000d62:	4603      	mov	r3, r0
 8000d64:	71fb      	strb	r3, [r7, #7]
  return (devicePrm[deviceId].deceleration);
 8000d66:	79fa      	ldrb	r2, [r7, #7]
 8000d68:	4907      	ldr	r1, [pc, #28]	; (8000d88 <L6474_GetDeceleration+0x2c>)
 8000d6a:	4613      	mov	r3, r2
 8000d6c:	009b      	lsls	r3, r3, #2
 8000d6e:	4413      	add	r3, r2
 8000d70:	00db      	lsls	r3, r3, #3
 8000d72:	440b      	add	r3, r1
 8000d74:	331a      	adds	r3, #26
 8000d76:	881b      	ldrh	r3, [r3, #0]
 8000d78:	b29b      	uxth	r3, r3
}          
 8000d7a:	4618      	mov	r0, r3
 8000d7c:	370c      	adds	r7, #12
 8000d7e:	46bd      	mov	sp, r7
 8000d80:	f85d 7b04 	ldr.w	r7, [sp], #4
 8000d84:	4770      	bx	lr
 8000d86:	bf00      	nop
 8000d88:	20001100 	.word	0x20001100

08000d8c <L6474_GetDeviceState>:
 * @brief Returns the device state
 * @param[in] deviceId (from 0 to 2)
 * @retval State (ACCELERATING, DECELERATING, STEADY or INACTIVE)
 **********************************************************/
motorState_t L6474_GetDeviceState(uint8_t deviceId)
{
 8000d8c:	b480      	push	{r7}
 8000d8e:	b083      	sub	sp, #12
 8000d90:	af00      	add	r7, sp, #0
 8000d92:	4603      	mov	r3, r0
 8000d94:	71fb      	strb	r3, [r7, #7]
  return devicePrm[deviceId].motionState;
 8000d96:	79fa      	ldrb	r2, [r7, #7]
 8000d98:	4907      	ldr	r1, [pc, #28]	; (8000db8 <L6474_GetDeviceState+0x2c>)
 8000d9a:	4613      	mov	r3, r2
 8000d9c:	009b      	lsls	r3, r3, #2
 8000d9e:	4413      	add	r3, r2
 8000da0:	00db      	lsls	r3, r3, #3
 8000da2:	440b      	add	r3, r1
 8000da4:	3324      	adds	r3, #36	; 0x24
 8000da6:	781b      	ldrb	r3, [r3, #0]
 8000da8:	b2db      	uxtb	r3, r3
}
 8000daa:	4618      	mov	r0, r3
 8000dac:	370c      	adds	r7, #12
 8000dae:	46bd      	mov	sp, r7
 8000db0:	f85d 7b04 	ldr.w	r7, [sp], #4
 8000db4:	4770      	bx	lr
 8000db6:	bf00      	nop
 8000db8:	20001100 	.word	0x20001100

08000dbc <L6474_GetFwVersion>:
 * @brief Returns the FW version of the library
 * @param None
 * @retval L6474_FW_VERSION
 **********************************************************/
uint8_t L6474_GetFwVersion(void)
{
 8000dbc:	b480      	push	{r7}
 8000dbe:	af00      	add	r7, sp, #0
  return (L6474_FW_VERSION);
 8000dc0:	2305      	movs	r3, #5
}
 8000dc2:	4618      	mov	r0, r3
 8000dc4:	46bd      	mov	sp, r7
 8000dc6:	f85d 7b04 	ldr.w	r7, [sp], #4
 8000dca:	4770      	bx	lr

08000dcc <L6474_GetMotorHandle>:
 * @brief  Return motor handle (pointer to the L6474 motor driver structure)
 * @param None
 * @retval Pointer to the motorDrv_t structure
 **********************************************************/
motorDrv_t* L6474_GetMotorHandle(void)
{
 8000dcc:	b480      	push	{r7}
 8000dce:	af00      	add	r7, sp, #0
  return (&l6474Drv);
 8000dd0:	4b02      	ldr	r3, [pc, #8]	; (8000ddc <L6474_GetMotorHandle+0x10>)
}
 8000dd2:	4618      	mov	r0, r3
 8000dd4:	46bd      	mov	sp, r7
 8000dd6:	f85d 7b04 	ldr.w	r7, [sp], #4
 8000dda:	4770      	bx	lr
 8000ddc:	20000000 	.word	0x20000000

08000de0 <L6474_GetMark>:
 * @brief  Returns the mark position  of the specified device
 * @param[in] deviceId (from 0 to 2)
 * @retval Mark register value converted in a 32b signed integer 
 **********************************************************/
int32_t L6474_GetMark(uint8_t deviceId)
{
 8000de0:	b580      	push	{r7, lr}
 8000de2:	b082      	sub	sp, #8
 8000de4:	af00      	add	r7, sp, #0
 8000de6:	4603      	mov	r3, r0
 8000de8:	71fb      	strb	r3, [r7, #7]
  return L6474_ConvertPosition(L6474_CmdGetParam(deviceId,L6474_MARK));
 8000dea:	79fb      	ldrb	r3, [r7, #7]
 8000dec:	2103      	movs	r1, #3
 8000dee:	4618      	mov	r0, r3
 8000df0:	f000 fb66 	bl	80014c0 <L6474_CmdGetParam>
 8000df4:	4603      	mov	r3, r0
 8000df6:	4618      	mov	r0, r3
 8000df8:	f000 ff7e 	bl	8001cf8 <L6474_ConvertPosition>
 8000dfc:	4603      	mov	r3, r0
}
 8000dfe:	4618      	mov	r0, r3
 8000e00:	3708      	adds	r7, #8
 8000e02:	46bd      	mov	sp, r7
 8000e04:	bd80      	pop	{r7, pc}
	...

08000e08 <L6474_GetMaxSpeed>:
 * @brief  Returns the max speed of the specified device
 * @param[in] deviceId (from 0 to 2)
 * @retval maxSpeed in pps
 **********************************************************/
uint16_t L6474_GetMaxSpeed(uint8_t deviceId)
{                                                  
 8000e08:	b480      	push	{r7}
 8000e0a:	b083      	sub	sp, #12
 8000e0c:	af00      	add	r7, sp, #0
 8000e0e:	4603      	mov	r3, r0
 8000e10:	71fb      	strb	r3, [r7, #7]
  return (devicePrm[deviceId].maxSpeed);
 8000e12:	79fa      	ldrb	r2, [r7, #7]
 8000e14:	4907      	ldr	r1, [pc, #28]	; (8000e34 <L6474_GetMaxSpeed+0x2c>)
 8000e16:	4613      	mov	r3, r2
 8000e18:	009b      	lsls	r3, r3, #2
 8000e1a:	4413      	add	r3, r2
 8000e1c:	00db      	lsls	r3, r3, #3
 8000e1e:	440b      	add	r3, r1
 8000e20:	331c      	adds	r3, #28
 8000e22:	881b      	ldrh	r3, [r3, #0]
 8000e24:	b29b      	uxth	r3, r3
}
 8000e26:	4618      	mov	r0, r3
 8000e28:	370c      	adds	r7, #12
 8000e2a:	46bd      	mov	sp, r7
 8000e2c:	f85d 7b04 	ldr.w	r7, [sp], #4
 8000e30:	4770      	bx	lr
 8000e32:	bf00      	nop
 8000e34:	20001100 	.word	0x20001100

08000e38 <L6474_GetMinSpeed>:
 * @brief  Returns the min speed of the specified device
 * @param[in] deviceId (from 0 to 2)
 * @retval minSpeed in pps
 **********************************************************/
uint16_t L6474_GetMinSpeed(uint8_t deviceId)
{                                                  
 8000e38:	b480      	push	{r7}
 8000e3a:	b083      	sub	sp, #12
 8000e3c:	af00      	add	r7, sp, #0
 8000e3e:	4603      	mov	r3, r0
 8000e40:	71fb      	strb	r3, [r7, #7]
  return (devicePrm[deviceId].minSpeed);
 8000e42:	79fa      	ldrb	r2, [r7, #7]
 8000e44:	4907      	ldr	r1, [pc, #28]	; (8000e64 <L6474_GetMinSpeed+0x2c>)
 8000e46:	4613      	mov	r3, r2
 8000e48:	009b      	lsls	r3, r3, #2
 8000e4a:	4413      	add	r3, r2
 8000e4c:	00db      	lsls	r3, r3, #3
 8000e4e:	440b      	add	r3, r1
 8000e50:	331e      	adds	r3, #30
 8000e52:	881b      	ldrh	r3, [r3, #0]
 8000e54:	b29b      	uxth	r3, r3
}                                                     
 8000e56:	4618      	mov	r0, r3
 8000e58:	370c      	adds	r7, #12
 8000e5a:	46bd      	mov	sp, r7
 8000e5c:	f85d 7b04 	ldr.w	r7, [sp], #4
 8000e60:	4770      	bx	lr
 8000e62:	bf00      	nop
 8000e64:	20001100 	.word	0x20001100

08000e68 <L6474_GetPosition>:
 * @brief  Returns the ABS_POSITION of the specified device
 * @param[in] deviceId (from 0 to 2)
 * @retval ABS_POSITION register value converted in a 32b signed integer
 **********************************************************/
int32_t L6474_GetPosition(uint8_t deviceId)
{
 8000e68:	b580      	push	{r7, lr}
 8000e6a:	b082      	sub	sp, #8
 8000e6c:	af00      	add	r7, sp, #0
 8000e6e:	4603      	mov	r3, r0
 8000e70:	71fb      	strb	r3, [r7, #7]
  return L6474_ConvertPosition(L6474_CmdGetParam(deviceId,L6474_ABS_POS));
 8000e72:	79fb      	ldrb	r3, [r7, #7]
 8000e74:	2101      	movs	r1, #1
 8000e76:	4618      	mov	r0, r3
 8000e78:	f000 fb22 	bl	80014c0 <L6474_CmdGetParam>
 8000e7c:	4603      	mov	r3, r0
 8000e7e:	4618      	mov	r0, r3
 8000e80:	f000 ff3a 	bl	8001cf8 <L6474_ConvertPosition>
 8000e84:	4603      	mov	r3, r0
}
 8000e86:	4618      	mov	r0, r3
 8000e88:	3708      	adds	r7, #8
 8000e8a:	46bd      	mov	sp, r7
 8000e8c:	bd80      	pop	{r7, pc}

08000e8e <L6474_GoHome>:
 * @brief  Requests the motor to move to the home position (ABS_POSITION = 0)
 * @param[in] deviceId (from 0 to 2)
 * @retval None
 **********************************************************/
void L6474_GoHome(uint8_t deviceId)
{
 8000e8e:	b580      	push	{r7, lr}
 8000e90:	b082      	sub	sp, #8
 8000e92:	af00      	add	r7, sp, #0
 8000e94:	4603      	mov	r3, r0
 8000e96:	71fb      	strb	r3, [r7, #7]
  L6474_GoTo(deviceId, 0);
 8000e98:	79fb      	ldrb	r3, [r7, #7]
 8000e9a:	2100      	movs	r1, #0
 8000e9c:	4618      	mov	r0, r3
 8000e9e:	f000 f81f 	bl	8000ee0 <L6474_GoTo>
} 
 8000ea2:	bf00      	nop
 8000ea4:	3708      	adds	r7, #8
 8000ea6:	46bd      	mov	sp, r7
 8000ea8:	bd80      	pop	{r7, pc}

08000eaa <L6474_GoMark>:
 * @brief  Requests the motor to move to the mark position 
 * @param[in] deviceId (from 0 to 2)
 * @retval None
 **********************************************************/
void L6474_GoMark(uint8_t deviceId)
{
 8000eaa:	b580      	push	{r7, lr}
 8000eac:	b084      	sub	sp, #16
 8000eae:	af00      	add	r7, sp, #0
 8000eb0:	4603      	mov	r3, r0
 8000eb2:	71fb      	strb	r3, [r7, #7]
	uint32_t mark;

	mark = L6474_ConvertPosition(L6474_CmdGetParam(deviceId,L6474_MARK));
 8000eb4:	79fb      	ldrb	r3, [r7, #7]
 8000eb6:	2103      	movs	r1, #3
 8000eb8:	4618      	mov	r0, r3
 8000eba:	f000 fb01 	bl	80014c0 <L6474_CmdGetParam>
 8000ebe:	4603      	mov	r3, r0
 8000ec0:	4618      	mov	r0, r3
 8000ec2:	f000 ff19 	bl	8001cf8 <L6474_ConvertPosition>
 8000ec6:	4603      	mov	r3, r0
 8000ec8:	60fb      	str	r3, [r7, #12]
	L6474_GoTo(deviceId,mark);  
 8000eca:	68fa      	ldr	r2, [r7, #12]
 8000ecc:	79fb      	ldrb	r3, [r7, #7]
 8000ece:	4611      	mov	r1, r2
 8000ed0:	4618      	mov	r0, r3
 8000ed2:	f000 f805 	bl	8000ee0 <L6474_GoTo>
}
 8000ed6:	bf00      	nop
 8000ed8:	3710      	adds	r7, #16
 8000eda:	46bd      	mov	sp, r7
 8000edc:	bd80      	pop	{r7, pc}
	...

08000ee0 <L6474_GoTo>:
 * @param[in] deviceId (from 0 to 2)
 * @param[in] targetPosition absolute position in steps
 * @retval None
 **********************************************************/
void L6474_GoTo(uint8_t deviceId, int32_t targetPosition)
{
 8000ee0:	b590      	push	{r4, r7, lr}
 8000ee2:	b085      	sub	sp, #20
 8000ee4:	af00      	add	r7, sp, #0
 8000ee6:	4603      	mov	r3, r0
 8000ee8:	6039      	str	r1, [r7, #0]
 8000eea:	71fb      	strb	r3, [r7, #7]
  motorDir_t direction;
  int32_t steps;
  
  /* Eventually deactivate motor */
  if (devicePrm[deviceId].motionState != INACTIVE) 
 8000eec:	79fa      	ldrb	r2, [r7, #7]
 8000eee:	493a      	ldr	r1, [pc, #232]	; (8000fd8 <L6474_GoTo+0xf8>)
 8000ef0:	4613      	mov	r3, r2
 8000ef2:	009b      	lsls	r3, r3, #2
 8000ef4:	4413      	add	r3, r2
 8000ef6:	00db      	lsls	r3, r3, #3
 8000ef8:	440b      	add	r3, r1
 8000efa:	3324      	adds	r3, #36	; 0x24
 8000efc:	781b      	ldrb	r3, [r3, #0]
 8000efe:	b2db      	uxtb	r3, r3
 8000f00:	2b08      	cmp	r3, #8
 8000f02:	d003      	beq.n	8000f0c <L6474_GoTo+0x2c>
  {
    L6474_HardStop(deviceId);
 8000f04:	79fb      	ldrb	r3, [r7, #7]
 8000f06:	4618      	mov	r0, r3
 8000f08:	f000 f868 	bl	8000fdc <L6474_HardStop>
  }

  /* Get current position */
  devicePrm[deviceId].currentPosition = L6474_ConvertPosition(L6474_CmdGetParam(deviceId,L6474_ABS_POS));
 8000f0c:	79fc      	ldrb	r4, [r7, #7]
 8000f0e:	79fb      	ldrb	r3, [r7, #7]
 8000f10:	2101      	movs	r1, #1
 8000f12:	4618      	mov	r0, r3
 8000f14:	f000 fad4 	bl	80014c0 <L6474_CmdGetParam>
 8000f18:	4603      	mov	r3, r0
 8000f1a:	4618      	mov	r0, r3
 8000f1c:	f000 feec 	bl	8001cf8 <L6474_ConvertPosition>
 8000f20:	4601      	mov	r1, r0
 8000f22:	4a2d      	ldr	r2, [pc, #180]	; (8000fd8 <L6474_GoTo+0xf8>)
 8000f24:	4623      	mov	r3, r4
 8000f26:	009b      	lsls	r3, r3, #2
 8000f28:	4423      	add	r3, r4
 8000f2a:	00db      	lsls	r3, r3, #3
 8000f2c:	4413      	add	r3, r2
 8000f2e:	3304      	adds	r3, #4
 8000f30:	6019      	str	r1, [r3, #0]
  
  /* Compute the number of steps to perform */
  steps = targetPosition - devicePrm[deviceId].currentPosition;
 8000f32:	79fa      	ldrb	r2, [r7, #7]
 8000f34:	4928      	ldr	r1, [pc, #160]	; (8000fd8 <L6474_GoTo+0xf8>)
 8000f36:	4613      	mov	r3, r2
 8000f38:	009b      	lsls	r3, r3, #2
 8000f3a:	4413      	add	r3, r2
 8000f3c:	00db      	lsls	r3, r3, #3
 8000f3e:	440b      	add	r3, r1
 8000f40:	3304      	adds	r3, #4
 8000f42:	681b      	ldr	r3, [r3, #0]
 8000f44:	683a      	ldr	r2, [r7, #0]
 8000f46:	1ad3      	subs	r3, r2, r3
 8000f48:	60bb      	str	r3, [r7, #8]
  
  if (steps >= 0) 
 8000f4a:	68bb      	ldr	r3, [r7, #8]
 8000f4c:	2b00      	cmp	r3, #0
 8000f4e:	db0c      	blt.n	8000f6a <L6474_GoTo+0x8a>
  {
    devicePrm[deviceId].stepsToTake = steps;
 8000f50:	79fa      	ldrb	r2, [r7, #7]
 8000f52:	68b9      	ldr	r1, [r7, #8]
 8000f54:	4820      	ldr	r0, [pc, #128]	; (8000fd8 <L6474_GoTo+0xf8>)
 8000f56:	4613      	mov	r3, r2
 8000f58:	009b      	lsls	r3, r3, #2
 8000f5a:	4413      	add	r3, r2
 8000f5c:	00db      	lsls	r3, r3, #3
 8000f5e:	4403      	add	r3, r0
 8000f60:	3314      	adds	r3, #20
 8000f62:	6019      	str	r1, [r3, #0]
    direction = FORWARD;
 8000f64:	2301      	movs	r3, #1
 8000f66:	73fb      	strb	r3, [r7, #15]
 8000f68:	e00d      	b.n	8000f86 <L6474_GoTo+0xa6>
    
  } 
  else 
  {
    devicePrm[deviceId].stepsToTake = -steps;
 8000f6a:	79fa      	ldrb	r2, [r7, #7]
 8000f6c:	68bb      	ldr	r3, [r7, #8]
 8000f6e:	425b      	negs	r3, r3
 8000f70:	4618      	mov	r0, r3
 8000f72:	4919      	ldr	r1, [pc, #100]	; (8000fd8 <L6474_GoTo+0xf8>)
 8000f74:	4613      	mov	r3, r2
 8000f76:	009b      	lsls	r3, r3, #2
 8000f78:	4413      	add	r3, r2
 8000f7a:	00db      	lsls	r3, r3, #3
 8000f7c:	440b      	add	r3, r1
 8000f7e:	3314      	adds	r3, #20
 8000f80:	6018      	str	r0, [r3, #0]
    direction = BACKWARD;
 8000f82:	2300      	movs	r3, #0
 8000f84:	73fb      	strb	r3, [r7, #15]
  }
  
  if (steps != 0) 
 8000f86:	68bb      	ldr	r3, [r7, #8]
 8000f88:	2b00      	cmp	r3, #0
 8000f8a:	d021      	beq.n	8000fd0 <L6474_GoTo+0xf0>
  {
    
    devicePrm[deviceId].commandExecuted = MOVE_CMD;
 8000f8c:	79fa      	ldrb	r2, [r7, #7]
 8000f8e:	4912      	ldr	r1, [pc, #72]	; (8000fd8 <L6474_GoTo+0xf8>)
 8000f90:	4613      	mov	r3, r2
 8000f92:	009b      	lsls	r3, r3, #2
 8000f94:	4413      	add	r3, r2
 8000f96:	00db      	lsls	r3, r3, #3
 8000f98:	440b      	add	r3, r1
 8000f9a:	3322      	adds	r3, #34	; 0x22
 8000f9c:	2201      	movs	r2, #1
 8000f9e:	701a      	strb	r2, [r3, #0]
        
    /* Direction setup */
    L6474_SetDirection(deviceId,direction);
 8000fa0:	7bfa      	ldrb	r2, [r7, #15]
 8000fa2:	79fb      	ldrb	r3, [r7, #7]
 8000fa4:	4611      	mov	r1, r2
 8000fa6:	4618      	mov	r0, r3
 8000fa8:	f000 fd66 	bl	8001a78 <L6474_SetDirection>

    L6474_ComputeSpeedProfile(deviceId, devicePrm[deviceId].stepsToTake);
 8000fac:	79fa      	ldrb	r2, [r7, #7]
 8000fae:	490a      	ldr	r1, [pc, #40]	; (8000fd8 <L6474_GoTo+0xf8>)
 8000fb0:	4613      	mov	r3, r2
 8000fb2:	009b      	lsls	r3, r3, #2
 8000fb4:	4413      	add	r3, r2
 8000fb6:	00db      	lsls	r3, r3, #3
 8000fb8:	440b      	add	r3, r1
 8000fba:	3314      	adds	r3, #20
 8000fbc:	681a      	ldr	r2, [r3, #0]
 8000fbe:	79fb      	ldrb	r3, [r7, #7]
 8000fc0:	4611      	mov	r1, r2
 8000fc2:	4618      	mov	r0, r3
 8000fc4:	f000 fdda 	bl	8001b7c <L6474_ComputeSpeedProfile>
    
    /* Motor activation */
    L6474_StartMovement(deviceId);
 8000fc8:	79fb      	ldrb	r3, [r7, #7]
 8000fca:	4618      	mov	r0, r3
 8000fcc:	f001 f9fe 	bl	80023cc <L6474_StartMovement>
  }  
}
 8000fd0:	bf00      	nop
 8000fd2:	3714      	adds	r7, #20
 8000fd4:	46bd      	mov	sp, r7
 8000fd6:	bd90      	pop	{r4, r7, pc}
 8000fd8:	20001100 	.word	0x20001100

08000fdc <L6474_HardStop>:
 * @brief  Immediatly stops the motor and disable the power bridge
 * @param[in] deviceId (from 0 to 2)
 * @retval None
 **********************************************************/
void L6474_HardStop(uint8_t deviceId) 
{
 8000fdc:	b580      	push	{r7, lr}
 8000fde:	b082      	sub	sp, #8
 8000fe0:	af00      	add	r7, sp, #0
 8000fe2:	4603      	mov	r3, r0
 8000fe4:	71fb      	strb	r3, [r7, #7]
  /* Disable corresponding PWM */
  BSP_MotorControlBoard_PwmStop(deviceId);
 8000fe6:	79fb      	ldrb	r3, [r7, #7]
 8000fe8:	4618      	mov	r0, r3
 8000fea:	f002 ffe3 	bl	8003fb4 <BSP_MotorControlBoard_PwmStop>

  /* Disable power stage */
  L6474_CmdDisable(deviceId);
 8000fee:	79fb      	ldrb	r3, [r7, #7]
 8000ff0:	4618      	mov	r0, r3
 8000ff2:	f000 fa48 	bl	8001486 <L6474_CmdDisable>

  /* Set inactive state */
  devicePrm[deviceId].motionState = INACTIVE;
 8000ff6:	79fa      	ldrb	r2, [r7, #7]
 8000ff8:	4910      	ldr	r1, [pc, #64]	; (800103c <L6474_HardStop+0x60>)
 8000ffa:	4613      	mov	r3, r2
 8000ffc:	009b      	lsls	r3, r3, #2
 8000ffe:	4413      	add	r3, r2
 8001000:	00db      	lsls	r3, r3, #3
 8001002:	440b      	add	r3, r1
 8001004:	3324      	adds	r3, #36	; 0x24
 8001006:	2208      	movs	r2, #8
 8001008:	701a      	strb	r2, [r3, #0]
  devicePrm[deviceId].commandExecuted = NO_CMD;
 800100a:	79fa      	ldrb	r2, [r7, #7]
 800100c:	490b      	ldr	r1, [pc, #44]	; (800103c <L6474_HardStop+0x60>)
 800100e:	4613      	mov	r3, r2
 8001010:	009b      	lsls	r3, r3, #2
 8001012:	4413      	add	r3, r2
 8001014:	00db      	lsls	r3, r3, #3
 8001016:	440b      	add	r3, r1
 8001018:	3322      	adds	r3, #34	; 0x22
 800101a:	2203      	movs	r2, #3
 800101c:	701a      	strb	r2, [r3, #0]
  devicePrm[deviceId].stepsToTake = MAX_STEPS;  
 800101e:	79fa      	ldrb	r2, [r7, #7]
 8001020:	4906      	ldr	r1, [pc, #24]	; (800103c <L6474_HardStop+0x60>)
 8001022:	4613      	mov	r3, r2
 8001024:	009b      	lsls	r3, r3, #2
 8001026:	4413      	add	r3, r2
 8001028:	00db      	lsls	r3, r3, #3
 800102a:	440b      	add	r3, r1
 800102c:	3314      	adds	r3, #20
 800102e:	f06f 4200 	mvn.w	r2, #2147483648	; 0x80000000
 8001032:	601a      	str	r2, [r3, #0]
}
 8001034:	bf00      	nop
 8001036:	3708      	adds	r7, #8
 8001038:	46bd      	mov	sp, r7
 800103a:	bd80      	pop	{r7, pc}
 800103c:	20001100 	.word	0x20001100

08001040 <L6474_Move>:
 * @param[in] direction FORWARD or BACKWARD
 * @param[in] stepCount Number of steps to perform
 * @retval None
 **********************************************************/
void L6474_Move(uint8_t deviceId, motorDir_t direction, uint32_t stepCount)
{
 8001040:	b590      	push	{r4, r7, lr}
 8001042:	b083      	sub	sp, #12
 8001044:	af00      	add	r7, sp, #0
 8001046:	4603      	mov	r3, r0
 8001048:	603a      	str	r2, [r7, #0]
 800104a:	71fb      	strb	r3, [r7, #7]
 800104c:	460b      	mov	r3, r1
 800104e:	71bb      	strb	r3, [r7, #6]
  /* Eventually deactivate motor */
  if (devicePrm[deviceId].motionState != INACTIVE) 
 8001050:	79fa      	ldrb	r2, [r7, #7]
 8001052:	4926      	ldr	r1, [pc, #152]	; (80010ec <L6474_Move+0xac>)
 8001054:	4613      	mov	r3, r2
 8001056:	009b      	lsls	r3, r3, #2
 8001058:	4413      	add	r3, r2
 800105a:	00db      	lsls	r3, r3, #3
 800105c:	440b      	add	r3, r1
 800105e:	3324      	adds	r3, #36	; 0x24
 8001060:	781b      	ldrb	r3, [r3, #0]
 8001062:	b2db      	uxtb	r3, r3
 8001064:	2b08      	cmp	r3, #8
 8001066:	d003      	beq.n	8001070 <L6474_Move+0x30>
  {
    L6474_HardStop(deviceId);
 8001068:	79fb      	ldrb	r3, [r7, #7]
 800106a:	4618      	mov	r0, r3
 800106c:	f7ff ffb6 	bl	8000fdc <L6474_HardStop>
  }
  
  if (stepCount != 0) 
 8001070:	683b      	ldr	r3, [r7, #0]
 8001072:	2b00      	cmp	r3, #0
 8001074:	d035      	beq.n	80010e2 <L6474_Move+0xa2>
  {
    devicePrm[deviceId].stepsToTake = stepCount;
 8001076:	79fa      	ldrb	r2, [r7, #7]
 8001078:	491c      	ldr	r1, [pc, #112]	; (80010ec <L6474_Move+0xac>)
 800107a:	4613      	mov	r3, r2
 800107c:	009b      	lsls	r3, r3, #2
 800107e:	4413      	add	r3, r2
 8001080:	00db      	lsls	r3, r3, #3
 8001082:	440b      	add	r3, r1
 8001084:	3314      	adds	r3, #20
 8001086:	683a      	ldr	r2, [r7, #0]
 8001088:	601a      	str	r2, [r3, #0]
    
    devicePrm[deviceId].commandExecuted = MOVE_CMD;
 800108a:	79fa      	ldrb	r2, [r7, #7]
 800108c:	4917      	ldr	r1, [pc, #92]	; (80010ec <L6474_Move+0xac>)
 800108e:	4613      	mov	r3, r2
 8001090:	009b      	lsls	r3, r3, #2
 8001092:	4413      	add	r3, r2
 8001094:	00db      	lsls	r3, r3, #3
 8001096:	440b      	add	r3, r1
 8001098:	3322      	adds	r3, #34	; 0x22
 800109a:	2201      	movs	r2, #1
 800109c:	701a      	strb	r2, [r3, #0]
    
    devicePrm[deviceId].currentPosition = L6474_ConvertPosition(L6474_CmdGetParam(deviceId,L6474_ABS_POS));
 800109e:	79fc      	ldrb	r4, [r7, #7]
 80010a0:	79fb      	ldrb	r3, [r7, #7]
 80010a2:	2101      	movs	r1, #1
 80010a4:	4618      	mov	r0, r3
 80010a6:	f000 fa0b 	bl	80014c0 <L6474_CmdGetParam>
 80010aa:	4603      	mov	r3, r0
 80010ac:	4618      	mov	r0, r3
 80010ae:	f000 fe23 	bl	8001cf8 <L6474_ConvertPosition>
 80010b2:	4601      	mov	r1, r0
 80010b4:	4a0d      	ldr	r2, [pc, #52]	; (80010ec <L6474_Move+0xac>)
 80010b6:	4623      	mov	r3, r4
 80010b8:	009b      	lsls	r3, r3, #2
 80010ba:	4423      	add	r3, r4
 80010bc:	00db      	lsls	r3, r3, #3
 80010be:	4413      	add	r3, r2
 80010c0:	3304      	adds	r3, #4
 80010c2:	6019      	str	r1, [r3, #0]
    
    /* Direction setup */
    L6474_SetDirection(deviceId,direction);
 80010c4:	79ba      	ldrb	r2, [r7, #6]
 80010c6:	79fb      	ldrb	r3, [r7, #7]
 80010c8:	4611      	mov	r1, r2
 80010ca:	4618      	mov	r0, r3
 80010cc:	f000 fcd4 	bl	8001a78 <L6474_SetDirection>

    L6474_ComputeSpeedProfile(deviceId, stepCount);
 80010d0:	79fb      	ldrb	r3, [r7, #7]
 80010d2:	6839      	ldr	r1, [r7, #0]
 80010d4:	4618      	mov	r0, r3
 80010d6:	f000 fd51 	bl	8001b7c <L6474_ComputeSpeedProfile>
    
    /* Motor activation */
    L6474_StartMovement(deviceId);
 80010da:	79fb      	ldrb	r3, [r7, #7]
 80010dc:	4618      	mov	r0, r3
 80010de:	f001 f975 	bl	80023cc <L6474_StartMovement>
  }  
}
 80010e2:	bf00      	nop
 80010e4:	370c      	adds	r7, #12
 80010e6:	46bd      	mov	sp, r7
 80010e8:	bd90      	pop	{r4, r7, pc}
 80010ea:	bf00      	nop
 80010ec:	20001100 	.word	0x20001100

080010f0 <L6474_ReadId>:
 * @brief Read id
 * @param None
 * @retval Id of the l6474 Driver Instance
 **********************************************************/
uint16_t L6474_ReadId(void)
{
 80010f0:	b480      	push	{r7}
 80010f2:	af00      	add	r7, sp, #0
  return(l6474DriverInstance);
 80010f4:	4b03      	ldr	r3, [pc, #12]	; (8001104 <L6474_ReadId+0x14>)
 80010f6:	881b      	ldrh	r3, [r3, #0]
}
 80010f8:	4618      	mov	r0, r3
 80010fa:	46bd      	mov	sp, r7
 80010fc:	f85d 7b04 	ldr.w	r7, [sp], #4
 8001100:	4770      	bx	lr
 8001102:	bf00      	nop
 8001104:	2000051a 	.word	0x2000051a

08001108 <L6474_ResetAllDevices>:
 * @brief Resets all L6474 devices
 * @param None
 * @retval None
 **********************************************************/
void L6474_ResetAllDevices(void)
{
 8001108:	b580      	push	{r7, lr}
 800110a:	b082      	sub	sp, #8
 800110c:	af00      	add	r7, sp, #0
 	uint8_t loop;
 	
 	for (loop = 0; loop < numberOfDevices; loop++)
 800110e:	2300      	movs	r3, #0
 8001110:	71fb      	strb	r3, [r7, #7]
 8001112:	e006      	b.n	8001122 <L6474_ResetAllDevices+0x1a>
 	{
   	/* Stop movement and disable power stage*/
  	L6474_HardStop(loop);
 8001114:	79fb      	ldrb	r3, [r7, #7]
 8001116:	4618      	mov	r0, r3
 8001118:	f7ff ff60 	bl	8000fdc <L6474_HardStop>
 	for (loop = 0; loop < numberOfDevices; loop++)
 800111c:	79fb      	ldrb	r3, [r7, #7]
 800111e:	3301      	adds	r3, #1
 8001120:	71fb      	strb	r3, [r7, #7]
 8001122:	4b0a      	ldr	r3, [pc, #40]	; (800114c <L6474_ResetAllDevices+0x44>)
 8001124:	781b      	ldrb	r3, [r3, #0]
 8001126:	b2db      	uxtb	r3, r3
 8001128:	79fa      	ldrb	r2, [r7, #7]
 800112a:	429a      	cmp	r2, r3
 800112c:	d3f2      	bcc.n	8001114 <L6474_ResetAllDevices+0xc>
  }
	L6474_Reset();
 800112e:	f000 fc49 	bl	80019c4 <L6474_Reset>
  BSP_MotorControlBoard_Delay(1); // Reset pin must be forced low for at least 10us
 8001132:	2001      	movs	r0, #1
 8001134:	f002 fc96 	bl	8003a64 <BSP_MotorControlBoard_Delay>
	BSP_MotorControlBoard_ReleaseReset();
 8001138:	f002 ff84 	bl	8004044 <BSP_MotorControlBoard_ReleaseReset>
  BSP_MotorControlBoard_Delay(1); 
 800113c:	2001      	movs	r0, #1
 800113e:	f002 fc91 	bl	8003a64 <BSP_MotorControlBoard_Delay>
}
 8001142:	bf00      	nop
 8001144:	3708      	adds	r7, #8
 8001146:	46bd      	mov	sp, r7
 8001148:	bd80      	pop	{r7, pc}
 800114a:	bf00      	nop
 800114c:	200004dc 	.word	0x200004dc

08001150 <L6474_Run>:
 * @param[in] deviceId (from 0 to 2)
 * @param[in] direction FORWARD or BACKWARD
 * @retval None
 **********************************************************/
void L6474_Run(uint8_t deviceId, motorDir_t direction)
{
 8001150:	b580      	push	{r7, lr}
 8001152:	b082      	sub	sp, #8
 8001154:	af00      	add	r7, sp, #0
 8001156:	4603      	mov	r3, r0
 8001158:	460a      	mov	r2, r1
 800115a:	71fb      	strb	r3, [r7, #7]
 800115c:	4613      	mov	r3, r2
 800115e:	71bb      	strb	r3, [r7, #6]
  /* Eventually deactivate motor */
  if (devicePrm[deviceId].motionState != INACTIVE) 
 8001160:	79fa      	ldrb	r2, [r7, #7]
 8001162:	4913      	ldr	r1, [pc, #76]	; (80011b0 <L6474_Run+0x60>)
 8001164:	4613      	mov	r3, r2
 8001166:	009b      	lsls	r3, r3, #2
 8001168:	4413      	add	r3, r2
 800116a:	00db      	lsls	r3, r3, #3
 800116c:	440b      	add	r3, r1
 800116e:	3324      	adds	r3, #36	; 0x24
 8001170:	781b      	ldrb	r3, [r3, #0]
 8001172:	b2db      	uxtb	r3, r3
 8001174:	2b08      	cmp	r3, #8
 8001176:	d003      	beq.n	8001180 <L6474_Run+0x30>
  {
    L6474_HardStop(deviceId);
 8001178:	79fb      	ldrb	r3, [r7, #7]
 800117a:	4618      	mov	r0, r3
 800117c:	f7ff ff2e 	bl	8000fdc <L6474_HardStop>
  }
  
	/* Direction setup */
	L6474_SetDirection(deviceId,direction);
 8001180:	79ba      	ldrb	r2, [r7, #6]
 8001182:	79fb      	ldrb	r3, [r7, #7]
 8001184:	4611      	mov	r1, r2
 8001186:	4618      	mov	r0, r3
 8001188:	f000 fc76 	bl	8001a78 <L6474_SetDirection>

	devicePrm[deviceId].commandExecuted = RUN_CMD;
 800118c:	79fa      	ldrb	r2, [r7, #7]
 800118e:	4908      	ldr	r1, [pc, #32]	; (80011b0 <L6474_Run+0x60>)
 8001190:	4613      	mov	r3, r2
 8001192:	009b      	lsls	r3, r3, #2
 8001194:	4413      	add	r3, r2
 8001196:	00db      	lsls	r3, r3, #3
 8001198:	440b      	add	r3, r1
 800119a:	3322      	adds	r3, #34	; 0x22
 800119c:	2200      	movs	r2, #0
 800119e:	701a      	strb	r2, [r3, #0]

	/* Motor activation */
	L6474_StartMovement(deviceId); 
 80011a0:	79fb      	ldrb	r3, [r7, #7]
 80011a2:	4618      	mov	r0, r3
 80011a4:	f001 f912 	bl	80023cc <L6474_StartMovement>
}
 80011a8:	bf00      	nop
 80011aa:	3708      	adds	r7, #8
 80011ac:	46bd      	mov	sp, r7
 80011ae:	bd80      	pop	{r7, pc}
 80011b0:	20001100 	.word	0x20001100

080011b4 <L6474_SetAcceleration>:
 * @retval true if the command is successfully executed, else false
 * @note The command is not performed is the device is executing 
 * a MOVE or GOTO command (but it can be used during a RUN command)
 **********************************************************/
bool L6474_SetAcceleration(uint8_t deviceId,uint16_t newAcc)
{                                                  
 80011b4:	b480      	push	{r7}
 80011b6:	b085      	sub	sp, #20
 80011b8:	af00      	add	r7, sp, #0
 80011ba:	4603      	mov	r3, r0
 80011bc:	460a      	mov	r2, r1
 80011be:	71fb      	strb	r3, [r7, #7]
 80011c0:	4613      	mov	r3, r2
 80011c2:	80bb      	strh	r3, [r7, #4]
  bool cmdExecuted = FALSE;
 80011c4:	2300      	movs	r3, #0
 80011c6:	73fb      	strb	r3, [r7, #15]
  if ((newAcc != 0)&&
 80011c8:	88bb      	ldrh	r3, [r7, #4]
 80011ca:	2b00      	cmp	r3, #0
 80011cc:	d023      	beq.n	8001216 <L6474_SetAcceleration+0x62>
      ((devicePrm[deviceId].motionState == INACTIVE)||
 80011ce:	79fa      	ldrb	r2, [r7, #7]
 80011d0:	4914      	ldr	r1, [pc, #80]	; (8001224 <L6474_SetAcceleration+0x70>)
 80011d2:	4613      	mov	r3, r2
 80011d4:	009b      	lsls	r3, r3, #2
 80011d6:	4413      	add	r3, r2
 80011d8:	00db      	lsls	r3, r3, #3
 80011da:	440b      	add	r3, r1
 80011dc:	3324      	adds	r3, #36	; 0x24
 80011de:	781b      	ldrb	r3, [r3, #0]
 80011e0:	b2db      	uxtb	r3, r3
  if ((newAcc != 0)&&
 80011e2:	2b08      	cmp	r3, #8
 80011e4:	d00b      	beq.n	80011fe <L6474_SetAcceleration+0x4a>
       (devicePrm[deviceId].commandExecuted == RUN_CMD)))
 80011e6:	79fa      	ldrb	r2, [r7, #7]
 80011e8:	490e      	ldr	r1, [pc, #56]	; (8001224 <L6474_SetAcceleration+0x70>)
 80011ea:	4613      	mov	r3, r2
 80011ec:	009b      	lsls	r3, r3, #2
 80011ee:	4413      	add	r3, r2
 80011f0:	00db      	lsls	r3, r3, #3
 80011f2:	440b      	add	r3, r1
 80011f4:	3322      	adds	r3, #34	; 0x22
 80011f6:	781b      	ldrb	r3, [r3, #0]
 80011f8:	b2db      	uxtb	r3, r3
      ((devicePrm[deviceId].motionState == INACTIVE)||
 80011fa:	2b00      	cmp	r3, #0
 80011fc:	d10b      	bne.n	8001216 <L6474_SetAcceleration+0x62>
  {
    devicePrm[deviceId].acceleration = newAcc;
 80011fe:	79fa      	ldrb	r2, [r7, #7]
 8001200:	4908      	ldr	r1, [pc, #32]	; (8001224 <L6474_SetAcceleration+0x70>)
 8001202:	4613      	mov	r3, r2
 8001204:	009b      	lsls	r3, r3, #2
 8001206:	4413      	add	r3, r2
 8001208:	00db      	lsls	r3, r3, #3
 800120a:	440b      	add	r3, r1
 800120c:	3318      	adds	r3, #24
 800120e:	88ba      	ldrh	r2, [r7, #4]
 8001210:	801a      	strh	r2, [r3, #0]
    cmdExecuted = TRUE;
 8001212:	2301      	movs	r3, #1
 8001214:	73fb      	strb	r3, [r7, #15]
  }    
  return cmdExecuted;
 8001216:	7bfb      	ldrb	r3, [r7, #15]
}            
 8001218:	4618      	mov	r0, r3
 800121a:	3714      	adds	r7, #20
 800121c:	46bd      	mov	sp, r7
 800121e:	f85d 7b04 	ldr.w	r7, [sp], #4
 8001222:	4770      	bx	lr
 8001224:	20001100 	.word	0x20001100

08001228 <L6474_SetDeceleration>:
 * @retval true if the command is successfully executed, else false
 * @note The command is not performed is the device is executing 
 * a MOVE or GOTO command (but it can be used during a RUN command)
 **********************************************************/
bool L6474_SetDeceleration(uint8_t deviceId, uint16_t newDec)
{                                                  
 8001228:	b480      	push	{r7}
 800122a:	b085      	sub	sp, #20
 800122c:	af00      	add	r7, sp, #0
 800122e:	4603      	mov	r3, r0
 8001230:	460a      	mov	r2, r1
 8001232:	71fb      	strb	r3, [r7, #7]
 8001234:	4613      	mov	r3, r2
 8001236:	80bb      	strh	r3, [r7, #4]
  bool cmdExecuted = FALSE;
 8001238:	2300      	movs	r3, #0
 800123a:	73fb      	strb	r3, [r7, #15]
  if ((newDec != 0)&& 
 800123c:	88bb      	ldrh	r3, [r7, #4]
 800123e:	2b00      	cmp	r3, #0
 8001240:	d023      	beq.n	800128a <L6474_SetDeceleration+0x62>
      ((devicePrm[deviceId].motionState == INACTIVE)||
 8001242:	79fa      	ldrb	r2, [r7, #7]
 8001244:	4914      	ldr	r1, [pc, #80]	; (8001298 <L6474_SetDeceleration+0x70>)
 8001246:	4613      	mov	r3, r2
 8001248:	009b      	lsls	r3, r3, #2
 800124a:	4413      	add	r3, r2
 800124c:	00db      	lsls	r3, r3, #3
 800124e:	440b      	add	r3, r1
 8001250:	3324      	adds	r3, #36	; 0x24
 8001252:	781b      	ldrb	r3, [r3, #0]
 8001254:	b2db      	uxtb	r3, r3
  if ((newDec != 0)&& 
 8001256:	2b08      	cmp	r3, #8
 8001258:	d00b      	beq.n	8001272 <L6474_SetDeceleration+0x4a>
       (devicePrm[deviceId].commandExecuted == RUN_CMD)))
 800125a:	79fa      	ldrb	r2, [r7, #7]
 800125c:	490e      	ldr	r1, [pc, #56]	; (8001298 <L6474_SetDeceleration+0x70>)
 800125e:	4613      	mov	r3, r2
 8001260:	009b      	lsls	r3, r3, #2
 8001262:	4413      	add	r3, r2
 8001264:	00db      	lsls	r3, r3, #3
 8001266:	440b      	add	r3, r1
 8001268:	3322      	adds	r3, #34	; 0x22
 800126a:	781b      	ldrb	r3, [r3, #0]
 800126c:	b2db      	uxtb	r3, r3
      ((devicePrm[deviceId].motionState == INACTIVE)||
 800126e:	2b00      	cmp	r3, #0
 8001270:	d10b      	bne.n	800128a <L6474_SetDeceleration+0x62>
  {
    devicePrm[deviceId].deceleration = newDec;
 8001272:	79fa      	ldrb	r2, [r7, #7]
 8001274:	4908      	ldr	r1, [pc, #32]	; (8001298 <L6474_SetDeceleration+0x70>)
 8001276:	4613      	mov	r3, r2
 8001278:	009b      	lsls	r3, r3, #2
 800127a:	4413      	add	r3, r2
 800127c:	00db      	lsls	r3, r3, #3
 800127e:	440b      	add	r3, r1
 8001280:	331a      	adds	r3, #26
 8001282:	88ba      	ldrh	r2, [r7, #4]
 8001284:	801a      	strh	r2, [r3, #0]
    cmdExecuted = TRUE;
 8001286:	2301      	movs	r3, #1
 8001288:	73fb      	strb	r3, [r7, #15]
  }      
  return cmdExecuted;
 800128a:	7bfb      	ldrb	r3, [r7, #15]
}        
 800128c:	4618      	mov	r0, r3
 800128e:	3714      	adds	r7, #20
 8001290:	46bd      	mov	sp, r7
 8001292:	f85d 7b04 	ldr.w	r7, [sp], #4
 8001296:	4770      	bx	lr
 8001298:	20001100 	.word	0x20001100

0800129c <L6474_SetHome>:
 * @brief  Set current position to be the Home position (ABS pos set to 0)
 * @param[in] deviceId (from 0 to 2)
 * @retval None
 **********************************************************/
void L6474_SetHome(uint8_t deviceId)
{
 800129c:	b580      	push	{r7, lr}
 800129e:	b082      	sub	sp, #8
 80012a0:	af00      	add	r7, sp, #0
 80012a2:	4603      	mov	r3, r0
 80012a4:	71fb      	strb	r3, [r7, #7]
  L6474_CmdSetParam(deviceId, L6474_ABS_POS, 0);
 80012a6:	79fb      	ldrb	r3, [r7, #7]
 80012a8:	2200      	movs	r2, #0
 80012aa:	2101      	movs	r1, #1
 80012ac:	4618      	mov	r0, r3
 80012ae:	f000 fa8f 	bl	80017d0 <L6474_CmdSetParam>
}
 80012b2:	bf00      	nop
 80012b4:	3708      	adds	r7, #8
 80012b6:	46bd      	mov	sp, r7
 80012b8:	bd80      	pop	{r7, pc}

080012ba <L6474_SetMark>:
 * @brief  Sets current position to be the Mark position 
 * @param[in] deviceId (from 0 to 2)
 * @retval None
 **********************************************************/
void L6474_SetMark(uint8_t deviceId)
{
 80012ba:	b580      	push	{r7, lr}
 80012bc:	b084      	sub	sp, #16
 80012be:	af00      	add	r7, sp, #0
 80012c0:	4603      	mov	r3, r0
 80012c2:	71fb      	strb	r3, [r7, #7]
  uint32_t mark = L6474_CmdGetParam(deviceId,L6474_ABS_POS);
 80012c4:	79fb      	ldrb	r3, [r7, #7]
 80012c6:	2101      	movs	r1, #1
 80012c8:	4618      	mov	r0, r3
 80012ca:	f000 f8f9 	bl	80014c0 <L6474_CmdGetParam>
 80012ce:	60f8      	str	r0, [r7, #12]
  L6474_CmdSetParam(deviceId,L6474_MARK, mark);
 80012d0:	79fb      	ldrb	r3, [r7, #7]
 80012d2:	68fa      	ldr	r2, [r7, #12]
 80012d4:	2103      	movs	r1, #3
 80012d6:	4618      	mov	r0, r3
 80012d8:	f000 fa7a 	bl	80017d0 <L6474_CmdSetParam>
}
 80012dc:	bf00      	nop
 80012de:	3710      	adds	r7, #16
 80012e0:	46bd      	mov	sp, r7
 80012e2:	bd80      	pop	{r7, pc}

080012e4 <L6474_SetMaxSpeed>:
 * @retval true if the command is successfully executed, else false
 * @note The command is not performed is the device is executing 
 * a MOVE or GOTO command (but it can be used during a RUN command).
 **********************************************************/
bool L6474_SetMaxSpeed(uint8_t deviceId, uint16_t newMaxSpeed)
{                                                  
 80012e4:	b480      	push	{r7}
 80012e6:	b085      	sub	sp, #20
 80012e8:	af00      	add	r7, sp, #0
 80012ea:	4603      	mov	r3, r0
 80012ec:	460a      	mov	r2, r1
 80012ee:	71fb      	strb	r3, [r7, #7]
 80012f0:	4613      	mov	r3, r2
 80012f2:	80bb      	strh	r3, [r7, #4]
  bool cmdExecuted = FALSE;
 80012f4:	2300      	movs	r3, #0
 80012f6:	73fb      	strb	r3, [r7, #15]
  if ((newMaxSpeed >= L6474_MIN_PWM_FREQ)&&
 80012f8:	88bb      	ldrh	r3, [r7, #4]
 80012fa:	2b01      	cmp	r3, #1
 80012fc:	d935      	bls.n	800136a <L6474_SetMaxSpeed+0x86>
 80012fe:	88bb      	ldrh	r3, [r7, #4]
 8001300:	f242 7210 	movw	r2, #10000	; 0x2710
 8001304:	4293      	cmp	r3, r2
 8001306:	d830      	bhi.n	800136a <L6474_SetMaxSpeed+0x86>
      (newMaxSpeed <= L6474_MAX_PWM_FREQ) &&
      (devicePrm[deviceId].minSpeed <= newMaxSpeed) &&
 8001308:	79fa      	ldrb	r2, [r7, #7]
 800130a:	491b      	ldr	r1, [pc, #108]	; (8001378 <L6474_SetMaxSpeed+0x94>)
 800130c:	4613      	mov	r3, r2
 800130e:	009b      	lsls	r3, r3, #2
 8001310:	4413      	add	r3, r2
 8001312:	00db      	lsls	r3, r3, #3
 8001314:	440b      	add	r3, r1
 8001316:	331e      	adds	r3, #30
 8001318:	881b      	ldrh	r3, [r3, #0]
 800131a:	b29b      	uxth	r3, r3
      (newMaxSpeed <= L6474_MAX_PWM_FREQ) &&
 800131c:	88ba      	ldrh	r2, [r7, #4]
 800131e:	429a      	cmp	r2, r3
 8001320:	d323      	bcc.n	800136a <L6474_SetMaxSpeed+0x86>
      ((devicePrm[deviceId].motionState == INACTIVE)||
 8001322:	79fa      	ldrb	r2, [r7, #7]
 8001324:	4914      	ldr	r1, [pc, #80]	; (8001378 <L6474_SetMaxSpeed+0x94>)
 8001326:	4613      	mov	r3, r2
 8001328:	009b      	lsls	r3, r3, #2
 800132a:	4413      	add	r3, r2
 800132c:	00db      	lsls	r3, r3, #3
 800132e:	440b      	add	r3, r1
 8001330:	3324      	adds	r3, #36	; 0x24
 8001332:	781b      	ldrb	r3, [r3, #0]
 8001334:	b2db      	uxtb	r3, r3
      (devicePrm[deviceId].minSpeed <= newMaxSpeed) &&
 8001336:	2b08      	cmp	r3, #8
 8001338:	d00b      	beq.n	8001352 <L6474_SetMaxSpeed+0x6e>
       (devicePrm[deviceId].commandExecuted == RUN_CMD)))
 800133a:	79fa      	ldrb	r2, [r7, #7]
 800133c:	490e      	ldr	r1, [pc, #56]	; (8001378 <L6474_SetMaxSpeed+0x94>)
 800133e:	4613      	mov	r3, r2
 8001340:	009b      	lsls	r3, r3, #2
 8001342:	4413      	add	r3, r2
 8001344:	00db      	lsls	r3, r3, #3
 8001346:	440b      	add	r3, r1
 8001348:	3322      	adds	r3, #34	; 0x22
 800134a:	781b      	ldrb	r3, [r3, #0]
 800134c:	b2db      	uxtb	r3, r3
      ((devicePrm[deviceId].motionState == INACTIVE)||
 800134e:	2b00      	cmp	r3, #0
 8001350:	d10b      	bne.n	800136a <L6474_SetMaxSpeed+0x86>
  {
    devicePrm[deviceId].maxSpeed = newMaxSpeed;
 8001352:	79fa      	ldrb	r2, [r7, #7]
 8001354:	4908      	ldr	r1, [pc, #32]	; (8001378 <L6474_SetMaxSpeed+0x94>)
 8001356:	4613      	mov	r3, r2
 8001358:	009b      	lsls	r3, r3, #2
 800135a:	4413      	add	r3, r2
 800135c:	00db      	lsls	r3, r3, #3
 800135e:	440b      	add	r3, r1
 8001360:	331c      	adds	r3, #28
 8001362:	88ba      	ldrh	r2, [r7, #4]
 8001364:	801a      	strh	r2, [r3, #0]
    cmdExecuted = TRUE;
 8001366:	2301      	movs	r3, #1
 8001368:	73fb      	strb	r3, [r7, #15]
  }
  return cmdExecuted;
 800136a:	7bfb      	ldrb	r3, [r7, #15]
}                                                     
 800136c:	4618      	mov	r0, r3
 800136e:	3714      	adds	r7, #20
 8001370:	46bd      	mov	sp, r7
 8001372:	f85d 7b04 	ldr.w	r7, [sp], #4
 8001376:	4770      	bx	lr
 8001378:	20001100 	.word	0x20001100

0800137c <L6474_SetMinSpeed>:
 * @retval true if the command is successfully executed, else false
 * @note The command is not performed is the device is executing 
 * a MOVE or GOTO command (but it can be used during a RUN command).
 **********************************************************/
bool L6474_SetMinSpeed(uint8_t deviceId, uint16_t newMinSpeed)
{                                                  
 800137c:	b480      	push	{r7}
 800137e:	b085      	sub	sp, #20
 8001380:	af00      	add	r7, sp, #0
 8001382:	4603      	mov	r3, r0
 8001384:	460a      	mov	r2, r1
 8001386:	71fb      	strb	r3, [r7, #7]
 8001388:	4613      	mov	r3, r2
 800138a:	80bb      	strh	r3, [r7, #4]
  bool cmdExecuted = FALSE;
 800138c:	2300      	movs	r3, #0
 800138e:	73fb      	strb	r3, [r7, #15]
  if ((newMinSpeed >= L6474_MIN_PWM_FREQ)&&
 8001390:	88bb      	ldrh	r3, [r7, #4]
 8001392:	2b01      	cmp	r3, #1
 8001394:	d935      	bls.n	8001402 <L6474_SetMinSpeed+0x86>
 8001396:	88bb      	ldrh	r3, [r7, #4]
 8001398:	f242 7210 	movw	r2, #10000	; 0x2710
 800139c:	4293      	cmp	r3, r2
 800139e:	d830      	bhi.n	8001402 <L6474_SetMinSpeed+0x86>
      (newMinSpeed <= L6474_MAX_PWM_FREQ) &&
      (newMinSpeed <= devicePrm[deviceId].maxSpeed) && 
 80013a0:	79fa      	ldrb	r2, [r7, #7]
 80013a2:	491b      	ldr	r1, [pc, #108]	; (8001410 <L6474_SetMinSpeed+0x94>)
 80013a4:	4613      	mov	r3, r2
 80013a6:	009b      	lsls	r3, r3, #2
 80013a8:	4413      	add	r3, r2
 80013aa:	00db      	lsls	r3, r3, #3
 80013ac:	440b      	add	r3, r1
 80013ae:	331c      	adds	r3, #28
 80013b0:	881b      	ldrh	r3, [r3, #0]
 80013b2:	b29b      	uxth	r3, r3
      (newMinSpeed <= L6474_MAX_PWM_FREQ) &&
 80013b4:	88ba      	ldrh	r2, [r7, #4]
 80013b6:	429a      	cmp	r2, r3
 80013b8:	d823      	bhi.n	8001402 <L6474_SetMinSpeed+0x86>
      ((devicePrm[deviceId].motionState == INACTIVE)||
 80013ba:	79fa      	ldrb	r2, [r7, #7]
 80013bc:	4914      	ldr	r1, [pc, #80]	; (8001410 <L6474_SetMinSpeed+0x94>)
 80013be:	4613      	mov	r3, r2
 80013c0:	009b      	lsls	r3, r3, #2
 80013c2:	4413      	add	r3, r2
 80013c4:	00db      	lsls	r3, r3, #3
 80013c6:	440b      	add	r3, r1
 80013c8:	3324      	adds	r3, #36	; 0x24
 80013ca:	781b      	ldrb	r3, [r3, #0]
 80013cc:	b2db      	uxtb	r3, r3
      (newMinSpeed <= devicePrm[deviceId].maxSpeed) && 
 80013ce:	2b08      	cmp	r3, #8
 80013d0:	d00b      	beq.n	80013ea <L6474_SetMinSpeed+0x6e>
       (devicePrm[deviceId].commandExecuted == RUN_CMD)))
 80013d2:	79fa      	ldrb	r2, [r7, #7]
 80013d4:	490e      	ldr	r1, [pc, #56]	; (8001410 <L6474_SetMinSpeed+0x94>)
 80013d6:	4613      	mov	r3, r2
 80013d8:	009b      	lsls	r3, r3, #2
 80013da:	4413      	add	r3, r2
 80013dc:	00db      	lsls	r3, r3, #3
 80013de:	440b      	add	r3, r1
 80013e0:	3322      	adds	r3, #34	; 0x22
 80013e2:	781b      	ldrb	r3, [r3, #0]
 80013e4:	b2db      	uxtb	r3, r3
      ((devicePrm[deviceId].motionState == INACTIVE)||
 80013e6:	2b00      	cmp	r3, #0
 80013e8:	d10b      	bne.n	8001402 <L6474_SetMinSpeed+0x86>
  {
    devicePrm[deviceId].minSpeed = newMinSpeed;
 80013ea:	79fa      	ldrb	r2, [r7, #7]
 80013ec:	4908      	ldr	r1, [pc, #32]	; (8001410 <L6474_SetMinSpeed+0x94>)
 80013ee:	4613      	mov	r3, r2
 80013f0:	009b      	lsls	r3, r3, #2
 80013f2:	4413      	add	r3, r2
 80013f4:	00db      	lsls	r3, r3, #3
 80013f6:	440b      	add	r3, r1
 80013f8:	331e      	adds	r3, #30
 80013fa:	88ba      	ldrh	r2, [r7, #4]
 80013fc:	801a      	strh	r2, [r3, #0]
    cmdExecuted = TRUE;
 80013fe:	2301      	movs	r3, #1
 8001400:	73fb      	strb	r3, [r7, #15]
  }  
  return cmdExecuted;
 8001402:	7bfb      	ldrb	r3, [r7, #15]
}                 
 8001404:	4618      	mov	r0, r3
 8001406:	3714      	adds	r7, #20
 8001408:	46bd      	mov	sp, r7
 800140a:	f85d 7b04 	ldr.w	r7, [sp], #4
 800140e:	4770      	bx	lr
 8001410:	20001100 	.word	0x20001100

08001414 <L6474_SoftStop>:
 * @param[in] deviceId (from 0 to 2)
 * @retval true if the command is successfully executed, else false
 * @note The command is not performed is the device is in INACTIVE state.
 **********************************************************/
bool L6474_SoftStop(uint8_t deviceId)
{	
 8001414:	b480      	push	{r7}
 8001416:	b085      	sub	sp, #20
 8001418:	af00      	add	r7, sp, #0
 800141a:	4603      	mov	r3, r0
 800141c:	71fb      	strb	r3, [r7, #7]
  bool cmdExecuted = FALSE;
 800141e:	2300      	movs	r3, #0
 8001420:	73fb      	strb	r3, [r7, #15]
  if (devicePrm[deviceId].motionState != INACTIVE)
 8001422:	79fa      	ldrb	r2, [r7, #7]
 8001424:	490e      	ldr	r1, [pc, #56]	; (8001460 <L6474_SoftStop+0x4c>)
 8001426:	4613      	mov	r3, r2
 8001428:	009b      	lsls	r3, r3, #2
 800142a:	4413      	add	r3, r2
 800142c:	00db      	lsls	r3, r3, #3
 800142e:	440b      	add	r3, r1
 8001430:	3324      	adds	r3, #36	; 0x24
 8001432:	781b      	ldrb	r3, [r3, #0]
 8001434:	b2db      	uxtb	r3, r3
 8001436:	2b08      	cmp	r3, #8
 8001438:	d00b      	beq.n	8001452 <L6474_SoftStop+0x3e>
  {
    devicePrm[deviceId].commandExecuted = SOFT_STOP_CMD;
 800143a:	79fa      	ldrb	r2, [r7, #7]
 800143c:	4908      	ldr	r1, [pc, #32]	; (8001460 <L6474_SoftStop+0x4c>)
 800143e:	4613      	mov	r3, r2
 8001440:	009b      	lsls	r3, r3, #2
 8001442:	4413      	add	r3, r2
 8001444:	00db      	lsls	r3, r3, #3
 8001446:	440b      	add	r3, r1
 8001448:	3322      	adds	r3, #34	; 0x22
 800144a:	2202      	movs	r2, #2
 800144c:	701a      	strb	r2, [r3, #0]
    cmdExecuted = TRUE;
 800144e:	2301      	movs	r3, #1
 8001450:	73fb      	strb	r3, [r7, #15]
  }
  return (cmdExecuted);
 8001452:	7bfb      	ldrb	r3, [r7, #15]
}
 8001454:	4618      	mov	r0, r3
 8001456:	3714      	adds	r7, #20
 8001458:	46bd      	mov	sp, r7
 800145a:	f85d 7b04 	ldr.w	r7, [sp], #4
 800145e:	4770      	bx	lr
 8001460:	20001100 	.word	0x20001100

08001464 <L6474_WaitWhileActive>:
 * @brief  Locks until the device state becomes Inactive
 * @param[in] deviceId (from 0 to 2)
 * @retval None
 **********************************************************/
void L6474_WaitWhileActive(uint8_t deviceId)
 {
 8001464:	b580      	push	{r7, lr}
 8001466:	b082      	sub	sp, #8
 8001468:	af00      	add	r7, sp, #0
 800146a:	4603      	mov	r3, r0
 800146c:	71fb      	strb	r3, [r7, #7]
	/* Wait while motor is running */
	while (L6474_GetDeviceState(deviceId) != INACTIVE);
 800146e:	bf00      	nop
 8001470:	79fb      	ldrb	r3, [r7, #7]
 8001472:	4618      	mov	r0, r3
 8001474:	f7ff fc8a 	bl	8000d8c <L6474_GetDeviceState>
 8001478:	4603      	mov	r3, r0
 800147a:	2b08      	cmp	r3, #8
 800147c:	d1f8      	bne.n	8001470 <L6474_WaitWhileActive+0xc>
}
 800147e:	bf00      	nop
 8001480:	3708      	adds	r7, #8
 8001482:	46bd      	mov	sp, r7
 8001484:	bd80      	pop	{r7, pc}

08001486 <L6474_CmdDisable>:
 * @brief  Issue the Disable command to the L6474 of the specified device
 * @param[in] deviceId (from 0 to 2)
 * @retval None
 **********************************************************/
void L6474_CmdDisable(uint8_t deviceId)
{
 8001486:	b580      	push	{r7, lr}
 8001488:	b082      	sub	sp, #8
 800148a:	af00      	add	r7, sp, #0
 800148c:	4603      	mov	r3, r0
 800148e:	71fb      	strb	r3, [r7, #7]
  L6474_SendCommand(deviceId, L6474_DISABLE);
 8001490:	79fb      	ldrb	r3, [r7, #7]
 8001492:	21a8      	movs	r1, #168	; 0xa8
 8001494:	4618      	mov	r0, r3
 8001496:	f000 fc7b 	bl	8001d90 <L6474_SendCommand>
}
 800149a:	bf00      	nop
 800149c:	3708      	adds	r7, #8
 800149e:	46bd      	mov	sp, r7
 80014a0:	bd80      	pop	{r7, pc}

080014a2 <L6474_CmdEnable>:
 * @brief  Issues the Enable command to the L6474 of the specified device
 * @param[in] deviceId (from 0 to 2)
 * @retval None
 **********************************************************/
void L6474_CmdEnable(uint8_t deviceId)
{
 80014a2:	b580      	push	{r7, lr}
 80014a4:	b082      	sub	sp, #8
 80014a6:	af00      	add	r7, sp, #0
 80014a8:	4603      	mov	r3, r0
 80014aa:	71fb      	strb	r3, [r7, #7]
  L6474_SendCommand(deviceId, L6474_ENABLE);
 80014ac:	79fb      	ldrb	r3, [r7, #7]
 80014ae:	21b8      	movs	r1, #184	; 0xb8
 80014b0:	4618      	mov	r0, r3
 80014b2:	f000 fc6d 	bl	8001d90 <L6474_SendCommand>
}
 80014b6:	bf00      	nop
 80014b8:	3708      	adds	r7, #8
 80014ba:	46bd      	mov	sp, r7
 80014bc:	bd80      	pop	{r7, pc}
	...

080014c0 <L6474_CmdGetParam>:
 * @param[in] deviceId (from 0 to 2)
 * @param[in] param Register adress (L6474_ABS_POS, L6474_MARK,...)
 * @retval Register value
 **********************************************************/
uint32_t L6474_CmdGetParam(uint8_t deviceId, uint32_t param)
{
 80014c0:	b580      	push	{r7, lr}
 80014c2:	b086      	sub	sp, #24
 80014c4:	af00      	add	r7, sp, #0
 80014c6:	4603      	mov	r3, r0
 80014c8:	6039      	str	r1, [r7, #0]
 80014ca:	71fb      	strb	r3, [r7, #7]
  uint32_t i;
  uint32_t spiRxData;
  uint8_t maxArgumentNbBytes = 0;
 80014cc:	2300      	movs	r3, #0
 80014ce:	74fb      	strb	r3, [r7, #19]
  uint8_t spiIndex = numberOfDevices - deviceId - 1;
 80014d0:	4b71      	ldr	r3, [pc, #452]	; (8001698 <L6474_CmdGetParam+0x1d8>)
 80014d2:	781b      	ldrb	r3, [r3, #0]
 80014d4:	b2da      	uxtb	r2, r3
 80014d6:	79fb      	ldrb	r3, [r7, #7]
 80014d8:	1ad3      	subs	r3, r2, r3
 80014da:	b2db      	uxtb	r3, r3
 80014dc:	3b01      	subs	r3, #1
 80014de:	747b      	strb	r3, [r7, #17]
  bool itDisable = FALSE;  
 80014e0:	2300      	movs	r3, #0
 80014e2:	74bb      	strb	r3, [r7, #18]
  
  do
  {
    spiPreemtionByIsr = FALSE;
 80014e4:	4b6d      	ldr	r3, [pc, #436]	; (800169c <L6474_CmdGetParam+0x1dc>)
 80014e6:	2200      	movs	r2, #0
 80014e8:	701a      	strb	r2, [r3, #0]
    if (itDisable)
 80014ea:	7cbb      	ldrb	r3, [r7, #18]
 80014ec:	2b00      	cmp	r3, #0
 80014ee:	d003      	beq.n	80014f8 <L6474_CmdGetParam+0x38>
    {
      /* re-enable BSP_MotorControlBoard_EnableIrq if disable in previous iteration */
      BSP_MotorControlBoard_EnableIrq();
 80014f0:	f002 facb 	bl	8003a8a <BSP_MotorControlBoard_EnableIrq>
      itDisable = FALSE;
 80014f4:	2300      	movs	r3, #0
 80014f6:	74bb      	strb	r3, [r7, #18]
    }
  
    for (i = 0; i < numberOfDevices; i++)
 80014f8:	2300      	movs	r3, #0
 80014fa:	617b      	str	r3, [r7, #20]
 80014fc:	e02b      	b.n	8001556 <L6474_CmdGetParam+0x96>
    {
      spiTxBursts[0][i] = L6474_NOP;
 80014fe:	4a68      	ldr	r2, [pc, #416]	; (80016a0 <L6474_CmdGetParam+0x1e0>)
 8001500:	697b      	ldr	r3, [r7, #20]
 8001502:	4413      	add	r3, r2
 8001504:	2200      	movs	r2, #0
 8001506:	701a      	strb	r2, [r3, #0]
      spiTxBursts[1][i] = L6474_NOP;
 8001508:	4a65      	ldr	r2, [pc, #404]	; (80016a0 <L6474_CmdGetParam+0x1e0>)
 800150a:	697b      	ldr	r3, [r7, #20]
 800150c:	4413      	add	r3, r2
 800150e:	3307      	adds	r3, #7
 8001510:	2200      	movs	r2, #0
 8001512:	701a      	strb	r2, [r3, #0]
      spiTxBursts[2][i] = L6474_NOP;
 8001514:	4a62      	ldr	r2, [pc, #392]	; (80016a0 <L6474_CmdGetParam+0x1e0>)
 8001516:	697b      	ldr	r3, [r7, #20]
 8001518:	4413      	add	r3, r2
 800151a:	330e      	adds	r3, #14
 800151c:	2200      	movs	r2, #0
 800151e:	701a      	strb	r2, [r3, #0]
      spiTxBursts[3][i] = L6474_NOP;
 8001520:	4a5f      	ldr	r2, [pc, #380]	; (80016a0 <L6474_CmdGetParam+0x1e0>)
 8001522:	697b      	ldr	r3, [r7, #20]
 8001524:	4413      	add	r3, r2
 8001526:	3315      	adds	r3, #21
 8001528:	2200      	movs	r2, #0
 800152a:	701a      	strb	r2, [r3, #0]
      spiRxBursts[1][i] = 0;
 800152c:	4a5d      	ldr	r2, [pc, #372]	; (80016a4 <L6474_CmdGetParam+0x1e4>)
 800152e:	697b      	ldr	r3, [r7, #20]
 8001530:	4413      	add	r3, r2
 8001532:	3307      	adds	r3, #7
 8001534:	2200      	movs	r2, #0
 8001536:	701a      	strb	r2, [r3, #0]
      spiRxBursts[2][i] = 0;
 8001538:	4a5a      	ldr	r2, [pc, #360]	; (80016a4 <L6474_CmdGetParam+0x1e4>)
 800153a:	697b      	ldr	r3, [r7, #20]
 800153c:	4413      	add	r3, r2
 800153e:	330e      	adds	r3, #14
 8001540:	2200      	movs	r2, #0
 8001542:	701a      	strb	r2, [r3, #0]
      spiRxBursts[3][i] = 0;    
 8001544:	4a57      	ldr	r2, [pc, #348]	; (80016a4 <L6474_CmdGetParam+0x1e4>)
 8001546:	697b      	ldr	r3, [r7, #20]
 8001548:	4413      	add	r3, r2
 800154a:	3315      	adds	r3, #21
 800154c:	2200      	movs	r2, #0
 800154e:	701a      	strb	r2, [r3, #0]
    for (i = 0; i < numberOfDevices; i++)
 8001550:	697b      	ldr	r3, [r7, #20]
 8001552:	3301      	adds	r3, #1
 8001554:	617b      	str	r3, [r7, #20]
 8001556:	4b50      	ldr	r3, [pc, #320]	; (8001698 <L6474_CmdGetParam+0x1d8>)
 8001558:	781b      	ldrb	r3, [r3, #0]
 800155a:	b2db      	uxtb	r3, r3
 800155c:	461a      	mov	r2, r3
 800155e:	697b      	ldr	r3, [r7, #20]
 8001560:	429a      	cmp	r2, r3
 8001562:	d8cc      	bhi.n	80014fe <L6474_CmdGetParam+0x3e>
    }
    switch (param)
 8001564:	683b      	ldr	r3, [r7, #0]
 8001566:	3b01      	subs	r3, #1
 8001568:	2b18      	cmp	r3, #24
 800156a:	d84d      	bhi.n	8001608 <L6474_CmdGetParam+0x148>
 800156c:	a201      	add	r2, pc, #4	; (adr r2, 8001574 <L6474_CmdGetParam+0xb4>)
 800156e:	f852 f023 	ldr.w	pc, [r2, r3, lsl #2]
 8001572:	bf00      	nop
 8001574:	080015d9 	.word	0x080015d9
 8001578:	080015ef 	.word	0x080015ef
 800157c:	080015d9 	.word	0x080015d9
 8001580:	08001609 	.word	0x08001609
 8001584:	08001609 	.word	0x08001609
 8001588:	08001609 	.word	0x08001609
 800158c:	08001609 	.word	0x08001609
 8001590:	08001609 	.word	0x08001609
 8001594:	08001609 	.word	0x08001609
 8001598:	08001609 	.word	0x08001609
 800159c:	08001609 	.word	0x08001609
 80015a0:	08001609 	.word	0x08001609
 80015a4:	08001609 	.word	0x08001609
 80015a8:	08001609 	.word	0x08001609
 80015ac:	08001609 	.word	0x08001609
 80015b0:	08001609 	.word	0x08001609
 80015b4:	08001609 	.word	0x08001609
 80015b8:	08001609 	.word	0x08001609
 80015bc:	08001609 	.word	0x08001609
 80015c0:	08001609 	.word	0x08001609
 80015c4:	08001609 	.word	0x08001609
 80015c8:	08001609 	.word	0x08001609
 80015cc:	08001609 	.word	0x08001609
 80015d0:	080015ef 	.word	0x080015ef
 80015d4:	080015ef 	.word	0x080015ef
    {
      case L6474_ABS_POS: ;
      case L6474_MARK:
        spiTxBursts[0][spiIndex] = ((uint8_t)L6474_GET_PARAM )| (param);
 80015d8:	7c7b      	ldrb	r3, [r7, #17]
 80015da:	683a      	ldr	r2, [r7, #0]
 80015dc:	b2d2      	uxtb	r2, r2
 80015de:	f042 0220 	orr.w	r2, r2, #32
 80015e2:	b2d1      	uxtb	r1, r2
 80015e4:	4a2e      	ldr	r2, [pc, #184]	; (80016a0 <L6474_CmdGetParam+0x1e0>)
 80015e6:	54d1      	strb	r1, [r2, r3]
        maxArgumentNbBytes = 3;
 80015e8:	2303      	movs	r3, #3
 80015ea:	74fb      	strb	r3, [r7, #19]
        break;
 80015ec:	e018      	b.n	8001620 <L6474_CmdGetParam+0x160>
      case L6474_EL_POS: ;
      case L6474_CONFIG: ;
      case L6474_STATUS:
        spiTxBursts[1][spiIndex] = ((uint8_t)L6474_GET_PARAM )| (param);
 80015ee:	7c7b      	ldrb	r3, [r7, #17]
 80015f0:	683a      	ldr	r2, [r7, #0]
 80015f2:	b2d2      	uxtb	r2, r2
 80015f4:	f042 0220 	orr.w	r2, r2, #32
 80015f8:	b2d1      	uxtb	r1, r2
 80015fa:	4a29      	ldr	r2, [pc, #164]	; (80016a0 <L6474_CmdGetParam+0x1e0>)
 80015fc:	4413      	add	r3, r2
 80015fe:	460a      	mov	r2, r1
 8001600:	71da      	strb	r2, [r3, #7]
        maxArgumentNbBytes = 2;
 8001602:	2302      	movs	r3, #2
 8001604:	74fb      	strb	r3, [r7, #19]
        break;
 8001606:	e00b      	b.n	8001620 <L6474_CmdGetParam+0x160>
      default:
        spiTxBursts[2][spiIndex] = ((uint8_t)L6474_GET_PARAM )| (param);
 8001608:	7c7b      	ldrb	r3, [r7, #17]
 800160a:	683a      	ldr	r2, [r7, #0]
 800160c:	b2d2      	uxtb	r2, r2
 800160e:	f042 0220 	orr.w	r2, r2, #32
 8001612:	b2d1      	uxtb	r1, r2
 8001614:	4a22      	ldr	r2, [pc, #136]	; (80016a0 <L6474_CmdGetParam+0x1e0>)
 8001616:	4413      	add	r3, r2
 8001618:	460a      	mov	r2, r1
 800161a:	739a      	strb	r2, [r3, #14]
        maxArgumentNbBytes = 1;
 800161c:	2301      	movs	r3, #1
 800161e:	74fb      	strb	r3, [r7, #19]
    }
    
    /* Disable interruption before checking */
    /* pre-emption by ISR and SPI transfers*/
    BSP_MotorControlBoard_DisableIrq();
 8001620:	f002 fa2b 	bl	8003a7a <BSP_MotorControlBoard_DisableIrq>
    itDisable = TRUE;
 8001624:	2301      	movs	r3, #1
 8001626:	74bb      	strb	r3, [r7, #18]
  } while (spiPreemtionByIsr); // check pre-emption by ISR
 8001628:	4b1c      	ldr	r3, [pc, #112]	; (800169c <L6474_CmdGetParam+0x1dc>)
 800162a:	781b      	ldrb	r3, [r3, #0]
 800162c:	b2db      	uxtb	r3, r3
 800162e:	2b00      	cmp	r3, #0
 8001630:	f47f af58 	bne.w	80014e4 <L6474_CmdGetParam+0x24>
    
  for (i = L6474_CMD_ARG_MAX_NB_BYTES-1-maxArgumentNbBytes;
 8001634:	7cfb      	ldrb	r3, [r7, #19]
 8001636:	f1c3 0303 	rsb	r3, r3, #3
 800163a:	617b      	str	r3, [r7, #20]
 800163c:	e011      	b.n	8001662 <L6474_CmdGetParam+0x1a2>
       i < L6474_CMD_ARG_MAX_NB_BYTES;
       i++)
  {
     L6474_WriteBytes(&spiTxBursts[i][0],
 800163e:	697a      	ldr	r2, [r7, #20]
 8001640:	4613      	mov	r3, r2
 8001642:	00db      	lsls	r3, r3, #3
 8001644:	1a9b      	subs	r3, r3, r2
 8001646:	4a16      	ldr	r2, [pc, #88]	; (80016a0 <L6474_CmdGetParam+0x1e0>)
 8001648:	1898      	adds	r0, r3, r2
 800164a:	697a      	ldr	r2, [r7, #20]
 800164c:	4613      	mov	r3, r2
 800164e:	00db      	lsls	r3, r3, #3
 8001650:	1a9b      	subs	r3, r3, r2
 8001652:	4a14      	ldr	r2, [pc, #80]	; (80016a4 <L6474_CmdGetParam+0x1e4>)
 8001654:	4413      	add	r3, r2
 8001656:	4619      	mov	r1, r3
 8001658:	f001 fa40 	bl	8002adc <L6474_WriteBytes>
       i++)
 800165c:	697b      	ldr	r3, [r7, #20]
 800165e:	3301      	adds	r3, #1
 8001660:	617b      	str	r3, [r7, #20]
  for (i = L6474_CMD_ARG_MAX_NB_BYTES-1-maxArgumentNbBytes;
 8001662:	697b      	ldr	r3, [r7, #20]
 8001664:	2b03      	cmp	r3, #3
 8001666:	d9ea      	bls.n	800163e <L6474_CmdGetParam+0x17e>
                          &spiRxBursts[i][0]);
  }
  
  spiRxData = ((uint32_t)spiRxBursts[1][spiIndex] << 16)|
 8001668:	7c7b      	ldrb	r3, [r7, #17]
 800166a:	4a0e      	ldr	r2, [pc, #56]	; (80016a4 <L6474_CmdGetParam+0x1e4>)
 800166c:	4413      	add	r3, r2
 800166e:	79db      	ldrb	r3, [r3, #7]
 8001670:	041b      	lsls	r3, r3, #16
              (spiRxBursts[2][spiIndex] << 8) |
 8001672:	7c7a      	ldrb	r2, [r7, #17]
 8001674:	490b      	ldr	r1, [pc, #44]	; (80016a4 <L6474_CmdGetParam+0x1e4>)
 8001676:	440a      	add	r2, r1
 8001678:	7b92      	ldrb	r2, [r2, #14]
 800167a:	0212      	lsls	r2, r2, #8
  spiRxData = ((uint32_t)spiRxBursts[1][spiIndex] << 16)|
 800167c:	4313      	orrs	r3, r2
              (spiRxBursts[3][spiIndex]);
 800167e:	7c7a      	ldrb	r2, [r7, #17]
 8001680:	4908      	ldr	r1, [pc, #32]	; (80016a4 <L6474_CmdGetParam+0x1e4>)
 8001682:	440a      	add	r2, r1
 8001684:	7d52      	ldrb	r2, [r2, #21]
  spiRxData = ((uint32_t)spiRxBursts[1][spiIndex] << 16)|
 8001686:	4313      	orrs	r3, r2
 8001688:	60fb      	str	r3, [r7, #12]
  
  /* re-enable BSP_MotorControlBoard_EnableIrq after SPI transfers*/
  BSP_MotorControlBoard_EnableIrq();
 800168a:	f002 f9fe 	bl	8003a8a <BSP_MotorControlBoard_EnableIrq>
    
  return (spiRxData);
 800168e:	68fb      	ldr	r3, [r7, #12]
}
 8001690:	4618      	mov	r0, r3
 8001692:	3718      	adds	r7, #24
 8001694:	46bd      	mov	sp, r7
 8001696:	bd80      	pop	{r7, pc}
 8001698:	200004dc 	.word	0x200004dc
 800169c:	20000518 	.word	0x20000518
 80016a0:	200004e0 	.word	0x200004e0
 80016a4:	200004fc 	.word	0x200004fc

080016a8 <L6474_CmdGetStatus>:
 * @note Once the GetStatus command is performed, the flags of the status register
 * are reset. This is not the case when the status register is read with the
 * GetParam command (via the functions L6474ReadStatusRegister or L6474CmdGetParam).
 **********************************************************/
uint16_t L6474_CmdGetStatus(uint8_t deviceId)
{
 80016a8:	b580      	push	{r7, lr}
 80016aa:	b084      	sub	sp, #16
 80016ac:	af00      	add	r7, sp, #0
 80016ae:	4603      	mov	r3, r0
 80016b0:	71fb      	strb	r3, [r7, #7]
  uint32_t i;
  uint16_t status;
  uint8_t spiIndex = numberOfDevices - deviceId - 1;
 80016b2:	4b3c      	ldr	r3, [pc, #240]	; (80017a4 <L6474_CmdGetStatus+0xfc>)
 80016b4:	781b      	ldrb	r3, [r3, #0]
 80016b6:	b2da      	uxtb	r2, r3
 80016b8:	79fb      	ldrb	r3, [r7, #7]
 80016ba:	1ad3      	subs	r3, r2, r3
 80016bc:	b2db      	uxtb	r3, r3
 80016be:	3b01      	subs	r3, #1
 80016c0:	72bb      	strb	r3, [r7, #10]
  bool itDisable = FALSE;  
 80016c2:	2300      	movs	r3, #0
 80016c4:	72fb      	strb	r3, [r7, #11]
  
  do
  {
    spiPreemtionByIsr = FALSE;
 80016c6:	4b38      	ldr	r3, [pc, #224]	; (80017a8 <L6474_CmdGetStatus+0x100>)
 80016c8:	2200      	movs	r2, #0
 80016ca:	701a      	strb	r2, [r3, #0]
    if (itDisable)
 80016cc:	7afb      	ldrb	r3, [r7, #11]
 80016ce:	2b00      	cmp	r3, #0
 80016d0:	d003      	beq.n	80016da <L6474_CmdGetStatus+0x32>
    {
      /* re-enable BSP_MotorControlBoard_EnableIrq if disable in previous iteration */
      BSP_MotorControlBoard_EnableIrq();
 80016d2:	f002 f9da 	bl	8003a8a <BSP_MotorControlBoard_EnableIrq>
      itDisable = FALSE;
 80016d6:	2300      	movs	r3, #0
 80016d8:	72fb      	strb	r3, [r7, #11]
    }

    for (i = 0; i < numberOfDevices; i++)
 80016da:	2300      	movs	r3, #0
 80016dc:	60fb      	str	r3, [r7, #12]
 80016de:	e01f      	b.n	8001720 <L6474_CmdGetStatus+0x78>
    {
       spiTxBursts[0][i] = L6474_NOP;
 80016e0:	4a32      	ldr	r2, [pc, #200]	; (80017ac <L6474_CmdGetStatus+0x104>)
 80016e2:	68fb      	ldr	r3, [r7, #12]
 80016e4:	4413      	add	r3, r2
 80016e6:	2200      	movs	r2, #0
 80016e8:	701a      	strb	r2, [r3, #0]
       spiTxBursts[1][i] = L6474_NOP;
 80016ea:	4a30      	ldr	r2, [pc, #192]	; (80017ac <L6474_CmdGetStatus+0x104>)
 80016ec:	68fb      	ldr	r3, [r7, #12]
 80016ee:	4413      	add	r3, r2
 80016f0:	3307      	adds	r3, #7
 80016f2:	2200      	movs	r2, #0
 80016f4:	701a      	strb	r2, [r3, #0]
       spiTxBursts[2][i] = L6474_NOP;
 80016f6:	4a2d      	ldr	r2, [pc, #180]	; (80017ac <L6474_CmdGetStatus+0x104>)
 80016f8:	68fb      	ldr	r3, [r7, #12]
 80016fa:	4413      	add	r3, r2
 80016fc:	330e      	adds	r3, #14
 80016fe:	2200      	movs	r2, #0
 8001700:	701a      	strb	r2, [r3, #0]
       spiRxBursts[1][i] = 0;
 8001702:	4a2b      	ldr	r2, [pc, #172]	; (80017b0 <L6474_CmdGetStatus+0x108>)
 8001704:	68fb      	ldr	r3, [r7, #12]
 8001706:	4413      	add	r3, r2
 8001708:	3307      	adds	r3, #7
 800170a:	2200      	movs	r2, #0
 800170c:	701a      	strb	r2, [r3, #0]
       spiRxBursts[2][i] = 0;
 800170e:	4a28      	ldr	r2, [pc, #160]	; (80017b0 <L6474_CmdGetStatus+0x108>)
 8001710:	68fb      	ldr	r3, [r7, #12]
 8001712:	4413      	add	r3, r2
 8001714:	330e      	adds	r3, #14
 8001716:	2200      	movs	r2, #0
 8001718:	701a      	strb	r2, [r3, #0]
    for (i = 0; i < numberOfDevices; i++)
 800171a:	68fb      	ldr	r3, [r7, #12]
 800171c:	3301      	adds	r3, #1
 800171e:	60fb      	str	r3, [r7, #12]
 8001720:	4b20      	ldr	r3, [pc, #128]	; (80017a4 <L6474_CmdGetStatus+0xfc>)
 8001722:	781b      	ldrb	r3, [r3, #0]
 8001724:	b2db      	uxtb	r3, r3
 8001726:	461a      	mov	r2, r3
 8001728:	68fb      	ldr	r3, [r7, #12]
 800172a:	429a      	cmp	r2, r3
 800172c:	d8d8      	bhi.n	80016e0 <L6474_CmdGetStatus+0x38>
    }
    spiTxBursts[0][spiIndex] = L6474_GET_STATUS;
 800172e:	7abb      	ldrb	r3, [r7, #10]
 8001730:	4a1e      	ldr	r2, [pc, #120]	; (80017ac <L6474_CmdGetStatus+0x104>)
 8001732:	21d0      	movs	r1, #208	; 0xd0
 8001734:	54d1      	strb	r1, [r2, r3]

    /* Disable interruption before checking */
    /* pre-emption by ISR and SPI transfers*/
    BSP_MotorControlBoard_DisableIrq();
 8001736:	f002 f9a0 	bl	8003a7a <BSP_MotorControlBoard_DisableIrq>
    itDisable = TRUE;
 800173a:	2301      	movs	r3, #1
 800173c:	72fb      	strb	r3, [r7, #11]
  } while (spiPreemtionByIsr); // check pre-emption by ISR
 800173e:	4b1a      	ldr	r3, [pc, #104]	; (80017a8 <L6474_CmdGetStatus+0x100>)
 8001740:	781b      	ldrb	r3, [r3, #0]
 8001742:	b2db      	uxtb	r3, r3
 8001744:	2b00      	cmp	r3, #0
 8001746:	d1be      	bne.n	80016c6 <L6474_CmdGetStatus+0x1e>

  for (i = 0; i < L6474_CMD_ARG_NB_BYTES_GET_STATUS + L6474_RSP_NB_BYTES_GET_STATUS; i++)
 8001748:	2300      	movs	r3, #0
 800174a:	60fb      	str	r3, [r7, #12]
 800174c:	e011      	b.n	8001772 <L6474_CmdGetStatus+0xca>
  {
     L6474_WriteBytes(&spiTxBursts[i][0], &spiRxBursts[i][0]);
 800174e:	68fa      	ldr	r2, [r7, #12]
 8001750:	4613      	mov	r3, r2
 8001752:	00db      	lsls	r3, r3, #3
 8001754:	1a9b      	subs	r3, r3, r2
 8001756:	4a15      	ldr	r2, [pc, #84]	; (80017ac <L6474_CmdGetStatus+0x104>)
 8001758:	1898      	adds	r0, r3, r2
 800175a:	68fa      	ldr	r2, [r7, #12]
 800175c:	4613      	mov	r3, r2
 800175e:	00db      	lsls	r3, r3, #3
 8001760:	1a9b      	subs	r3, r3, r2
 8001762:	4a13      	ldr	r2, [pc, #76]	; (80017b0 <L6474_CmdGetStatus+0x108>)
 8001764:	4413      	add	r3, r2
 8001766:	4619      	mov	r1, r3
 8001768:	f001 f9b8 	bl	8002adc <L6474_WriteBytes>
  for (i = 0; i < L6474_CMD_ARG_NB_BYTES_GET_STATUS + L6474_RSP_NB_BYTES_GET_STATUS; i++)
 800176c:	68fb      	ldr	r3, [r7, #12]
 800176e:	3301      	adds	r3, #1
 8001770:	60fb      	str	r3, [r7, #12]
 8001772:	68fb      	ldr	r3, [r7, #12]
 8001774:	2b02      	cmp	r3, #2
 8001776:	d9ea      	bls.n	800174e <L6474_CmdGetStatus+0xa6>
  }
  status = (spiRxBursts[1][spiIndex] << 8) | (spiRxBursts[2][spiIndex]);
 8001778:	7abb      	ldrb	r3, [r7, #10]
 800177a:	4a0d      	ldr	r2, [pc, #52]	; (80017b0 <L6474_CmdGetStatus+0x108>)
 800177c:	4413      	add	r3, r2
 800177e:	79db      	ldrb	r3, [r3, #7]
 8001780:	021b      	lsls	r3, r3, #8
 8001782:	b21a      	sxth	r2, r3
 8001784:	7abb      	ldrb	r3, [r7, #10]
 8001786:	490a      	ldr	r1, [pc, #40]	; (80017b0 <L6474_CmdGetStatus+0x108>)
 8001788:	440b      	add	r3, r1
 800178a:	7b9b      	ldrb	r3, [r3, #14]
 800178c:	b21b      	sxth	r3, r3
 800178e:	4313      	orrs	r3, r2
 8001790:	b21b      	sxth	r3, r3
 8001792:	813b      	strh	r3, [r7, #8]
  
  /* re-enable BSP_MotorControlBoard_EnableIrq after SPI transfers*/
  BSP_MotorControlBoard_EnableIrq();
 8001794:	f002 f979 	bl	8003a8a <BSP_MotorControlBoard_EnableIrq>
  
  return (status);
 8001798:	893b      	ldrh	r3, [r7, #8]
}
 800179a:	4618      	mov	r0, r3
 800179c:	3710      	adds	r7, #16
 800179e:	46bd      	mov	sp, r7
 80017a0:	bd80      	pop	{r7, pc}
 80017a2:	bf00      	nop
 80017a4:	200004dc 	.word	0x200004dc
 80017a8:	20000518 	.word	0x20000518
 80017ac:	200004e0 	.word	0x200004e0
 80017b0:	200004fc 	.word	0x200004fc

080017b4 <L6474_CmdNop>:
 * @brief  Issues the Nop command to the L6474 of the specified device
 * @param[in] deviceId (from 0 to 2)
 * @retval None
 **********************************************************/
void L6474_CmdNop(uint8_t deviceId)
{
 80017b4:	b580      	push	{r7, lr}
 80017b6:	b082      	sub	sp, #8
 80017b8:	af00      	add	r7, sp, #0
 80017ba:	4603      	mov	r3, r0
 80017bc:	71fb      	strb	r3, [r7, #7]
  L6474_SendCommand(deviceId, L6474_NOP);
 80017be:	79fb      	ldrb	r3, [r7, #7]
 80017c0:	2100      	movs	r1, #0
 80017c2:	4618      	mov	r0, r3
 80017c4:	f000 fae4 	bl	8001d90 <L6474_SendCommand>
}
 80017c8:	bf00      	nop
 80017ca:	3708      	adds	r7, #8
 80017cc:	46bd      	mov	sp, r7
 80017ce:	bd80      	pop	{r7, pc}

080017d0 <L6474_CmdSetParam>:
 * @retval None
 **********************************************************/
void L6474_CmdSetParam(uint8_t deviceId,
                       uint32_t param,
                       uint32_t value)
{
 80017d0:	b580      	push	{r7, lr}
 80017d2:	b086      	sub	sp, #24
 80017d4:	af00      	add	r7, sp, #0
 80017d6:	4603      	mov	r3, r0
 80017d8:	60b9      	str	r1, [r7, #8]
 80017da:	607a      	str	r2, [r7, #4]
 80017dc:	73fb      	strb	r3, [r7, #15]
  uint32_t i;
  uint8_t maxArgumentNbBytes = 0;
 80017de:	2300      	movs	r3, #0
 80017e0:	74fb      	strb	r3, [r7, #19]
  uint8_t spiIndex = numberOfDevices - deviceId - 1;
 80017e2:	4b69      	ldr	r3, [pc, #420]	; (8001988 <L6474_CmdSetParam+0x1b8>)
 80017e4:	781b      	ldrb	r3, [r3, #0]
 80017e6:	b2da      	uxtb	r2, r3
 80017e8:	7bfb      	ldrb	r3, [r7, #15]
 80017ea:	1ad3      	subs	r3, r2, r3
 80017ec:	b2db      	uxtb	r3, r3
 80017ee:	3b01      	subs	r3, #1
 80017f0:	747b      	strb	r3, [r7, #17]
  bool itDisable = FALSE;  
 80017f2:	2300      	movs	r3, #0
 80017f4:	74bb      	strb	r3, [r7, #18]
  do
  {
    spiPreemtionByIsr = FALSE;
 80017f6:	4b65      	ldr	r3, [pc, #404]	; (800198c <L6474_CmdSetParam+0x1bc>)
 80017f8:	2200      	movs	r2, #0
 80017fa:	701a      	strb	r2, [r3, #0]
    if (itDisable)
 80017fc:	7cbb      	ldrb	r3, [r7, #18]
 80017fe:	2b00      	cmp	r3, #0
 8001800:	d003      	beq.n	800180a <L6474_CmdSetParam+0x3a>
    {
      /* re-enable BSP_MotorControlBoard_EnableIrq if disable in previous iteration */
      BSP_MotorControlBoard_EnableIrq();
 8001802:	f002 f942 	bl	8003a8a <BSP_MotorControlBoard_EnableIrq>
      itDisable = FALSE;
 8001806:	2300      	movs	r3, #0
 8001808:	74bb      	strb	r3, [r7, #18]
    }
    for (i = 0; i < numberOfDevices; i++)
 800180a:	2300      	movs	r3, #0
 800180c:	617b      	str	r3, [r7, #20]
 800180e:	e019      	b.n	8001844 <L6474_CmdSetParam+0x74>
    {
      spiTxBursts[0][i] = L6474_NOP;
 8001810:	4a5f      	ldr	r2, [pc, #380]	; (8001990 <L6474_CmdSetParam+0x1c0>)
 8001812:	697b      	ldr	r3, [r7, #20]
 8001814:	4413      	add	r3, r2
 8001816:	2200      	movs	r2, #0
 8001818:	701a      	strb	r2, [r3, #0]
      spiTxBursts[1][i] = L6474_NOP;
 800181a:	4a5d      	ldr	r2, [pc, #372]	; (8001990 <L6474_CmdSetParam+0x1c0>)
 800181c:	697b      	ldr	r3, [r7, #20]
 800181e:	4413      	add	r3, r2
 8001820:	3307      	adds	r3, #7
 8001822:	2200      	movs	r2, #0
 8001824:	701a      	strb	r2, [r3, #0]
      spiTxBursts[2][i] = L6474_NOP;
 8001826:	4a5a      	ldr	r2, [pc, #360]	; (8001990 <L6474_CmdSetParam+0x1c0>)
 8001828:	697b      	ldr	r3, [r7, #20]
 800182a:	4413      	add	r3, r2
 800182c:	330e      	adds	r3, #14
 800182e:	2200      	movs	r2, #0
 8001830:	701a      	strb	r2, [r3, #0]
      spiTxBursts[3][i] = L6474_NOP;
 8001832:	4a57      	ldr	r2, [pc, #348]	; (8001990 <L6474_CmdSetParam+0x1c0>)
 8001834:	697b      	ldr	r3, [r7, #20]
 8001836:	4413      	add	r3, r2
 8001838:	3315      	adds	r3, #21
 800183a:	2200      	movs	r2, #0
 800183c:	701a      	strb	r2, [r3, #0]
    for (i = 0; i < numberOfDevices; i++)
 800183e:	697b      	ldr	r3, [r7, #20]
 8001840:	3301      	adds	r3, #1
 8001842:	617b      	str	r3, [r7, #20]
 8001844:	4b50      	ldr	r3, [pc, #320]	; (8001988 <L6474_CmdSetParam+0x1b8>)
 8001846:	781b      	ldrb	r3, [r3, #0]
 8001848:	b2db      	uxtb	r3, r3
 800184a:	461a      	mov	r2, r3
 800184c:	697b      	ldr	r3, [r7, #20]
 800184e:	429a      	cmp	r2, r3
 8001850:	d8de      	bhi.n	8001810 <L6474_CmdSetParam+0x40>
    }
    switch (param)
 8001852:	68bb      	ldr	r3, [r7, #8]
 8001854:	3b01      	subs	r3, #1
 8001856:	2b17      	cmp	r3, #23
 8001858:	d85c      	bhi.n	8001914 <L6474_CmdSetParam+0x144>
 800185a:	a201      	add	r2, pc, #4	; (adr r2, 8001860 <L6474_CmdSetParam+0x90>)
 800185c:	f852 f023 	ldr.w	pc, [r2, r3, lsl #2]
 8001860:	080018c1 	.word	0x080018c1
 8001864:	080018f1 	.word	0x080018f1
 8001868:	080018c1 	.word	0x080018c1
 800186c:	08001915 	.word	0x08001915
 8001870:	08001915 	.word	0x08001915
 8001874:	08001915 	.word	0x08001915
 8001878:	08001915 	.word	0x08001915
 800187c:	08001915 	.word	0x08001915
 8001880:	08001915 	.word	0x08001915
 8001884:	08001915 	.word	0x08001915
 8001888:	08001915 	.word	0x08001915
 800188c:	08001915 	.word	0x08001915
 8001890:	08001915 	.word	0x08001915
 8001894:	08001915 	.word	0x08001915
 8001898:	08001915 	.word	0x08001915
 800189c:	08001915 	.word	0x08001915
 80018a0:	08001915 	.word	0x08001915
 80018a4:	08001915 	.word	0x08001915
 80018a8:	08001915 	.word	0x08001915
 80018ac:	08001915 	.word	0x08001915
 80018b0:	08001915 	.word	0x08001915
 80018b4:	08001915 	.word	0x08001915
 80018b8:	08001915 	.word	0x08001915
 80018bc:	080018f1 	.word	0x080018f1
  {
    case L6474_ABS_POS: ;
    case L6474_MARK:
        spiTxBursts[0][spiIndex] = param;
 80018c0:	7c7b      	ldrb	r3, [r7, #17]
 80018c2:	68ba      	ldr	r2, [r7, #8]
 80018c4:	b2d1      	uxtb	r1, r2
 80018c6:	4a32      	ldr	r2, [pc, #200]	; (8001990 <L6474_CmdSetParam+0x1c0>)
 80018c8:	54d1      	strb	r1, [r2, r3]
        spiTxBursts[1][spiIndex] = (uint8_t)(value >> 16);
 80018ca:	7c7b      	ldrb	r3, [r7, #17]
 80018cc:	687a      	ldr	r2, [r7, #4]
 80018ce:	0c12      	lsrs	r2, r2, #16
 80018d0:	b2d1      	uxtb	r1, r2
 80018d2:	4a2f      	ldr	r2, [pc, #188]	; (8001990 <L6474_CmdSetParam+0x1c0>)
 80018d4:	4413      	add	r3, r2
 80018d6:	460a      	mov	r2, r1
 80018d8:	71da      	strb	r2, [r3, #7]
        spiTxBursts[2][spiIndex] = (uint8_t)(value >> 8);
 80018da:	7c7b      	ldrb	r3, [r7, #17]
 80018dc:	687a      	ldr	r2, [r7, #4]
 80018de:	0a12      	lsrs	r2, r2, #8
 80018e0:	b2d1      	uxtb	r1, r2
 80018e2:	4a2b      	ldr	r2, [pc, #172]	; (8001990 <L6474_CmdSetParam+0x1c0>)
 80018e4:	4413      	add	r3, r2
 80018e6:	460a      	mov	r2, r1
 80018e8:	739a      	strb	r2, [r3, #14]
        maxArgumentNbBytes = 3;
 80018ea:	2303      	movs	r3, #3
 80018ec:	74fb      	strb	r3, [r7, #19]
        break;
 80018ee:	e01a      	b.n	8001926 <L6474_CmdSetParam+0x156>
    case L6474_EL_POS: ;
    case L6474_CONFIG:
        spiTxBursts[1][spiIndex] = param;
 80018f0:	7c7b      	ldrb	r3, [r7, #17]
 80018f2:	68ba      	ldr	r2, [r7, #8]
 80018f4:	b2d1      	uxtb	r1, r2
 80018f6:	4a26      	ldr	r2, [pc, #152]	; (8001990 <L6474_CmdSetParam+0x1c0>)
 80018f8:	4413      	add	r3, r2
 80018fa:	460a      	mov	r2, r1
 80018fc:	71da      	strb	r2, [r3, #7]
        spiTxBursts[2][spiIndex] = (uint8_t)(value >> 8);
 80018fe:	7c7b      	ldrb	r3, [r7, #17]
 8001900:	687a      	ldr	r2, [r7, #4]
 8001902:	0a12      	lsrs	r2, r2, #8
 8001904:	b2d1      	uxtb	r1, r2
 8001906:	4a22      	ldr	r2, [pc, #136]	; (8001990 <L6474_CmdSetParam+0x1c0>)
 8001908:	4413      	add	r3, r2
 800190a:	460a      	mov	r2, r1
 800190c:	739a      	strb	r2, [r3, #14]
        maxArgumentNbBytes = 2;
 800190e:	2302      	movs	r3, #2
 8001910:	74fb      	strb	r3, [r7, #19]
        break;
 8001912:	e008      	b.n	8001926 <L6474_CmdSetParam+0x156>
    default:
        spiTxBursts[2][spiIndex] = param;
 8001914:	7c7b      	ldrb	r3, [r7, #17]
 8001916:	68ba      	ldr	r2, [r7, #8]
 8001918:	b2d1      	uxtb	r1, r2
 800191a:	4a1d      	ldr	r2, [pc, #116]	; (8001990 <L6474_CmdSetParam+0x1c0>)
 800191c:	4413      	add	r3, r2
 800191e:	460a      	mov	r2, r1
 8001920:	739a      	strb	r2, [r3, #14]
        maxArgumentNbBytes = 1;
 8001922:	2301      	movs	r3, #1
 8001924:	74fb      	strb	r3, [r7, #19]
    }
    spiTxBursts[3][spiIndex] = (uint8_t)(value);
 8001926:	7c7b      	ldrb	r3, [r7, #17]
 8001928:	687a      	ldr	r2, [r7, #4]
 800192a:	b2d1      	uxtb	r1, r2
 800192c:	4a18      	ldr	r2, [pc, #96]	; (8001990 <L6474_CmdSetParam+0x1c0>)
 800192e:	4413      	add	r3, r2
 8001930:	460a      	mov	r2, r1
 8001932:	755a      	strb	r2, [r3, #21]
    
    /* Disable interruption before checking */
    /* pre-emption by ISR and SPI transfers*/
    BSP_MotorControlBoard_DisableIrq();
 8001934:	f002 f8a1 	bl	8003a7a <BSP_MotorControlBoard_DisableIrq>
    itDisable = TRUE;
 8001938:	2301      	movs	r3, #1
 800193a:	74bb      	strb	r3, [r7, #18]
  } while (spiPreemtionByIsr); // check pre-emption by ISR
 800193c:	4b13      	ldr	r3, [pc, #76]	; (800198c <L6474_CmdSetParam+0x1bc>)
 800193e:	781b      	ldrb	r3, [r3, #0]
 8001940:	b2db      	uxtb	r3, r3
 8001942:	2b00      	cmp	r3, #0
 8001944:	f47f af57 	bne.w	80017f6 <L6474_CmdSetParam+0x26>
 
  /* SPI transfer */
  for (i = L6474_CMD_ARG_MAX_NB_BYTES-1-maxArgumentNbBytes;
 8001948:	7cfb      	ldrb	r3, [r7, #19]
 800194a:	f1c3 0303 	rsb	r3, r3, #3
 800194e:	617b      	str	r3, [r7, #20]
 8001950:	e011      	b.n	8001976 <L6474_CmdSetParam+0x1a6>
       i < L6474_CMD_ARG_MAX_NB_BYTES;
       i++)
  {
     L6474_WriteBytes(&spiTxBursts[i][0],&spiRxBursts[i][0]);
 8001952:	697a      	ldr	r2, [r7, #20]
 8001954:	4613      	mov	r3, r2
 8001956:	00db      	lsls	r3, r3, #3
 8001958:	1a9b      	subs	r3, r3, r2
 800195a:	4a0d      	ldr	r2, [pc, #52]	; (8001990 <L6474_CmdSetParam+0x1c0>)
 800195c:	1898      	adds	r0, r3, r2
 800195e:	697a      	ldr	r2, [r7, #20]
 8001960:	4613      	mov	r3, r2
 8001962:	00db      	lsls	r3, r3, #3
 8001964:	1a9b      	subs	r3, r3, r2
 8001966:	4a0b      	ldr	r2, [pc, #44]	; (8001994 <L6474_CmdSetParam+0x1c4>)
 8001968:	4413      	add	r3, r2
 800196a:	4619      	mov	r1, r3
 800196c:	f001 f8b6 	bl	8002adc <L6474_WriteBytes>
       i++)
 8001970:	697b      	ldr	r3, [r7, #20]
 8001972:	3301      	adds	r3, #1
 8001974:	617b      	str	r3, [r7, #20]
  for (i = L6474_CMD_ARG_MAX_NB_BYTES-1-maxArgumentNbBytes;
 8001976:	697b      	ldr	r3, [r7, #20]
 8001978:	2b03      	cmp	r3, #3
 800197a:	d9ea      	bls.n	8001952 <L6474_CmdSetParam+0x182>
  }
  /* re-enable BSP_MotorControlBoard_EnableIrq after SPI transfers*/
  BSP_MotorControlBoard_EnableIrq();
 800197c:	f002 f885 	bl	8003a8a <BSP_MotorControlBoard_EnableIrq>
}
 8001980:	bf00      	nop
 8001982:	3718      	adds	r7, #24
 8001984:	46bd      	mov	sp, r7
 8001986:	bd80      	pop	{r7, pc}
 8001988:	200004dc 	.word	0x200004dc
 800198c:	20000518 	.word	0x20000518
 8001990:	200004e0 	.word	0x200004e0
 8001994:	200004fc 	.word	0x200004fc

08001998 <L6474_ReadStatusRegister>:
 * @retval Status register valued
 * @note The status register flags are not cleared 
 * at the difference with L6474CmdGetStatus()
 **********************************************************/
uint16_t L6474_ReadStatusRegister(uint8_t deviceId)
{
 8001998:	b580      	push	{r7, lr}
 800199a:	b082      	sub	sp, #8
 800199c:	af00      	add	r7, sp, #0
 800199e:	4603      	mov	r3, r0
 80019a0:	71fb      	strb	r3, [r7, #7]
  return (L6474_CmdGetParam(deviceId,L6474_STATUS));
 80019a2:	79fb      	ldrb	r3, [r7, #7]
 80019a4:	2119      	movs	r1, #25
 80019a6:	4618      	mov	r0, r3
 80019a8:	f7ff fd8a 	bl	80014c0 <L6474_CmdGetParam>
 80019ac:	4603      	mov	r3, r0
 80019ae:	b29b      	uxth	r3, r3
}
 80019b0:	4618      	mov	r0, r3
 80019b2:	3708      	adds	r7, #8
 80019b4:	46bd      	mov	sp, r7
 80019b6:	bd80      	pop	{r7, pc}

080019b8 <L6474_ReleaseReset>:
 * @brief  Releases the L6474 reset (pin set to High) of all devices
 * @param  None
 * @retval None
 **********************************************************/
void L6474_ReleaseReset(void)
{ 
 80019b8:	b580      	push	{r7, lr}
 80019ba:	af00      	add	r7, sp, #0
  BSP_MotorControlBoard_ReleaseReset(); 
 80019bc:	f002 fb42 	bl	8004044 <BSP_MotorControlBoard_ReleaseReset>
}
 80019c0:	bf00      	nop
 80019c2:	bd80      	pop	{r7, pc}

080019c4 <L6474_Reset>:
 * @brief  Resets the L6474 (reset pin set to low) of all devices
 * @param  None
 * @retval None
 **********************************************************/
void L6474_Reset(void)
{
 80019c4:	b580      	push	{r7, lr}
 80019c6:	af00      	add	r7, sp, #0
  BSP_MotorControlBoard_Reset(); 
 80019c8:	f002 fb66 	bl	8004098 <BSP_MotorControlBoard_Reset>
}
 80019cc:	bf00      	nop
 80019ce:	bd80      	pop	{r7, pc}

080019d0 <L6474_SelectStepMode>:
 * @param[in] deviceId (from 0 to 2)
 * @param[in] stepMod from full step to 1/16 microstep as specified in enum motorStepMode_t
 * @retval None
 **********************************************************/
void L6474_SelectStepMode(uint8_t deviceId, motorStepMode_t stepMod)
{
 80019d0:	b580      	push	{r7, lr}
 80019d2:	b084      	sub	sp, #16
 80019d4:	af00      	add	r7, sp, #0
 80019d6:	4603      	mov	r3, r0
 80019d8:	460a      	mov	r2, r1
 80019da:	71fb      	strb	r3, [r7, #7]
 80019dc:	4613      	mov	r3, r2
 80019de:	71bb      	strb	r3, [r7, #6]
  uint8_t stepModeRegister;
  L6474_STEP_SEL_t l6474StepMod;
  
  switch (stepMod)
 80019e0:	79bb      	ldrb	r3, [r7, #6]
 80019e2:	2b03      	cmp	r3, #3
 80019e4:	d816      	bhi.n	8001a14 <L6474_SelectStepMode+0x44>
 80019e6:	a201      	add	r2, pc, #4	; (adr r2, 80019ec <L6474_SelectStepMode+0x1c>)
 80019e8:	f852 f023 	ldr.w	pc, [r2, r3, lsl #2]
 80019ec:	080019fd 	.word	0x080019fd
 80019f0:	08001a03 	.word	0x08001a03
 80019f4:	08001a09 	.word	0x08001a09
 80019f8:	08001a0f 	.word	0x08001a0f
  {
    case STEP_MODE_FULL:
      l6474StepMod = L6474_STEP_SEL_1;
 80019fc:	2308      	movs	r3, #8
 80019fe:	73fb      	strb	r3, [r7, #15]
      break;
 8001a00:	e00b      	b.n	8001a1a <L6474_SelectStepMode+0x4a>
    case STEP_MODE_HALF:
      l6474StepMod = L6474_STEP_SEL_1_2;
 8001a02:	2309      	movs	r3, #9
 8001a04:	73fb      	strb	r3, [r7, #15]
      break;    
 8001a06:	e008      	b.n	8001a1a <L6474_SelectStepMode+0x4a>
    case STEP_MODE_1_4:
      l6474StepMod = L6474_STEP_SEL_1_4;
 8001a08:	230a      	movs	r3, #10
 8001a0a:	73fb      	strb	r3, [r7, #15]
      break;        
 8001a0c:	e005      	b.n	8001a1a <L6474_SelectStepMode+0x4a>
    case STEP_MODE_1_8:
      l6474StepMod = L6474_STEP_SEL_1_8;
 8001a0e:	230b      	movs	r3, #11
 8001a10:	73fb      	strb	r3, [r7, #15]
      break;       
 8001a12:	e002      	b.n	8001a1a <L6474_SelectStepMode+0x4a>
    case STEP_MODE_1_16:
    default:
      l6474StepMod = L6474_STEP_SEL_1_16;
 8001a14:	230c      	movs	r3, #12
 8001a16:	73fb      	strb	r3, [r7, #15]
      break;       
 8001a18:	bf00      	nop
  }

  /* Eventually deactivate motor */
  if (devicePrm[deviceId].motionState != INACTIVE) 
 8001a1a:	79fa      	ldrb	r2, [r7, #7]
 8001a1c:	4915      	ldr	r1, [pc, #84]	; (8001a74 <L6474_SelectStepMode+0xa4>)
 8001a1e:	4613      	mov	r3, r2
 8001a20:	009b      	lsls	r3, r3, #2
 8001a22:	4413      	add	r3, r2
 8001a24:	00db      	lsls	r3, r3, #3
 8001a26:	440b      	add	r3, r1
 8001a28:	3324      	adds	r3, #36	; 0x24
 8001a2a:	781b      	ldrb	r3, [r3, #0]
 8001a2c:	b2db      	uxtb	r3, r3
 8001a2e:	2b08      	cmp	r3, #8
 8001a30:	d003      	beq.n	8001a3a <L6474_SelectStepMode+0x6a>
  {
    L6474_HardStop(deviceId);
 8001a32:	79fb      	ldrb	r3, [r7, #7]
 8001a34:	4618      	mov	r0, r3
 8001a36:	f7ff fad1 	bl	8000fdc <L6474_HardStop>
  }
  
  /* Read Step mode register and clear STEP_SEL field */
  stepModeRegister = (uint8_t)(0xF8 & L6474_CmdGetParam(deviceId,L6474_STEP_MODE)) ;
 8001a3a:	79fb      	ldrb	r3, [r7, #7]
 8001a3c:	2116      	movs	r1, #22
 8001a3e:	4618      	mov	r0, r3
 8001a40:	f7ff fd3e 	bl	80014c0 <L6474_CmdGetParam>
 8001a44:	4603      	mov	r3, r0
 8001a46:	b2db      	uxtb	r3, r3
 8001a48:	f023 0307 	bic.w	r3, r3, #7
 8001a4c:	73bb      	strb	r3, [r7, #14]
  
  /* Apply new step mode */
  L6474_CmdSetParam(deviceId, L6474_STEP_MODE, stepModeRegister | (uint8_t)l6474StepMod);
 8001a4e:	7bba      	ldrb	r2, [r7, #14]
 8001a50:	7bfb      	ldrb	r3, [r7, #15]
 8001a52:	4313      	orrs	r3, r2
 8001a54:	b2db      	uxtb	r3, r3
 8001a56:	461a      	mov	r2, r3
 8001a58:	79fb      	ldrb	r3, [r7, #7]
 8001a5a:	2116      	movs	r1, #22
 8001a5c:	4618      	mov	r0, r3
 8001a5e:	f7ff feb7 	bl	80017d0 <L6474_CmdSetParam>

  /* Reset abs pos register */
  L6474_SetHome(deviceId);
 8001a62:	79fb      	ldrb	r3, [r7, #7]
 8001a64:	4618      	mov	r0, r3
 8001a66:	f7ff fc19 	bl	800129c <L6474_SetHome>
}
 8001a6a:	bf00      	nop
 8001a6c:	3710      	adds	r7, #16
 8001a6e:	46bd      	mov	sp, r7
 8001a70:	bd80      	pop	{r7, pc}
 8001a72:	bf00      	nop
 8001a74:	20001100 	.word	0x20001100

08001a78 <L6474_SetDirection>:
 * @note The direction change is only applied if the device 
 * is in INACTIVE state
 * @retval None
 **********************************************************/
void L6474_SetDirection(uint8_t deviceId, motorDir_t dir)
{
 8001a78:	b580      	push	{r7, lr}
 8001a7a:	b082      	sub	sp, #8
 8001a7c:	af00      	add	r7, sp, #0
 8001a7e:	4603      	mov	r3, r0
 8001a80:	460a      	mov	r2, r1
 8001a82:	71fb      	strb	r3, [r7, #7]
 8001a84:	4613      	mov	r3, r2
 8001a86:	71bb      	strb	r3, [r7, #6]
  if (devicePrm[deviceId].motionState == INACTIVE)
 8001a88:	79fa      	ldrb	r2, [r7, #7]
 8001a8a:	490f      	ldr	r1, [pc, #60]	; (8001ac8 <L6474_SetDirection+0x50>)
 8001a8c:	4613      	mov	r3, r2
 8001a8e:	009b      	lsls	r3, r3, #2
 8001a90:	4413      	add	r3, r2
 8001a92:	00db      	lsls	r3, r3, #3
 8001a94:	440b      	add	r3, r1
 8001a96:	3324      	adds	r3, #36	; 0x24
 8001a98:	781b      	ldrb	r3, [r3, #0]
 8001a9a:	b2db      	uxtb	r3, r3
 8001a9c:	2b08      	cmp	r3, #8
 8001a9e:	d10f      	bne.n	8001ac0 <L6474_SetDirection+0x48>
  {
    devicePrm[deviceId].direction = dir;
 8001aa0:	79fa      	ldrb	r2, [r7, #7]
 8001aa2:	4909      	ldr	r1, [pc, #36]	; (8001ac8 <L6474_SetDirection+0x50>)
 8001aa4:	4613      	mov	r3, r2
 8001aa6:	009b      	lsls	r3, r3, #2
 8001aa8:	4413      	add	r3, r2
 8001aaa:	00db      	lsls	r3, r3, #3
 8001aac:	440b      	add	r3, r1
 8001aae:	3323      	adds	r3, #35	; 0x23
 8001ab0:	79ba      	ldrb	r2, [r7, #6]
 8001ab2:	701a      	strb	r2, [r3, #0]
    BSP_MotorControlBoard_SetDirectionGpio(deviceId, dir);
 8001ab4:	79ba      	ldrb	r2, [r7, #6]
 8001ab6:	79fb      	ldrb	r3, [r7, #7]
 8001ab8:	4611      	mov	r1, r2
 8001aba:	4618      	mov	r0, r3
 8001abc:	f002 fb16 	bl	80040ec <BSP_MotorControlBoard_SetDirectionGpio>
  }
}
 8001ac0:	bf00      	nop
 8001ac2:	3708      	adds	r7, #8
 8001ac4:	46bd      	mov	sp, r7
 8001ac6:	bd80      	pop	{r7, pc}
 8001ac8:	20001100 	.word	0x20001100

08001acc <L6474_ApplySpeed>:
 * @param[in] deviceId (from 0 to 2)
 * @param[in] newSpeed in pps
 * @retval None
 **********************************************************/
void L6474_ApplySpeed(uint8_t deviceId, uint16_t newSpeed)
{
 8001acc:	b580      	push	{r7, lr}
 8001ace:	b082      	sub	sp, #8
 8001ad0:	af00      	add	r7, sp, #0
 8001ad2:	4603      	mov	r3, r0
 8001ad4:	460a      	mov	r2, r1
 8001ad6:	71fb      	strb	r3, [r7, #7]
 8001ad8:	4613      	mov	r3, r2
 8001ada:	80bb      	strh	r3, [r7, #4]
  if (newSpeed < L6474_MIN_PWM_FREQ)
 8001adc:	88bb      	ldrh	r3, [r7, #4]
 8001ade:	2b01      	cmp	r3, #1
 8001ae0:	d801      	bhi.n	8001ae6 <L6474_ApplySpeed+0x1a>
  {
    newSpeed = L6474_MIN_PWM_FREQ;  
 8001ae2:	2302      	movs	r3, #2
 8001ae4:	80bb      	strh	r3, [r7, #4]
  }
  if (newSpeed > L6474_MAX_PWM_FREQ)
 8001ae6:	88bb      	ldrh	r3, [r7, #4]
 8001ae8:	f242 7210 	movw	r2, #10000	; 0x2710
 8001aec:	4293      	cmp	r3, r2
 8001aee:	d902      	bls.n	8001af6 <L6474_ApplySpeed+0x2a>
  {
    newSpeed = L6474_MAX_PWM_FREQ;
 8001af0:	f242 7310 	movw	r3, #10000	; 0x2710
 8001af4:	80bb      	strh	r3, [r7, #4]
  }
  
  devicePrm[deviceId].speed = newSpeed;
 8001af6:	79fa      	ldrb	r2, [r7, #7]
 8001af8:	491f      	ldr	r1, [pc, #124]	; (8001b78 <L6474_ApplySpeed+0xac>)
 8001afa:	4613      	mov	r3, r2
 8001afc:	009b      	lsls	r3, r3, #2
 8001afe:	4413      	add	r3, r2
 8001b00:	00db      	lsls	r3, r3, #3
 8001b02:	440b      	add	r3, r1
 8001b04:	3320      	adds	r3, #32
 8001b06:	88ba      	ldrh	r2, [r7, #4]
 8001b08:	801a      	strh	r2, [r3, #0]

  switch (deviceId)
 8001b0a:	79fb      	ldrb	r3, [r7, #7]
 8001b0c:	2b05      	cmp	r3, #5
 8001b0e:	d82d      	bhi.n	8001b6c <L6474_ApplySpeed+0xa0>
 8001b10:	a201      	add	r2, pc, #4	; (adr r2, 8001b18 <L6474_ApplySpeed+0x4c>)
 8001b12:	f852 f023 	ldr.w	pc, [r2, r3, lsl #2]
 8001b16:	bf00      	nop
 8001b18:	08001b31 	.word	0x08001b31
 8001b1c:	08001b3b 	.word	0x08001b3b
 8001b20:	08001b45 	.word	0x08001b45
 8001b24:	08001b4f 	.word	0x08001b4f
 8001b28:	08001b59 	.word	0x08001b59
 8001b2c:	08001b63 	.word	0x08001b63
  {
    case  0:
      BSP_MotorControlBoard_PwmXSetFreq(newSpeed);
 8001b30:	88bb      	ldrh	r3, [r7, #4]
 8001b32:	4618      	mov	r0, r3
 8001b34:	f002 f8cc 	bl	8003cd0 <BSP_MotorControlBoard_PwmXSetFreq>
      break;
 8001b38:	e019      	b.n	8001b6e <L6474_ApplySpeed+0xa2>
    case 1:
      BSP_MotorControlBoard_PwmYSetFreq(newSpeed);
 8001b3a:	88bb      	ldrh	r3, [r7, #4]
 8001b3c:	4618      	mov	r0, r3
 8001b3e:	f002 f8ef 	bl	8003d20 <BSP_MotorControlBoard_PwmYSetFreq>
      break;
 8001b42:	e014      	b.n	8001b6e <L6474_ApplySpeed+0xa2>
    case 2:
      BSP_MotorControlBoard_PwmZSetFreq(newSpeed);
 8001b44:	88bb      	ldrh	r3, [r7, #4]
 8001b46:	4618      	mov	r0, r3
 8001b48:	f002 f912 	bl	8003d70 <BSP_MotorControlBoard_PwmZSetFreq>
      break;
 8001b4c:	e00f      	b.n	8001b6e <L6474_ApplySpeed+0xa2>
    case 3:
      BSP_MotorControlBoard_PwmE1SetFreq(newSpeed);
 8001b4e:	88bb      	ldrh	r3, [r7, #4]
 8001b50:	4618      	mov	r0, r3
 8001b52:	f002 f933 	bl	8003dbc <BSP_MotorControlBoard_PwmE1SetFreq>
      break;
 8001b56:	e00a      	b.n	8001b6e <L6474_ApplySpeed+0xa2>
    case 4:
      BSP_MotorControlBoard_PwmE2SetFreq(newSpeed);
 8001b58:	88bb      	ldrh	r3, [r7, #4]
 8001b5a:	4618      	mov	r0, r3
 8001b5c:	f002 f954 	bl	8003e08 <BSP_MotorControlBoard_PwmE2SetFreq>
      break;
 8001b60:	e005      	b.n	8001b6e <L6474_ApplySpeed+0xa2>
    case 5:
      BSP_MotorControlBoard_PwmE3SetFreq(newSpeed);
 8001b62:	88bb      	ldrh	r3, [r7, #4]
 8001b64:	4618      	mov	r0, r3
 8001b66:	f002 f975 	bl	8003e54 <BSP_MotorControlBoard_PwmE3SetFreq>
      break;
 8001b6a:	e000      	b.n	8001b6e <L6474_ApplySpeed+0xa2>
    default:
      break; //ignore error
 8001b6c:	bf00      	nop
  }
}
 8001b6e:	bf00      	nop
 8001b70:	3708      	adds	r7, #8
 8001b72:	46bd      	mov	sp, r7
 8001b74:	bd80      	pop	{r7, pc}
 8001b76:	bf00      	nop
 8001b78:	20001100 	.word	0x20001100

08001b7c <L6474_ComputeSpeedProfile>:
 * speed.
 * Else, a triangular move is performed (no steady phase: the maximum speed is never
 * reached.
 **********************************************************/
void L6474_ComputeSpeedProfile(uint8_t deviceId, uint32_t nbSteps)
{
 8001b7c:	b480      	push	{r7}
 8001b7e:	b089      	sub	sp, #36	; 0x24
 8001b80:	af00      	add	r7, sp, #0
 8001b82:	4603      	mov	r3, r0
 8001b84:	6039      	str	r1, [r7, #0]
 8001b86:	71fb      	strb	r3, [r7, #7]
  uint32_t reqAccSteps; 
	uint32_t reqDecSteps;
   
  /* compute the number of steps to get the targeted speed */
  uint16_t minSpeed = devicePrm[deviceId].minSpeed;
 8001b88:	79fa      	ldrb	r2, [r7, #7]
 8001b8a:	495a      	ldr	r1, [pc, #360]	; (8001cf4 <L6474_ComputeSpeedProfile+0x178>)
 8001b8c:	4613      	mov	r3, r2
 8001b8e:	009b      	lsls	r3, r3, #2
 8001b90:	4413      	add	r3, r2
 8001b92:	00db      	lsls	r3, r3, #3
 8001b94:	440b      	add	r3, r1
 8001b96:	331e      	adds	r3, #30
 8001b98:	881b      	ldrh	r3, [r3, #0]
 8001b9a:	837b      	strh	r3, [r7, #26]
  reqAccSteps = (devicePrm[deviceId].maxSpeed - minSpeed);
 8001b9c:	79fa      	ldrb	r2, [r7, #7]
 8001b9e:	4955      	ldr	r1, [pc, #340]	; (8001cf4 <L6474_ComputeSpeedProfile+0x178>)
 8001ba0:	4613      	mov	r3, r2
 8001ba2:	009b      	lsls	r3, r3, #2
 8001ba4:	4413      	add	r3, r2
 8001ba6:	00db      	lsls	r3, r3, #3
 8001ba8:	440b      	add	r3, r1
 8001baa:	331c      	adds	r3, #28
 8001bac:	881b      	ldrh	r3, [r3, #0]
 8001bae:	b29b      	uxth	r3, r3
 8001bb0:	461a      	mov	r2, r3
 8001bb2:	8b7b      	ldrh	r3, [r7, #26]
 8001bb4:	1ad3      	subs	r3, r2, r3
 8001bb6:	61fb      	str	r3, [r7, #28]
  reqAccSteps *= (devicePrm[deviceId].maxSpeed + minSpeed);
 8001bb8:	79fa      	ldrb	r2, [r7, #7]
 8001bba:	494e      	ldr	r1, [pc, #312]	; (8001cf4 <L6474_ComputeSpeedProfile+0x178>)
 8001bbc:	4613      	mov	r3, r2
 8001bbe:	009b      	lsls	r3, r3, #2
 8001bc0:	4413      	add	r3, r2
 8001bc2:	00db      	lsls	r3, r3, #3
 8001bc4:	440b      	add	r3, r1
 8001bc6:	331c      	adds	r3, #28
 8001bc8:	881b      	ldrh	r3, [r3, #0]
 8001bca:	b29b      	uxth	r3, r3
 8001bcc:	461a      	mov	r2, r3
 8001bce:	8b7b      	ldrh	r3, [r7, #26]
 8001bd0:	4413      	add	r3, r2
 8001bd2:	461a      	mov	r2, r3
 8001bd4:	69fb      	ldr	r3, [r7, #28]
 8001bd6:	fb02 f303 	mul.w	r3, r2, r3
 8001bda:	61fb      	str	r3, [r7, #28]
  reqDecSteps = reqAccSteps;
 8001bdc:	69fb      	ldr	r3, [r7, #28]
 8001bde:	617b      	str	r3, [r7, #20]
  reqAccSteps /= (uint32_t)devicePrm[deviceId].acceleration;
 8001be0:	79fa      	ldrb	r2, [r7, #7]
 8001be2:	4944      	ldr	r1, [pc, #272]	; (8001cf4 <L6474_ComputeSpeedProfile+0x178>)
 8001be4:	4613      	mov	r3, r2
 8001be6:	009b      	lsls	r3, r3, #2
 8001be8:	4413      	add	r3, r2
 8001bea:	00db      	lsls	r3, r3, #3
 8001bec:	440b      	add	r3, r1
 8001bee:	3318      	adds	r3, #24
 8001bf0:	881b      	ldrh	r3, [r3, #0]
 8001bf2:	b29b      	uxth	r3, r3
 8001bf4:	461a      	mov	r2, r3
 8001bf6:	69fb      	ldr	r3, [r7, #28]
 8001bf8:	fbb3 f3f2 	udiv	r3, r3, r2
 8001bfc:	61fb      	str	r3, [r7, #28]
  reqAccSteps /= 2;
 8001bfe:	69fb      	ldr	r3, [r7, #28]
 8001c00:	085b      	lsrs	r3, r3, #1
 8001c02:	61fb      	str	r3, [r7, #28]

  /* compute the number of steps to stop */
  reqDecSteps /= (uint32_t)devicePrm[deviceId].deceleration;
 8001c04:	79fa      	ldrb	r2, [r7, #7]
 8001c06:	493b      	ldr	r1, [pc, #236]	; (8001cf4 <L6474_ComputeSpeedProfile+0x178>)
 8001c08:	4613      	mov	r3, r2
 8001c0a:	009b      	lsls	r3, r3, #2
 8001c0c:	4413      	add	r3, r2
 8001c0e:	00db      	lsls	r3, r3, #3
 8001c10:	440b      	add	r3, r1
 8001c12:	331a      	adds	r3, #26
 8001c14:	881b      	ldrh	r3, [r3, #0]
 8001c16:	b29b      	uxth	r3, r3
 8001c18:	461a      	mov	r2, r3
 8001c1a:	697b      	ldr	r3, [r7, #20]
 8001c1c:	fbb3 f3f2 	udiv	r3, r3, r2
 8001c20:	617b      	str	r3, [r7, #20]
  reqDecSteps /= 2;
 8001c22:	697b      	ldr	r3, [r7, #20]
 8001c24:	085b      	lsrs	r3, r3, #1
 8001c26:	617b      	str	r3, [r7, #20]

	if(( reqAccSteps + reqDecSteps ) > nbSteps)
 8001c28:	69fa      	ldr	r2, [r7, #28]
 8001c2a:	697b      	ldr	r3, [r7, #20]
 8001c2c:	441a      	add	r2, r3
 8001c2e:	683b      	ldr	r3, [r7, #0]
 8001c30:	429a      	cmp	r2, r3
 8001c32:	d942      	bls.n	8001cba <L6474_ComputeSpeedProfile+0x13e>
	{	
    /* Triangular move  */
    /* reqDecSteps = (Pos * Dec) /(Dec+Acc) */
    uint32_t dec = devicePrm[deviceId].deceleration;
 8001c34:	79fa      	ldrb	r2, [r7, #7]
 8001c36:	492f      	ldr	r1, [pc, #188]	; (8001cf4 <L6474_ComputeSpeedProfile+0x178>)
 8001c38:	4613      	mov	r3, r2
 8001c3a:	009b      	lsls	r3, r3, #2
 8001c3c:	4413      	add	r3, r2
 8001c3e:	00db      	lsls	r3, r3, #3
 8001c40:	440b      	add	r3, r1
 8001c42:	331a      	adds	r3, #26
 8001c44:	881b      	ldrh	r3, [r3, #0]
 8001c46:	b29b      	uxth	r3, r3
 8001c48:	613b      	str	r3, [r7, #16]
    uint32_t acc = devicePrm[deviceId].acceleration;
 8001c4a:	79fa      	ldrb	r2, [r7, #7]
 8001c4c:	4929      	ldr	r1, [pc, #164]	; (8001cf4 <L6474_ComputeSpeedProfile+0x178>)
 8001c4e:	4613      	mov	r3, r2
 8001c50:	009b      	lsls	r3, r3, #2
 8001c52:	4413      	add	r3, r2
 8001c54:	00db      	lsls	r3, r3, #3
 8001c56:	440b      	add	r3, r1
 8001c58:	3318      	adds	r3, #24
 8001c5a:	881b      	ldrh	r3, [r3, #0]
 8001c5c:	b29b      	uxth	r3, r3
 8001c5e:	60fb      	str	r3, [r7, #12]
    
    reqDecSteps =  ((uint32_t) dec * nbSteps) / (acc + dec);
 8001c60:	693b      	ldr	r3, [r7, #16]
 8001c62:	683a      	ldr	r2, [r7, #0]
 8001c64:	fb02 f203 	mul.w	r2, r2, r3
 8001c68:	68f9      	ldr	r1, [r7, #12]
 8001c6a:	693b      	ldr	r3, [r7, #16]
 8001c6c:	440b      	add	r3, r1
 8001c6e:	fbb2 f3f3 	udiv	r3, r2, r3
 8001c72:	617b      	str	r3, [r7, #20]
    if (reqDecSteps > 1)
 8001c74:	697b      	ldr	r3, [r7, #20]
 8001c76:	2b01      	cmp	r3, #1
 8001c78:	d908      	bls.n	8001c8c <L6474_ComputeSpeedProfile+0x110>
    {
      reqAccSteps = reqDecSteps - 1;
 8001c7a:	697b      	ldr	r3, [r7, #20]
 8001c7c:	3b01      	subs	r3, #1
 8001c7e:	61fb      	str	r3, [r7, #28]
      if(reqAccSteps == 0)
 8001c80:	69fb      	ldr	r3, [r7, #28]
 8001c82:	2b00      	cmp	r3, #0
 8001c84:	d104      	bne.n	8001c90 <L6474_ComputeSpeedProfile+0x114>
      {
        reqAccSteps = 1;
 8001c86:	2301      	movs	r3, #1
 8001c88:	61fb      	str	r3, [r7, #28]
 8001c8a:	e001      	b.n	8001c90 <L6474_ComputeSpeedProfile+0x114>
      }      
    }
    else
    {
      reqAccSteps = 0;
 8001c8c:	2300      	movs	r3, #0
 8001c8e:	61fb      	str	r3, [r7, #28]
    }
    devicePrm[deviceId].endAccPos = reqAccSteps;
 8001c90:	79fa      	ldrb	r2, [r7, #7]
 8001c92:	4918      	ldr	r1, [pc, #96]	; (8001cf4 <L6474_ComputeSpeedProfile+0x178>)
 8001c94:	4613      	mov	r3, r2
 8001c96:	009b      	lsls	r3, r3, #2
 8001c98:	4413      	add	r3, r2
 8001c9a:	00db      	lsls	r3, r3, #3
 8001c9c:	440b      	add	r3, r1
 8001c9e:	3308      	adds	r3, #8
 8001ca0:	69fa      	ldr	r2, [r7, #28]
 8001ca2:	601a      	str	r2, [r3, #0]
    devicePrm[deviceId].startDecPos = reqDecSteps;
 8001ca4:	79fa      	ldrb	r2, [r7, #7]
 8001ca6:	4913      	ldr	r1, [pc, #76]	; (8001cf4 <L6474_ComputeSpeedProfile+0x178>)
 8001ca8:	4613      	mov	r3, r2
 8001caa:	009b      	lsls	r3, r3, #2
 8001cac:	4413      	add	r3, r2
 8001cae:	00db      	lsls	r3, r3, #3
 8001cb0:	440b      	add	r3, r1
 8001cb2:	3310      	adds	r3, #16
 8001cb4:	697a      	ldr	r2, [r7, #20]
 8001cb6:	601a      	str	r2, [r3, #0]
    /* steady phase from  endAccPos to startDecPos */
    /* decelerating from startDecPos to stepsToTake*/
    devicePrm[deviceId].endAccPos = reqAccSteps;
    devicePrm[deviceId].startDecPos = nbSteps - reqDecSteps - 1;
	}
}
 8001cb8:	e016      	b.n	8001ce8 <L6474_ComputeSpeedProfile+0x16c>
    devicePrm[deviceId].endAccPos = reqAccSteps;
 8001cba:	79fa      	ldrb	r2, [r7, #7]
 8001cbc:	490d      	ldr	r1, [pc, #52]	; (8001cf4 <L6474_ComputeSpeedProfile+0x178>)
 8001cbe:	4613      	mov	r3, r2
 8001cc0:	009b      	lsls	r3, r3, #2
 8001cc2:	4413      	add	r3, r2
 8001cc4:	00db      	lsls	r3, r3, #3
 8001cc6:	440b      	add	r3, r1
 8001cc8:	3308      	adds	r3, #8
 8001cca:	69fa      	ldr	r2, [r7, #28]
 8001ccc:	601a      	str	r2, [r3, #0]
    devicePrm[deviceId].startDecPos = nbSteps - reqDecSteps - 1;
 8001cce:	79fa      	ldrb	r2, [r7, #7]
 8001cd0:	6839      	ldr	r1, [r7, #0]
 8001cd2:	697b      	ldr	r3, [r7, #20]
 8001cd4:	1acb      	subs	r3, r1, r3
 8001cd6:	1e59      	subs	r1, r3, #1
 8001cd8:	4806      	ldr	r0, [pc, #24]	; (8001cf4 <L6474_ComputeSpeedProfile+0x178>)
 8001cda:	4613      	mov	r3, r2
 8001cdc:	009b      	lsls	r3, r3, #2
 8001cde:	4413      	add	r3, r2
 8001ce0:	00db      	lsls	r3, r3, #3
 8001ce2:	4403      	add	r3, r0
 8001ce4:	3310      	adds	r3, #16
 8001ce6:	6019      	str	r1, [r3, #0]
}
 8001ce8:	bf00      	nop
 8001cea:	3724      	adds	r7, #36	; 0x24
 8001cec:	46bd      	mov	sp, r7
 8001cee:	f85d 7b04 	ldr.w	r7, [sp], #4
 8001cf2:	4770      	bx	lr
 8001cf4:	20001100 	.word	0x20001100

08001cf8 <L6474_ConvertPosition>:
 * @brief  Converts the ABS_POSITION register value to a 32b signed integer
 * @param[in] abs_position_reg value of the ABS_POSITION register
 * @retval operation_result 32b signed integer corresponding to the absolute position 
 **********************************************************/
int32_t L6474_ConvertPosition(uint32_t abs_position_reg)
{
 8001cf8:	b480      	push	{r7}
 8001cfa:	b085      	sub	sp, #20
 8001cfc:	af00      	add	r7, sp, #0
 8001cfe:	6078      	str	r0, [r7, #4]
	int32_t operation_result;

  if (abs_position_reg & L6474_ABS_POS_SIGN_BIT_MASK) 
 8001d00:	687b      	ldr	r3, [r7, #4]
 8001d02:	f403 1300 	and.w	r3, r3, #2097152	; 0x200000
 8001d06:	2b00      	cmp	r3, #0
 8001d08:	d00d      	beq.n	8001d26 <L6474_ConvertPosition+0x2e>
  {
		/* Negative register value */
		abs_position_reg = ~abs_position_reg;
 8001d0a:	687b      	ldr	r3, [r7, #4]
 8001d0c:	43db      	mvns	r3, r3
 8001d0e:	607b      	str	r3, [r7, #4]
		abs_position_reg += 1;
 8001d10:	687b      	ldr	r3, [r7, #4]
 8001d12:	3301      	adds	r3, #1
 8001d14:	607b      	str	r3, [r7, #4]

		operation_result = (int32_t) (abs_position_reg & L6474_ABS_POS_VALUE_MASK);
 8001d16:	687b      	ldr	r3, [r7, #4]
 8001d18:	f3c3 0315 	ubfx	r3, r3, #0, #22
 8001d1c:	60fb      	str	r3, [r7, #12]
		operation_result = -operation_result;
 8001d1e:	68fb      	ldr	r3, [r7, #12]
 8001d20:	425b      	negs	r3, r3
 8001d22:	60fb      	str	r3, [r7, #12]
 8001d24:	e001      	b.n	8001d2a <L6474_ConvertPosition+0x32>
  } 
  else 
  {
		operation_result = (int32_t) abs_position_reg;
 8001d26:	687b      	ldr	r3, [r7, #4]
 8001d28:	60fb      	str	r3, [r7, #12]
	}
	return operation_result;
 8001d2a:	68fb      	ldr	r3, [r7, #12]
}
 8001d2c:	4618      	mov	r0, r3
 8001d2e:	3714      	adds	r7, #20
 8001d30:	46bd      	mov	sp, r7
 8001d32:	f85d 7b04 	ldr.w	r7, [sp], #4
 8001d36:	4770      	bx	lr

08001d38 <L6474_ErrorHandler>:
 * @brief Error handler which calls the user callback (if defined)
 * @param[in] error Number of the error
 * @retval None
 **********************************************************/
void L6474_ErrorHandler(uint16_t error)
{
 8001d38:	b580      	push	{r7, lr}
 8001d3a:	b082      	sub	sp, #8
 8001d3c:	af00      	add	r7, sp, #0
 8001d3e:	4603      	mov	r3, r0
 8001d40:	80fb      	strh	r3, [r7, #6]
  if (errorHandlerCallback != 0)
 8001d42:	4b07      	ldr	r3, [pc, #28]	; (8001d60 <L6474_ErrorHandler+0x28>)
 8001d44:	681b      	ldr	r3, [r3, #0]
 8001d46:	2b00      	cmp	r3, #0
 8001d48:	d005      	beq.n	8001d56 <L6474_ErrorHandler+0x1e>
  {
    (void) errorHandlerCallback(error);
 8001d4a:	4b05      	ldr	r3, [pc, #20]	; (8001d60 <L6474_ErrorHandler+0x28>)
 8001d4c:	681b      	ldr	r3, [r3, #0]
 8001d4e:	88fa      	ldrh	r2, [r7, #6]
 8001d50:	4610      	mov	r0, r2
 8001d52:	4798      	blx	r3
    while(1)
    {
      /* Infinite loop */
    }
  }
}
 8001d54:	e000      	b.n	8001d58 <L6474_ErrorHandler+0x20>
    while(1)
 8001d56:	e7fe      	b.n	8001d56 <L6474_ErrorHandler+0x1e>
}
 8001d58:	3708      	adds	r7, #8
 8001d5a:	46bd      	mov	sp, r7
 8001d5c:	bd80      	pop	{r7, pc}
 8001d5e:	bf00      	nop
 8001d60:	20001218 	.word	0x20001218

08001d64 <L6474_FlagInterruptHandler>:
 * @brief  Handlers of the flag interrupt which calls the user callback (if defined)
 * @param None
 * @retval None
 **********************************************************/
void L6474_FlagInterruptHandler(void)
{
 8001d64:	b580      	push	{r7, lr}
 8001d66:	af00      	add	r7, sp, #0
  if (flagInterruptCallback != 0)
 8001d68:	4b07      	ldr	r3, [pc, #28]	; (8001d88 <L6474_FlagInterruptHandler+0x24>)
 8001d6a:	681b      	ldr	r3, [r3, #0]
 8001d6c:	2b00      	cmp	r3, #0
 8001d6e:	d008      	beq.n	8001d82 <L6474_FlagInterruptHandler+0x1e>
  {
    /* Set isr flag */
    isrFlag = TRUE;
 8001d70:	4b06      	ldr	r3, [pc, #24]	; (8001d8c <L6474_FlagInterruptHandler+0x28>)
 8001d72:	2201      	movs	r2, #1
 8001d74:	701a      	strb	r2, [r3, #0]
    
    flagInterruptCallback();
 8001d76:	4b04      	ldr	r3, [pc, #16]	; (8001d88 <L6474_FlagInterruptHandler+0x24>)
 8001d78:	681b      	ldr	r3, [r3, #0]
 8001d7a:	4798      	blx	r3
    
    /* Reset isr flag */
    isrFlag = FALSE;   
 8001d7c:	4b03      	ldr	r3, [pc, #12]	; (8001d8c <L6474_FlagInterruptHandler+0x28>)
 8001d7e:	2200      	movs	r2, #0
 8001d80:	701a      	strb	r2, [r3, #0]
  }
}
 8001d82:	bf00      	nop
 8001d84:	bd80      	pop	{r7, pc}
 8001d86:	bf00      	nop
 8001d88:	2000121c 	.word	0x2000121c
 8001d8c:	20000519 	.word	0x20000519

08001d90 <L6474_SendCommand>:
 * @param[in] deviceId (from 0 to 2)
 * @param[in] param Command to send 
 * @retval None
 **********************************************************/
void L6474_SendCommand(uint8_t deviceId, uint8_t param)
{
 8001d90:	b580      	push	{r7, lr}
 8001d92:	b084      	sub	sp, #16
 8001d94:	af00      	add	r7, sp, #0
 8001d96:	4603      	mov	r3, r0
 8001d98:	460a      	mov	r2, r1
 8001d9a:	71fb      	strb	r3, [r7, #7]
 8001d9c:	4613      	mov	r3, r2
 8001d9e:	71bb      	strb	r3, [r7, #6]
  uint32_t i;
  uint8_t spiIndex = numberOfDevices - deviceId - 1;
 8001da0:	4b1f      	ldr	r3, [pc, #124]	; (8001e20 <L6474_SendCommand+0x90>)
 8001da2:	781b      	ldrb	r3, [r3, #0]
 8001da4:	b2da      	uxtb	r2, r3
 8001da6:	79fb      	ldrb	r3, [r7, #7]
 8001da8:	1ad3      	subs	r3, r2, r3
 8001daa:	b2db      	uxtb	r3, r3
 8001dac:	3b01      	subs	r3, #1
 8001dae:	72bb      	strb	r3, [r7, #10]
  bool itDisable = FALSE;  
 8001db0:	2300      	movs	r3, #0
 8001db2:	72fb      	strb	r3, [r7, #11]
  
  do
  {
    spiPreemtionByIsr = FALSE;
 8001db4:	4b1b      	ldr	r3, [pc, #108]	; (8001e24 <L6474_SendCommand+0x94>)
 8001db6:	2200      	movs	r2, #0
 8001db8:	701a      	strb	r2, [r3, #0]
    if (itDisable)
 8001dba:	7afb      	ldrb	r3, [r7, #11]
 8001dbc:	2b00      	cmp	r3, #0
 8001dbe:	d003      	beq.n	8001dc8 <L6474_SendCommand+0x38>
    {
      /* re-enable BSP_MotorControlBoard_EnableIrq if disable in previous iteration */
      BSP_MotorControlBoard_EnableIrq();
 8001dc0:	f001 fe63 	bl	8003a8a <BSP_MotorControlBoard_EnableIrq>
      itDisable = FALSE;
 8001dc4:	2300      	movs	r3, #0
 8001dc6:	72fb      	strb	r3, [r7, #11]
    }
  
    for (i = 0; i < numberOfDevices; i++)
 8001dc8:	2300      	movs	r3, #0
 8001dca:	60fb      	str	r3, [r7, #12]
 8001dcc:	e008      	b.n	8001de0 <L6474_SendCommand+0x50>
    {
      spiTxBursts[3][i] = L6474_NOP;     
 8001dce:	4a16      	ldr	r2, [pc, #88]	; (8001e28 <L6474_SendCommand+0x98>)
 8001dd0:	68fb      	ldr	r3, [r7, #12]
 8001dd2:	4413      	add	r3, r2
 8001dd4:	3315      	adds	r3, #21
 8001dd6:	2200      	movs	r2, #0
 8001dd8:	701a      	strb	r2, [r3, #0]
    for (i = 0; i < numberOfDevices; i++)
 8001dda:	68fb      	ldr	r3, [r7, #12]
 8001ddc:	3301      	adds	r3, #1
 8001dde:	60fb      	str	r3, [r7, #12]
 8001de0:	4b0f      	ldr	r3, [pc, #60]	; (8001e20 <L6474_SendCommand+0x90>)
 8001de2:	781b      	ldrb	r3, [r3, #0]
 8001de4:	b2db      	uxtb	r3, r3
 8001de6:	461a      	mov	r2, r3
 8001de8:	68fb      	ldr	r3, [r7, #12]
 8001dea:	429a      	cmp	r2, r3
 8001dec:	d8ef      	bhi.n	8001dce <L6474_SendCommand+0x3e>
    }
    spiTxBursts[3][spiIndex] = param;
 8001dee:	7abb      	ldrb	r3, [r7, #10]
 8001df0:	4a0d      	ldr	r2, [pc, #52]	; (8001e28 <L6474_SendCommand+0x98>)
 8001df2:	4413      	add	r3, r2
 8001df4:	79ba      	ldrb	r2, [r7, #6]
 8001df6:	755a      	strb	r2, [r3, #21]
    
    /* Disable interruption before checking */
    /* pre-emption by ISR and SPI transfers*/
    BSP_MotorControlBoard_DisableIrq();
 8001df8:	f001 fe3f 	bl	8003a7a <BSP_MotorControlBoard_DisableIrq>
    itDisable = TRUE;
 8001dfc:	2301      	movs	r3, #1
 8001dfe:	72fb      	strb	r3, [r7, #11]
  } while (spiPreemtionByIsr); // check pre-emption by ISR
 8001e00:	4b08      	ldr	r3, [pc, #32]	; (8001e24 <L6474_SendCommand+0x94>)
 8001e02:	781b      	ldrb	r3, [r3, #0]
 8001e04:	b2db      	uxtb	r3, r3
 8001e06:	2b00      	cmp	r3, #0
 8001e08:	d1d4      	bne.n	8001db4 <L6474_SendCommand+0x24>

  L6474_WriteBytes(&spiTxBursts[3][0], &spiRxBursts[3][0]); 
 8001e0a:	4908      	ldr	r1, [pc, #32]	; (8001e2c <L6474_SendCommand+0x9c>)
 8001e0c:	4808      	ldr	r0, [pc, #32]	; (8001e30 <L6474_SendCommand+0xa0>)
 8001e0e:	f000 fe65 	bl	8002adc <L6474_WriteBytes>
  
  /* re-enable BSP_MotorControlBoard_EnableIrq after SPI transfers*/
  BSP_MotorControlBoard_EnableIrq();
 8001e12:	f001 fe3a 	bl	8003a8a <BSP_MotorControlBoard_EnableIrq>
}
 8001e16:	bf00      	nop
 8001e18:	3710      	adds	r7, #16
 8001e1a:	46bd      	mov	sp, r7
 8001e1c:	bd80      	pop	{r7, pc}
 8001e1e:	bf00      	nop
 8001e20:	200004dc 	.word	0x200004dc
 8001e24:	20000518 	.word	0x20000518
 8001e28:	200004e0 	.word	0x200004e0
 8001e2c:	20000511 	.word	0x20000511
 8001e30:	200004f5 	.word	0x200004f5
 8001e34:	00000000 	.word	0x00000000

08001e38 <L6474_SetRegisterToPredefinedValues>:
 * from l6474_target_config.h
 * @param[in] deviceId (from 0 to 2)
 * @retval None
 **********************************************************/
void L6474_SetRegisterToPredefinedValues(uint8_t deviceId)
{
 8001e38:	b580      	push	{r7, lr}
 8001e3a:	b082      	sub	sp, #8
 8001e3c:	af00      	add	r7, sp, #0
 8001e3e:	4603      	mov	r3, r0
 8001e40:	71fb      	strb	r3, [r7, #7]
  L6474_CmdSetParam(deviceId,
 8001e42:	79fb      	ldrb	r3, [r7, #7]
 8001e44:	2200      	movs	r2, #0
 8001e46:	2101      	movs	r1, #1
 8001e48:	4618      	mov	r0, r3
 8001e4a:	f7ff fcc1 	bl	80017d0 <L6474_CmdSetParam>
                    L6474_ABS_POS,
                    0);
  L6474_CmdSetParam(deviceId,
 8001e4e:	79fb      	ldrb	r3, [r7, #7]
 8001e50:	2200      	movs	r2, #0
 8001e52:	2102      	movs	r1, #2
 8001e54:	4618      	mov	r0, r3
 8001e56:	f7ff fcbb 	bl	80017d0 <L6474_CmdSetParam>
                    L6474_EL_POS,
                    0);
  L6474_CmdSetParam(deviceId,
 8001e5a:	79fb      	ldrb	r3, [r7, #7]
 8001e5c:	2200      	movs	r2, #0
 8001e5e:	2103      	movs	r1, #3
 8001e60:	4618      	mov	r0, r3
 8001e62:	f7ff fcb5 	bl	80017d0 <L6474_CmdSetParam>
                    L6474_MARK,
                    0);
  switch (deviceId)
 8001e66:	79fb      	ldrb	r3, [r7, #7]
 8001e68:	2b06      	cmp	r3, #6
 8001e6a:	f200 81ee 	bhi.w	800224a <L6474_SetRegisterToPredefinedValues+0x412>
 8001e6e:	a201      	add	r2, pc, #4	; (adr r2, 8001e74 <L6474_SetRegisterToPredefinedValues+0x3c>)
 8001e70:	f852 f023 	ldr.w	pc, [r2, r3, lsl #2]
 8001e74:	08001e91 	.word	0x08001e91
 8001e78:	08001f13 	.word	0x08001f13
 8001e7c:	08001f95 	.word	0x08001f95
 8001e80:	08002017 	.word	0x08002017
 8001e84:	08002099 	.word	0x08002099
 8001e88:	0800211b 	.word	0x0800211b
 8001e8c:	080021c9 	.word	0x080021c9
  {
    case 0:
      L6474_CmdSetParam(deviceId,
                        L6474_TVAL,
                        L6474_Tval_Current_to_Par(L6474_CONF_PARAM_TVAL_DEVICE_0));
 8001e90:	ed9f 0bc7 	vldr	d0, [pc, #796]	; 80021b0 <L6474_SetRegisterToPredefinedValues+0x378>
 8001e94:	f000 fdc8 	bl	8002a28 <L6474_Tval_Current_to_Par>
 8001e98:	4603      	mov	r3, r0
      L6474_CmdSetParam(deviceId,
 8001e9a:	461a      	mov	r2, r3
 8001e9c:	79fb      	ldrb	r3, [r7, #7]
 8001e9e:	2109      	movs	r1, #9
 8001ea0:	4618      	mov	r0, r3
 8001ea2:	f7ff fc95 	bl	80017d0 <L6474_CmdSetParam>
      L6474_CmdSetParam(deviceId,
 8001ea6:	79fb      	ldrb	r3, [r7, #7]
 8001ea8:	2235      	movs	r2, #53	; 0x35
 8001eaa:	210e      	movs	r1, #14
 8001eac:	4618      	mov	r0, r3
 8001eae:	f7ff fc8f 	bl	80017d0 <L6474_CmdSetParam>
                              L6474_T_FAST,
                              (uint8_t)L6474_CONF_PARAM_TOFF_FAST_DEVICE_0 |
                              (uint8_t)L6474_CONF_PARAM_FAST_STEP_DEVICE_0);
      L6474_CmdSetParam(deviceId,
                              L6474_TON_MIN,
                              L6474_Tmin_Time_to_Par(L6474_CONF_PARAM_TON_MIN_DEVICE_0)
 8001eb2:	ed9f 0bc1 	vldr	d0, [pc, #772]	; 80021b8 <L6474_SetRegisterToPredefinedValues+0x380>
 8001eb6:	f000 fde5 	bl	8002a84 <L6474_Tmin_Time_to_Par>
 8001eba:	4603      	mov	r3, r0
      L6474_CmdSetParam(deviceId,
 8001ebc:	461a      	mov	r2, r3
 8001ebe:	79fb      	ldrb	r3, [r7, #7]
 8001ec0:	210f      	movs	r1, #15
 8001ec2:	4618      	mov	r0, r3
 8001ec4:	f7ff fc84 	bl	80017d0 <L6474_CmdSetParam>
                                );
      L6474_CmdSetParam(deviceId,
                              L6474_TOFF_MIN,
                              L6474_Tmin_Time_to_Par(L6474_CONF_PARAM_TOFF_MIN_DEVICE_0));
 8001ec8:	ed9f 0bbd 	vldr	d0, [pc, #756]	; 80021c0 <L6474_SetRegisterToPredefinedValues+0x388>
 8001ecc:	f000 fdda 	bl	8002a84 <L6474_Tmin_Time_to_Par>
 8001ed0:	4603      	mov	r3, r0
      L6474_CmdSetParam(deviceId,
 8001ed2:	461a      	mov	r2, r3
 8001ed4:	79fb      	ldrb	r3, [r7, #7]
 8001ed6:	2110      	movs	r1, #16
 8001ed8:	4618      	mov	r0, r3
 8001eda:	f7ff fc79 	bl	80017d0 <L6474_CmdSetParam>
      L6474_CmdSetParam(deviceId,
 8001ede:	79fb      	ldrb	r3, [r7, #7]
 8001ee0:	2202      	movs	r2, #2
 8001ee2:	2113      	movs	r1, #19
 8001ee4:	4618      	mov	r0, r3
 8001ee6:	f7ff fc73 	bl	80017d0 <L6474_CmdSetParam>
                        L6474_OCD_TH,
                        L6474_CONF_PARAM_OCD_TH_DEVICE_0);
      L6474_CmdSetParam(deviceId,
 8001eea:	79fb      	ldrb	r3, [r7, #7]
 8001eec:	228c      	movs	r2, #140	; 0x8c
 8001eee:	2116      	movs	r1, #22
 8001ef0:	4618      	mov	r0, r3
 8001ef2:	f7ff fc6d 	bl	80017d0 <L6474_CmdSetParam>
                        L6474_STEP_MODE,
                        (uint8_t)L6474_CONF_PARAM_STEP_SEL_DEVICE_0 |
                        (uint8_t)L6474_CONF_PARAM_SYNC_SEL_DEVICE_0);
      L6474_CmdSetParam(deviceId,
 8001ef6:	79fb      	ldrb	r3, [r7, #7]
 8001ef8:	22cf      	movs	r2, #207	; 0xcf
 8001efa:	2117      	movs	r1, #23
 8001efc:	4618      	mov	r0, r3
 8001efe:	f7ff fc67 	bl	80017d0 <L6474_CmdSetParam>
                        L6474_ALARM_EN,
                        L6474_CONF_PARAM_ALARM_EN_DEVICE_0);
      L6474_CmdSetParam(deviceId,
 8001f02:	79fb      	ldrb	r3, [r7, #7]
 8001f04:	f44f 5232 	mov.w	r2, #11392	; 0x2c80
 8001f08:	2118      	movs	r1, #24
 8001f0a:	4618      	mov	r0, r3
 8001f0c:	f7ff fc60 	bl	80017d0 <L6474_CmdSetParam>
                        (uint16_t)L6474_CONF_PARAM_CLOCK_SETTING_DEVICE_0 |
                        (uint16_t)L6474_CONF_PARAM_TQ_REG_DEVICE_0 |
                        (uint16_t)L6474_CONF_PARAM_OC_SD_DEVICE_0 |
                        (uint16_t)L6474_CONF_PARAM_SR_DEVICE_0 |
                        (uint16_t)L6474_CONF_PARAM_TOFF_DEVICE_0);
      break;
 8001f10:	e19b      	b.n	800224a <L6474_SetRegisterToPredefinedValues+0x412>
    case 1:
      L6474_CmdSetParam(deviceId,
                        L6474_TVAL,
                        L6474_Tval_Current_to_Par(L6474_CONF_PARAM_TVAL_DEVICE_1));
 8001f12:	ed9f 0ba3 	vldr	d0, [pc, #652]	; 80021a0 <L6474_SetRegisterToPredefinedValues+0x368>
 8001f16:	f000 fd87 	bl	8002a28 <L6474_Tval_Current_to_Par>
 8001f1a:	4603      	mov	r3, r0
      L6474_CmdSetParam(deviceId,
 8001f1c:	461a      	mov	r2, r3
 8001f1e:	79fb      	ldrb	r3, [r7, #7]
 8001f20:	2109      	movs	r1, #9
 8001f22:	4618      	mov	r0, r3
 8001f24:	f7ff fc54 	bl	80017d0 <L6474_CmdSetParam>
      L6474_CmdSetParam(deviceId,
 8001f28:	79fb      	ldrb	r3, [r7, #7]
 8001f2a:	2235      	movs	r2, #53	; 0x35
 8001f2c:	210e      	movs	r1, #14
 8001f2e:	4618      	mov	r0, r3
 8001f30:	f7ff fc4e 	bl	80017d0 <L6474_CmdSetParam>
                        L6474_T_FAST,
                        (uint8_t)L6474_CONF_PARAM_TOFF_FAST_DEVICE_1 |
                        (uint8_t)L6474_CONF_PARAM_FAST_STEP_DEVICE_1);
      L6474_CmdSetParam(deviceId,
                        L6474_TON_MIN,
                        L6474_Tmin_Time_to_Par(L6474_CONF_PARAM_TON_MIN_DEVICE_1));
 8001f34:	ed9f 0ba0 	vldr	d0, [pc, #640]	; 80021b8 <L6474_SetRegisterToPredefinedValues+0x380>
 8001f38:	f000 fda4 	bl	8002a84 <L6474_Tmin_Time_to_Par>
 8001f3c:	4603      	mov	r3, r0
      L6474_CmdSetParam(deviceId,
 8001f3e:	461a      	mov	r2, r3
 8001f40:	79fb      	ldrb	r3, [r7, #7]
 8001f42:	210f      	movs	r1, #15
 8001f44:	4618      	mov	r0, r3
 8001f46:	f7ff fc43 	bl	80017d0 <L6474_CmdSetParam>
      L6474_CmdSetParam(deviceId,
                        L6474_TOFF_MIN,
                        L6474_Tmin_Time_to_Par(L6474_CONF_PARAM_TOFF_MIN_DEVICE_1));
 8001f4a:	ed9f 0b9d 	vldr	d0, [pc, #628]	; 80021c0 <L6474_SetRegisterToPredefinedValues+0x388>
 8001f4e:	f000 fd99 	bl	8002a84 <L6474_Tmin_Time_to_Par>
 8001f52:	4603      	mov	r3, r0
      L6474_CmdSetParam(deviceId,
 8001f54:	461a      	mov	r2, r3
 8001f56:	79fb      	ldrb	r3, [r7, #7]
 8001f58:	2110      	movs	r1, #16
 8001f5a:	4618      	mov	r0, r3
 8001f5c:	f7ff fc38 	bl	80017d0 <L6474_CmdSetParam>
      L6474_CmdSetParam(deviceId,
 8001f60:	79fb      	ldrb	r3, [r7, #7]
 8001f62:	2202      	movs	r2, #2
 8001f64:	2113      	movs	r1, #19
 8001f66:	4618      	mov	r0, r3
 8001f68:	f7ff fc32 	bl	80017d0 <L6474_CmdSetParam>
                        L6474_OCD_TH,
                        L6474_CONF_PARAM_OCD_TH_DEVICE_1);
      L6474_CmdSetParam(deviceId,
 8001f6c:	79fb      	ldrb	r3, [r7, #7]
 8001f6e:	228c      	movs	r2, #140	; 0x8c
 8001f70:	2116      	movs	r1, #22
 8001f72:	4618      	mov	r0, r3
 8001f74:	f7ff fc2c 	bl	80017d0 <L6474_CmdSetParam>
                        L6474_STEP_MODE,
                        (uint8_t)L6474_CONF_PARAM_STEP_SEL_DEVICE_1 |
                        (uint8_t)L6474_CONF_PARAM_SYNC_SEL_DEVICE_1);
      L6474_CmdSetParam(deviceId,
 8001f78:	79fb      	ldrb	r3, [r7, #7]
 8001f7a:	22cf      	movs	r2, #207	; 0xcf
 8001f7c:	2117      	movs	r1, #23
 8001f7e:	4618      	mov	r0, r3
 8001f80:	f7ff fc26 	bl	80017d0 <L6474_CmdSetParam>
                        L6474_ALARM_EN,
                        L6474_CONF_PARAM_ALARM_EN_DEVICE_1);
      L6474_CmdSetParam(deviceId,
 8001f84:	79fb      	ldrb	r3, [r7, #7]
 8001f86:	f44f 5232 	mov.w	r2, #11392	; 0x2c80
 8001f8a:	2118      	movs	r1, #24
 8001f8c:	4618      	mov	r0, r3
 8001f8e:	f7ff fc1f 	bl	80017d0 <L6474_CmdSetParam>
                        (uint16_t)L6474_CONF_PARAM_CLOCK_SETTING_DEVICE_1 |
                        (uint16_t)L6474_CONF_PARAM_TQ_REG_DEVICE_1 |
                        (uint16_t)L6474_CONF_PARAM_OC_SD_DEVICE_1 |
                        (uint16_t)L6474_CONF_PARAM_SR_DEVICE_1 |
                        (uint16_t)L6474_CONF_PARAM_TOFF_DEVICE_1);
      break;
 8001f92:	e15a      	b.n	800224a <L6474_SetRegisterToPredefinedValues+0x412>
    case 2:
      L6474_CmdSetParam(deviceId,
                        L6474_TVAL,
                        L6474_Tval_Current_to_Par(L6474_CONF_PARAM_TVAL_DEVICE_2));
 8001f94:	ed9f 0b84 	vldr	d0, [pc, #528]	; 80021a8 <L6474_SetRegisterToPredefinedValues+0x370>
 8001f98:	f000 fd46 	bl	8002a28 <L6474_Tval_Current_to_Par>
 8001f9c:	4603      	mov	r3, r0
      L6474_CmdSetParam(deviceId,
 8001f9e:	461a      	mov	r2, r3
 8001fa0:	79fb      	ldrb	r3, [r7, #7]
 8001fa2:	2109      	movs	r1, #9
 8001fa4:	4618      	mov	r0, r3
 8001fa6:	f7ff fc13 	bl	80017d0 <L6474_CmdSetParam>
      L6474_CmdSetParam(deviceId,
 8001faa:	79fb      	ldrb	r3, [r7, #7]
 8001fac:	2235      	movs	r2, #53	; 0x35
 8001fae:	210e      	movs	r1, #14
 8001fb0:	4618      	mov	r0, r3
 8001fb2:	f7ff fc0d 	bl	80017d0 <L6474_CmdSetParam>
                        L6474_T_FAST,
                        (uint8_t)L6474_CONF_PARAM_TOFF_FAST_DEVICE_2 |
                        (uint8_t)L6474_CONF_PARAM_FAST_STEP_DEVICE_2);
      L6474_CmdSetParam(deviceId,
                        L6474_TON_MIN,
                        L6474_Tmin_Time_to_Par(L6474_CONF_PARAM_TON_MIN_DEVICE_2));
 8001fb6:	ed9f 0b80 	vldr	d0, [pc, #512]	; 80021b8 <L6474_SetRegisterToPredefinedValues+0x380>
 8001fba:	f000 fd63 	bl	8002a84 <L6474_Tmin_Time_to_Par>
 8001fbe:	4603      	mov	r3, r0
      L6474_CmdSetParam(deviceId,
 8001fc0:	461a      	mov	r2, r3
 8001fc2:	79fb      	ldrb	r3, [r7, #7]
 8001fc4:	210f      	movs	r1, #15
 8001fc6:	4618      	mov	r0, r3
 8001fc8:	f7ff fc02 	bl	80017d0 <L6474_CmdSetParam>
      L6474_CmdSetParam(deviceId,
                        L6474_TOFF_MIN,
                        L6474_Tmin_Time_to_Par(L6474_CONF_PARAM_TOFF_MIN_DEVICE_2));
 8001fcc:	ed9f 0b7c 	vldr	d0, [pc, #496]	; 80021c0 <L6474_SetRegisterToPredefinedValues+0x388>
 8001fd0:	f000 fd58 	bl	8002a84 <L6474_Tmin_Time_to_Par>
 8001fd4:	4603      	mov	r3, r0
      L6474_CmdSetParam(deviceId,
 8001fd6:	461a      	mov	r2, r3
 8001fd8:	79fb      	ldrb	r3, [r7, #7]
 8001fda:	2110      	movs	r1, #16
 8001fdc:	4618      	mov	r0, r3
 8001fde:	f7ff fbf7 	bl	80017d0 <L6474_CmdSetParam>
      L6474_CmdSetParam(deviceId,
 8001fe2:	79fb      	ldrb	r3, [r7, #7]
 8001fe4:	2205      	movs	r2, #5
 8001fe6:	2113      	movs	r1, #19
 8001fe8:	4618      	mov	r0, r3
 8001fea:	f7ff fbf1 	bl	80017d0 <L6474_CmdSetParam>
                        L6474_OCD_TH,
                        L6474_CONF_PARAM_OCD_TH_DEVICE_2);
      L6474_CmdSetParam(deviceId,
 8001fee:	79fb      	ldrb	r3, [r7, #7]
 8001ff0:	228c      	movs	r2, #140	; 0x8c
 8001ff2:	2116      	movs	r1, #22
 8001ff4:	4618      	mov	r0, r3
 8001ff6:	f7ff fbeb 	bl	80017d0 <L6474_CmdSetParam>
                        L6474_STEP_MODE,
                        (uint8_t)L6474_CONF_PARAM_STEP_SEL_DEVICE_2 |
                        (uint8_t)L6474_CONF_PARAM_SYNC_SEL_DEVICE_2);
      L6474_CmdSetParam(deviceId,
 8001ffa:	79fb      	ldrb	r3, [r7, #7]
 8001ffc:	22cf      	movs	r2, #207	; 0xcf
 8001ffe:	2117      	movs	r1, #23
 8002000:	4618      	mov	r0, r3
 8002002:	f7ff fbe5 	bl	80017d0 <L6474_CmdSetParam>
                        L6474_ALARM_EN,
                        L6474_CONF_PARAM_ALARM_EN_DEVICE_2);
      L6474_CmdSetParam(deviceId,
 8002006:	79fb      	ldrb	r3, [r7, #7]
 8002008:	f44f 5232 	mov.w	r2, #11392	; 0x2c80
 800200c:	2118      	movs	r1, #24
 800200e:	4618      	mov	r0, r3
 8002010:	f7ff fbde 	bl	80017d0 <L6474_CmdSetParam>
                        (uint16_t)L6474_CONF_PARAM_CLOCK_SETTING_DEVICE_2 |
                        (uint16_t)L6474_CONF_PARAM_TQ_REG_DEVICE_2 |
                        (uint16_t)L6474_CONF_PARAM_OC_SD_DEVICE_2 |
                        (uint16_t)L6474_CONF_PARAM_SR_DEVICE_2 |
                        (uint16_t)L6474_CONF_PARAM_TOFF_DEVICE_2);
      break;
 8002014:	e119      	b.n	800224a <L6474_SetRegisterToPredefinedValues+0x412>
   case 3:
      L6474_CmdSetParam(deviceId,
                        L6474_TVAL,
                        L6474_Tval_Current_to_Par(L6474_CONF_PARAM_TVAL_DEVICE_3));
 8002016:	ed9f 0b66 	vldr	d0, [pc, #408]	; 80021b0 <L6474_SetRegisterToPredefinedValues+0x378>
 800201a:	f000 fd05 	bl	8002a28 <L6474_Tval_Current_to_Par>
 800201e:	4603      	mov	r3, r0
      L6474_CmdSetParam(deviceId,
 8002020:	461a      	mov	r2, r3
 8002022:	79fb      	ldrb	r3, [r7, #7]
 8002024:	2109      	movs	r1, #9
 8002026:	4618      	mov	r0, r3
 8002028:	f7ff fbd2 	bl	80017d0 <L6474_CmdSetParam>
      L6474_CmdSetParam(deviceId,
 800202c:	79fb      	ldrb	r3, [r7, #7]
 800202e:	2235      	movs	r2, #53	; 0x35
 8002030:	210e      	movs	r1, #14
 8002032:	4618      	mov	r0, r3
 8002034:	f7ff fbcc 	bl	80017d0 <L6474_CmdSetParam>
                        L6474_T_FAST,
                        (uint8_t)L6474_CONF_PARAM_TOFF_FAST_DEVICE_3 |
                        (uint8_t)L6474_CONF_PARAM_FAST_STEP_DEVICE_3);
      L6474_CmdSetParam(deviceId,
                        L6474_TON_MIN,
                        L6474_Tmin_Time_to_Par(L6474_CONF_PARAM_TON_MIN_DEVICE_3));
 8002038:	ed9f 0b5f 	vldr	d0, [pc, #380]	; 80021b8 <L6474_SetRegisterToPredefinedValues+0x380>
 800203c:	f000 fd22 	bl	8002a84 <L6474_Tmin_Time_to_Par>
 8002040:	4603      	mov	r3, r0
      L6474_CmdSetParam(deviceId,
 8002042:	461a      	mov	r2, r3
 8002044:	79fb      	ldrb	r3, [r7, #7]
 8002046:	210f      	movs	r1, #15
 8002048:	4618      	mov	r0, r3
 800204a:	f7ff fbc1 	bl	80017d0 <L6474_CmdSetParam>
      L6474_CmdSetParam(deviceId,
                        L6474_TOFF_MIN,
                        L6474_Tmin_Time_to_Par(L6474_CONF_PARAM_TOFF_MIN_DEVICE_3));
 800204e:	ed9f 0b5c 	vldr	d0, [pc, #368]	; 80021c0 <L6474_SetRegisterToPredefinedValues+0x388>
 8002052:	f000 fd17 	bl	8002a84 <L6474_Tmin_Time_to_Par>
 8002056:	4603      	mov	r3, r0
      L6474_CmdSetParam(deviceId,
 8002058:	461a      	mov	r2, r3
 800205a:	79fb      	ldrb	r3, [r7, #7]
 800205c:	2110      	movs	r1, #16
 800205e:	4618      	mov	r0, r3
 8002060:	f7ff fbb6 	bl	80017d0 <L6474_CmdSetParam>
      L6474_CmdSetParam(deviceId,
 8002064:	79fb      	ldrb	r3, [r7, #7]
 8002066:	2202      	movs	r2, #2
 8002068:	2113      	movs	r1, #19
 800206a:	4618      	mov	r0, r3
 800206c:	f7ff fbb0 	bl	80017d0 <L6474_CmdSetParam>
                        L6474_OCD_TH,
                        L6474_CONF_PARAM_OCD_TH_DEVICE_3);
      L6474_CmdSetParam(deviceId,
 8002070:	79fb      	ldrb	r3, [r7, #7]
 8002072:	228c      	movs	r2, #140	; 0x8c
 8002074:	2116      	movs	r1, #22
 8002076:	4618      	mov	r0, r3
 8002078:	f7ff fbaa 	bl	80017d0 <L6474_CmdSetParam>
                        L6474_STEP_MODE,
                        (uint8_t)L6474_CONF_PARAM_STEP_SEL_DEVICE_3 |
                        (uint8_t)L6474_CONF_PARAM_SYNC_SEL_DEVICE_3);
      L6474_CmdSetParam(deviceId,
 800207c:	79fb      	ldrb	r3, [r7, #7]
 800207e:	22cf      	movs	r2, #207	; 0xcf
 8002080:	2117      	movs	r1, #23
 8002082:	4618      	mov	r0, r3
 8002084:	f7ff fba4 	bl	80017d0 <L6474_CmdSetParam>
                        L6474_ALARM_EN,
                        L6474_CONF_PARAM_ALARM_EN_DEVICE_3);
      L6474_CmdSetParam(deviceId,
 8002088:	79fb      	ldrb	r3, [r7, #7]
 800208a:	f44f 5232 	mov.w	r2, #11392	; 0x2c80
 800208e:	2118      	movs	r1, #24
 8002090:	4618      	mov	r0, r3
 8002092:	f7ff fb9d 	bl	80017d0 <L6474_CmdSetParam>
                        (uint16_t)L6474_CONF_PARAM_CLOCK_SETTING_DEVICE_3 |
                        (uint16_t)L6474_CONF_PARAM_TQ_REG_DEVICE_3 |
                        (uint16_t)L6474_CONF_PARAM_OC_SD_DEVICE_3 |
                        (uint16_t)L6474_CONF_PARAM_SR_DEVICE_3 |
                        (uint16_t)L6474_CONF_PARAM_TOFF_DEVICE_3);
      break;      
 8002096:	e0d8      	b.n	800224a <L6474_SetRegisterToPredefinedValues+0x412>
   case 4:
      L6474_CmdSetParam(deviceId,
                        L6474_TVAL,
                        L6474_Tval_Current_to_Par(L6474_CONF_PARAM_TVAL_DEVICE_4));
 8002098:	ed9f 0b45 	vldr	d0, [pc, #276]	; 80021b0 <L6474_SetRegisterToPredefinedValues+0x378>
 800209c:	f000 fcc4 	bl	8002a28 <L6474_Tval_Current_to_Par>
 80020a0:	4603      	mov	r3, r0
      L6474_CmdSetParam(deviceId,
 80020a2:	461a      	mov	r2, r3
 80020a4:	79fb      	ldrb	r3, [r7, #7]
 80020a6:	2109      	movs	r1, #9
 80020a8:	4618      	mov	r0, r3
 80020aa:	f7ff fb91 	bl	80017d0 <L6474_CmdSetParam>
      L6474_CmdSetParam(deviceId,
 80020ae:	79fb      	ldrb	r3, [r7, #7]
 80020b0:	2235      	movs	r2, #53	; 0x35
 80020b2:	210e      	movs	r1, #14
 80020b4:	4618      	mov	r0, r3
 80020b6:	f7ff fb8b 	bl	80017d0 <L6474_CmdSetParam>
                        L6474_T_FAST,
                        (uint8_t)L6474_CONF_PARAM_TOFF_FAST_DEVICE_4 |
                        (uint8_t)L6474_CONF_PARAM_FAST_STEP_DEVICE_4);
      L6474_CmdSetParam(deviceId,
                        L6474_TON_MIN,
                        L6474_Tmin_Time_to_Par(L6474_CONF_PARAM_TON_MIN_DEVICE_4));
 80020ba:	ed9f 0b3f 	vldr	d0, [pc, #252]	; 80021b8 <L6474_SetRegisterToPredefinedValues+0x380>
 80020be:	f000 fce1 	bl	8002a84 <L6474_Tmin_Time_to_Par>
 80020c2:	4603      	mov	r3, r0
      L6474_CmdSetParam(deviceId,
 80020c4:	461a      	mov	r2, r3
 80020c6:	79fb      	ldrb	r3, [r7, #7]
 80020c8:	210f      	movs	r1, #15
 80020ca:	4618      	mov	r0, r3
 80020cc:	f7ff fb80 	bl	80017d0 <L6474_CmdSetParam>
      L6474_CmdSetParam(deviceId,
                        L6474_TOFF_MIN,
                        L6474_Tmin_Time_to_Par(L6474_CONF_PARAM_TOFF_MIN_DEVICE_4));
 80020d0:	ed9f 0b3b 	vldr	d0, [pc, #236]	; 80021c0 <L6474_SetRegisterToPredefinedValues+0x388>
 80020d4:	f000 fcd6 	bl	8002a84 <L6474_Tmin_Time_to_Par>
 80020d8:	4603      	mov	r3, r0
      L6474_CmdSetParam(deviceId,
 80020da:	461a      	mov	r2, r3
 80020dc:	79fb      	ldrb	r3, [r7, #7]
 80020de:	2110      	movs	r1, #16
 80020e0:	4618      	mov	r0, r3
 80020e2:	f7ff fb75 	bl	80017d0 <L6474_CmdSetParam>
      L6474_CmdSetParam(deviceId,
 80020e6:	79fb      	ldrb	r3, [r7, #7]
 80020e8:	2202      	movs	r2, #2
 80020ea:	2113      	movs	r1, #19
 80020ec:	4618      	mov	r0, r3
 80020ee:	f7ff fb6f 	bl	80017d0 <L6474_CmdSetParam>
                        L6474_OCD_TH,
                        L6474_CONF_PARAM_OCD_TH_DEVICE_4);
      L6474_CmdSetParam(deviceId,
 80020f2:	79fb      	ldrb	r3, [r7, #7]
 80020f4:	228c      	movs	r2, #140	; 0x8c
 80020f6:	2116      	movs	r1, #22
 80020f8:	4618      	mov	r0, r3
 80020fa:	f7ff fb69 	bl	80017d0 <L6474_CmdSetParam>
                        L6474_STEP_MODE,
                        (uint8_t)L6474_CONF_PARAM_STEP_SEL_DEVICE_4 |
                        (uint8_t)L6474_CONF_PARAM_SYNC_SEL_DEVICE_4);
      L6474_CmdSetParam(deviceId,
 80020fe:	79fb      	ldrb	r3, [r7, #7]
 8002100:	22cf      	movs	r2, #207	; 0xcf
 8002102:	2117      	movs	r1, #23
 8002104:	4618      	mov	r0, r3
 8002106:	f7ff fb63 	bl	80017d0 <L6474_CmdSetParam>
                        L6474_ALARM_EN,
                        L6474_CONF_PARAM_ALARM_EN_DEVICE_4);
      L6474_CmdSetParam(deviceId,
 800210a:	79fb      	ldrb	r3, [r7, #7]
 800210c:	f44f 5232 	mov.w	r2, #11392	; 0x2c80
 8002110:	2118      	movs	r1, #24
 8002112:	4618      	mov	r0, r3
 8002114:	f7ff fb5c 	bl	80017d0 <L6474_CmdSetParam>
                        (uint16_t)L6474_CONF_PARAM_CLOCK_SETTING_DEVICE_4 |
                        (uint16_t)L6474_CONF_PARAM_TQ_REG_DEVICE_4 |
                        (uint16_t)L6474_CONF_PARAM_OC_SD_DEVICE_4 |
                        (uint16_t)L6474_CONF_PARAM_SR_DEVICE_4 |
                        (uint16_t)L6474_CONF_PARAM_TOFF_DEVICE_4);
      break;         
 8002118:	e097      	b.n	800224a <L6474_SetRegisterToPredefinedValues+0x412>
   case 5:
      L6474_CmdSetParam(deviceId,
                        L6474_TVAL,
                        L6474_Tval_Current_to_Par(L6474_CONF_PARAM_TVAL_DEVICE_5));
 800211a:	ed9f 0b25 	vldr	d0, [pc, #148]	; 80021b0 <L6474_SetRegisterToPredefinedValues+0x378>
 800211e:	f000 fc83 	bl	8002a28 <L6474_Tval_Current_to_Par>
 8002122:	4603      	mov	r3, r0
      L6474_CmdSetParam(deviceId,
 8002124:	461a      	mov	r2, r3
 8002126:	79fb      	ldrb	r3, [r7, #7]
 8002128:	2109      	movs	r1, #9
 800212a:	4618      	mov	r0, r3
 800212c:	f7ff fb50 	bl	80017d0 <L6474_CmdSetParam>
      L6474_CmdSetParam(deviceId,
 8002130:	79fb      	ldrb	r3, [r7, #7]
 8002132:	2235      	movs	r2, #53	; 0x35
 8002134:	210e      	movs	r1, #14
 8002136:	4618      	mov	r0, r3
 8002138:	f7ff fb4a 	bl	80017d0 <L6474_CmdSetParam>
                        L6474_T_FAST,
                        (uint8_t)L6474_CONF_PARAM_TOFF_FAST_DEVICE_5 |
                        (uint8_t)L6474_CONF_PARAM_FAST_STEP_DEVICE_5);
      L6474_CmdSetParam(deviceId,
                        L6474_TON_MIN,
                        L6474_Tmin_Time_to_Par(L6474_CONF_PARAM_TON_MIN_DEVICE_5));
 800213c:	ed9f 0b1e 	vldr	d0, [pc, #120]	; 80021b8 <L6474_SetRegisterToPredefinedValues+0x380>
 8002140:	f000 fca0 	bl	8002a84 <L6474_Tmin_Time_to_Par>
 8002144:	4603      	mov	r3, r0
      L6474_CmdSetParam(deviceId,
 8002146:	461a      	mov	r2, r3
 8002148:	79fb      	ldrb	r3, [r7, #7]
 800214a:	210f      	movs	r1, #15
 800214c:	4618      	mov	r0, r3
 800214e:	f7ff fb3f 	bl	80017d0 <L6474_CmdSetParam>
      L6474_CmdSetParam(deviceId,
                        L6474_TOFF_MIN,
                        L6474_Tmin_Time_to_Par(L6474_CONF_PARAM_TOFF_MIN_DEVICE_5));
 8002152:	ed9f 0b1b 	vldr	d0, [pc, #108]	; 80021c0 <L6474_SetRegisterToPredefinedValues+0x388>
 8002156:	f000 fc95 	bl	8002a84 <L6474_Tmin_Time_to_Par>
 800215a:	4603      	mov	r3, r0
      L6474_CmdSetParam(deviceId,
 800215c:	461a      	mov	r2, r3
 800215e:	79fb      	ldrb	r3, [r7, #7]
 8002160:	2110      	movs	r1, #16
 8002162:	4618      	mov	r0, r3
 8002164:	f7ff fb34 	bl	80017d0 <L6474_CmdSetParam>
      L6474_CmdSetParam(deviceId,
 8002168:	79fb      	ldrb	r3, [r7, #7]
 800216a:	2202      	movs	r2, #2
 800216c:	2113      	movs	r1, #19
 800216e:	4618      	mov	r0, r3
 8002170:	f7ff fb2e 	bl	80017d0 <L6474_CmdSetParam>
                        L6474_OCD_TH,
                        L6474_CONF_PARAM_OCD_TH_DEVICE_5);
      L6474_CmdSetParam(deviceId,
 8002174:	79fb      	ldrb	r3, [r7, #7]
 8002176:	228c      	movs	r2, #140	; 0x8c
 8002178:	2116      	movs	r1, #22
 800217a:	4618      	mov	r0, r3
 800217c:	f7ff fb28 	bl	80017d0 <L6474_CmdSetParam>
                        L6474_STEP_MODE,
                        (uint8_t)L6474_CONF_PARAM_STEP_SEL_DEVICE_5 |
                        (uint8_t)L6474_CONF_PARAM_SYNC_SEL_DEVICE_5);
      L6474_CmdSetParam(deviceId,
 8002180:	79fb      	ldrb	r3, [r7, #7]
 8002182:	22cf      	movs	r2, #207	; 0xcf
 8002184:	2117      	movs	r1, #23
 8002186:	4618      	mov	r0, r3
 8002188:	f7ff fb22 	bl	80017d0 <L6474_CmdSetParam>
                        L6474_ALARM_EN,
                        L6474_CONF_PARAM_ALARM_EN_DEVICE_5);
      L6474_CmdSetParam(deviceId,
 800218c:	79fb      	ldrb	r3, [r7, #7]
 800218e:	f44f 5232 	mov.w	r2, #11392	; 0x2c80
 8002192:	2118      	movs	r1, #24
 8002194:	4618      	mov	r0, r3
 8002196:	f7ff fb1b 	bl	80017d0 <L6474_CmdSetParam>
                        (uint16_t)L6474_CONF_PARAM_CLOCK_SETTING_DEVICE_5 |
                        (uint16_t)L6474_CONF_PARAM_TQ_REG_DEVICE_5 |
                        (uint16_t)L6474_CONF_PARAM_OC_SD_DEVICE_5 |
                        (uint16_t)L6474_CONF_PARAM_SR_DEVICE_5 |
                        (uint16_t)L6474_CONF_PARAM_TOFF_DEVICE_5);
      break;        
 800219a:	e056      	b.n	800224a <L6474_SetRegisterToPredefinedValues+0x412>
 800219c:	f3af 8000 	nop.w
 80021a0:	00000000 	.word	0x00000000
 80021a4:	408b5800 	.word	0x408b5800
 80021a8:	00000000 	.word	0x00000000
 80021ac:	40977000 	.word	0x40977000
 80021b0:	00000000 	.word	0x00000000
 80021b4:	40877000 	.word	0x40877000
 80021b8:	00000000 	.word	0x00000000
 80021bc:	40080000 	.word	0x40080000
 80021c0:	00000000 	.word	0x00000000
 80021c4:	40350000 	.word	0x40350000
   case 6:
      L6474_CmdSetParam(deviceId,
                        L6474_TVAL,
                        L6474_Tval_Current_to_Par(L6474_CONF_PARAM_TVAL_DEVICE_6));
 80021c8:	ed1f 0b07 	vldr	d0, [pc, #-28]	; 80021b0 <L6474_SetRegisterToPredefinedValues+0x378>
 80021cc:	f000 fc2c 	bl	8002a28 <L6474_Tval_Current_to_Par>
 80021d0:	4603      	mov	r3, r0
      L6474_CmdSetParam(deviceId,
 80021d2:	461a      	mov	r2, r3
 80021d4:	79fb      	ldrb	r3, [r7, #7]
 80021d6:	2109      	movs	r1, #9
 80021d8:	4618      	mov	r0, r3
 80021da:	f7ff faf9 	bl	80017d0 <L6474_CmdSetParam>
      L6474_CmdSetParam(deviceId,
 80021de:	79fb      	ldrb	r3, [r7, #7]
 80021e0:	2235      	movs	r2, #53	; 0x35
 80021e2:	210e      	movs	r1, #14
 80021e4:	4618      	mov	r0, r3
 80021e6:	f7ff faf3 	bl	80017d0 <L6474_CmdSetParam>
                        L6474_T_FAST,
                        (uint8_t)L6474_CONF_PARAM_TOFF_FAST_DEVICE_6 |
                        (uint8_t)L6474_CONF_PARAM_FAST_STEP_DEVICE_6);
      L6474_CmdSetParam(deviceId,
                        L6474_TON_MIN,
                        L6474_Tmin_Time_to_Par(L6474_CONF_PARAM_TON_MIN_DEVICE_6));
 80021ea:	ed1f 0b0d 	vldr	d0, [pc, #-52]	; 80021b8 <L6474_SetRegisterToPredefinedValues+0x380>
 80021ee:	f000 fc49 	bl	8002a84 <L6474_Tmin_Time_to_Par>
 80021f2:	4603      	mov	r3, r0
      L6474_CmdSetParam(deviceId,
 80021f4:	461a      	mov	r2, r3
 80021f6:	79fb      	ldrb	r3, [r7, #7]
 80021f8:	210f      	movs	r1, #15
 80021fa:	4618      	mov	r0, r3
 80021fc:	f7ff fae8 	bl	80017d0 <L6474_CmdSetParam>
      L6474_CmdSetParam(deviceId,
                        L6474_TOFF_MIN,
                        L6474_Tmin_Time_to_Par(L6474_CONF_PARAM_TOFF_MIN_DEVICE_6));
 8002200:	ed1f 0b11 	vldr	d0, [pc, #-68]	; 80021c0 <L6474_SetRegisterToPredefinedValues+0x388>
 8002204:	f000 fc3e 	bl	8002a84 <L6474_Tmin_Time_to_Par>
 8002208:	4603      	mov	r3, r0
      L6474_CmdSetParam(deviceId,
 800220a:	461a      	mov	r2, r3
 800220c:	79fb      	ldrb	r3, [r7, #7]
 800220e:	2110      	movs	r1, #16
 8002210:	4618      	mov	r0, r3
 8002212:	f7ff fadd 	bl	80017d0 <L6474_CmdSetParam>
      L6474_CmdSetParam(deviceId,
 8002216:	79fb      	ldrb	r3, [r7, #7]
 8002218:	2202      	movs	r2, #2
 800221a:	2113      	movs	r1, #19
 800221c:	4618      	mov	r0, r3
 800221e:	f7ff fad7 	bl	80017d0 <L6474_CmdSetParam>
                        L6474_OCD_TH,
                        L6474_CONF_PARAM_OCD_TH_DEVICE_6);
      L6474_CmdSetParam(deviceId,
 8002222:	79fb      	ldrb	r3, [r7, #7]
 8002224:	228c      	movs	r2, #140	; 0x8c
 8002226:	2116      	movs	r1, #22
 8002228:	4618      	mov	r0, r3
 800222a:	f7ff fad1 	bl	80017d0 <L6474_CmdSetParam>
                        L6474_STEP_MODE,
                        (uint8_t)L6474_CONF_PARAM_STEP_SEL_DEVICE_6 |
                        (uint8_t)L6474_CONF_PARAM_SYNC_SEL_DEVICE_6);
      L6474_CmdSetParam(deviceId,
 800222e:	79fb      	ldrb	r3, [r7, #7]
 8002230:	22cf      	movs	r2, #207	; 0xcf
 8002232:	2117      	movs	r1, #23
 8002234:	4618      	mov	r0, r3
 8002236:	f7ff facb 	bl	80017d0 <L6474_CmdSetParam>
                        L6474_ALARM_EN,
                        L6474_CONF_PARAM_ALARM_EN_DEVICE_6);
      L6474_CmdSetParam(deviceId,
 800223a:	79fb      	ldrb	r3, [r7, #7]
 800223c:	f44f 5232 	mov.w	r2, #11392	; 0x2c80
 8002240:	2118      	movs	r1, #24
 8002242:	4618      	mov	r0, r3
 8002244:	f7ff fac4 	bl	80017d0 <L6474_CmdSetParam>
                        (uint16_t)L6474_CONF_PARAM_CLOCK_SETTING_DEVICE_6 |
                        (uint16_t)L6474_CONF_PARAM_TQ_REG_DEVICE_6 |
                        (uint16_t)L6474_CONF_PARAM_OC_SD_DEVICE_6 |
                        (uint16_t)L6474_CONF_PARAM_SR_DEVICE_6 |
                        (uint16_t)L6474_CONF_PARAM_TOFF_DEVICE_6);
      break;          
 8002248:	bf00      	nop
    default: ;
  }
}
 800224a:	bf00      	nop
 800224c:	3708      	adds	r7, #8
 800224e:	46bd      	mov	sp, r7
 8002250:	bd80      	pop	{r7, pc}
 8002252:	bf00      	nop

08002254 <L6474_SetDeviceParamsToPredefinedValues>:
 * from l6474_target_config.h
 * @param None
 * @retval None
 **********************************************************/
void L6474_SetDeviceParamsToPredefinedValues(void)
{
 8002254:	b580      	push	{r7, lr}
 8002256:	b082      	sub	sp, #8
 8002258:	af00      	add	r7, sp, #0
  uint32_t i;

  devicePrm[0].acceleration = L6474_CONF_PARAM_ACC_DEVICE_0;
 800225a:	4b5a      	ldr	r3, [pc, #360]	; (80023c4 <L6474_SetDeviceParamsToPredefinedValues+0x170>)
 800225c:	22a0      	movs	r2, #160	; 0xa0
 800225e:	831a      	strh	r2, [r3, #24]
  devicePrm[0].deceleration = L6474_CONF_PARAM_DEC_DEVICE_0;
 8002260:	4b58      	ldr	r3, [pc, #352]	; (80023c4 <L6474_SetDeviceParamsToPredefinedValues+0x170>)
 8002262:	22a0      	movs	r2, #160	; 0xa0
 8002264:	835a      	strh	r2, [r3, #26]
  devicePrm[0].maxSpeed = L6474_CONF_PARAM_MAX_SPEED_DEVICE_0;
 8002266:	4b57      	ldr	r3, [pc, #348]	; (80023c4 <L6474_SetDeviceParamsToPredefinedValues+0x170>)
 8002268:	f44f 62c8 	mov.w	r2, #1600	; 0x640
 800226c:	839a      	strh	r2, [r3, #28]
  devicePrm[0].minSpeed = L6474_CONF_PARAM_MIN_SPEED_DEVICE_0;
 800226e:	4b55      	ldr	r3, [pc, #340]	; (80023c4 <L6474_SetDeviceParamsToPredefinedValues+0x170>)
 8002270:	f44f 7248 	mov.w	r2, #800	; 0x320
 8002274:	83da      	strh	r2, [r3, #30]
  
  devicePrm[1].acceleration = L6474_CONF_PARAM_ACC_DEVICE_1;
 8002276:	4b53      	ldr	r3, [pc, #332]	; (80023c4 <L6474_SetDeviceParamsToPredefinedValues+0x170>)
 8002278:	22a0      	movs	r2, #160	; 0xa0
 800227a:	f8a3 2040 	strh.w	r2, [r3, #64]	; 0x40
  devicePrm[1].deceleration = L6474_CONF_PARAM_DEC_DEVICE_1;
 800227e:	4b51      	ldr	r3, [pc, #324]	; (80023c4 <L6474_SetDeviceParamsToPredefinedValues+0x170>)
 8002280:	22a0      	movs	r2, #160	; 0xa0
 8002282:	f8a3 2042 	strh.w	r2, [r3, #66]	; 0x42
  devicePrm[1].maxSpeed = L6474_CONF_PARAM_MAX_SPEED_DEVICE_1;
 8002286:	4b4f      	ldr	r3, [pc, #316]	; (80023c4 <L6474_SetDeviceParamsToPredefinedValues+0x170>)
 8002288:	f44f 62c8 	mov.w	r2, #1600	; 0x640
 800228c:	f8a3 2044 	strh.w	r2, [r3, #68]	; 0x44
  devicePrm[1].minSpeed = L6474_CONF_PARAM_MIN_SPEED_DEVICE_1;
 8002290:	4b4c      	ldr	r3, [pc, #304]	; (80023c4 <L6474_SetDeviceParamsToPredefinedValues+0x170>)
 8002292:	f44f 7248 	mov.w	r2, #800	; 0x320
 8002296:	f8a3 2046 	strh.w	r2, [r3, #70]	; 0x46
  
  devicePrm[2].acceleration = L6474_CONF_PARAM_ACC_DEVICE_2;
 800229a:	4b4a      	ldr	r3, [pc, #296]	; (80023c4 <L6474_SetDeviceParamsToPredefinedValues+0x170>)
 800229c:	22a0      	movs	r2, #160	; 0xa0
 800229e:	f8a3 2068 	strh.w	r2, [r3, #104]	; 0x68
  devicePrm[2].deceleration = L6474_CONF_PARAM_DEC_DEVICE_2;
 80022a2:	4b48      	ldr	r3, [pc, #288]	; (80023c4 <L6474_SetDeviceParamsToPredefinedValues+0x170>)
 80022a4:	22a0      	movs	r2, #160	; 0xa0
 80022a6:	f8a3 206a 	strh.w	r2, [r3, #106]	; 0x6a
  devicePrm[2].maxSpeed = L6474_CONF_PARAM_MAX_SPEED_DEVICE_2;
 80022aa:	4b46      	ldr	r3, [pc, #280]	; (80023c4 <L6474_SetDeviceParamsToPredefinedValues+0x170>)
 80022ac:	f44f 62c8 	mov.w	r2, #1600	; 0x640
 80022b0:	f8a3 206c 	strh.w	r2, [r3, #108]	; 0x6c
  devicePrm[2].minSpeed = L6474_CONF_PARAM_MIN_SPEED_DEVICE_2;
 80022b4:	4b43      	ldr	r3, [pc, #268]	; (80023c4 <L6474_SetDeviceParamsToPredefinedValues+0x170>)
 80022b6:	f44f 7248 	mov.w	r2, #800	; 0x320
 80022ba:	f8a3 206e 	strh.w	r2, [r3, #110]	; 0x6e
  
  for (i = 0; i < MAX_NUMBER_OF_DEVICES; i++)
 80022be:	2300      	movs	r3, #0
 80022c0:	607b      	str	r3, [r7, #4]
 80022c2:	e065      	b.n	8002390 <L6474_SetDeviceParamsToPredefinedValues+0x13c>
  {
    devicePrm[i].accu = 0;
 80022c4:	493f      	ldr	r1, [pc, #252]	; (80023c4 <L6474_SetDeviceParamsToPredefinedValues+0x170>)
 80022c6:	687a      	ldr	r2, [r7, #4]
 80022c8:	4613      	mov	r3, r2
 80022ca:	009b      	lsls	r3, r3, #2
 80022cc:	4413      	add	r3, r2
 80022ce:	00db      	lsls	r3, r3, #3
 80022d0:	440b      	add	r3, r1
 80022d2:	2200      	movs	r2, #0
 80022d4:	601a      	str	r2, [r3, #0]
    devicePrm[i].currentPosition = 0;
 80022d6:	493b      	ldr	r1, [pc, #236]	; (80023c4 <L6474_SetDeviceParamsToPredefinedValues+0x170>)
 80022d8:	687a      	ldr	r2, [r7, #4]
 80022da:	4613      	mov	r3, r2
 80022dc:	009b      	lsls	r3, r3, #2
 80022de:	4413      	add	r3, r2
 80022e0:	00db      	lsls	r3, r3, #3
 80022e2:	440b      	add	r3, r1
 80022e4:	3304      	adds	r3, #4
 80022e6:	2200      	movs	r2, #0
 80022e8:	601a      	str	r2, [r3, #0]
    devicePrm[i].endAccPos = 0;
 80022ea:	4936      	ldr	r1, [pc, #216]	; (80023c4 <L6474_SetDeviceParamsToPredefinedValues+0x170>)
 80022ec:	687a      	ldr	r2, [r7, #4]
 80022ee:	4613      	mov	r3, r2
 80022f0:	009b      	lsls	r3, r3, #2
 80022f2:	4413      	add	r3, r2
 80022f4:	00db      	lsls	r3, r3, #3
 80022f6:	440b      	add	r3, r1
 80022f8:	3308      	adds	r3, #8
 80022fa:	2200      	movs	r2, #0
 80022fc:	601a      	str	r2, [r3, #0]
    devicePrm[i].relativePos = 0;
 80022fe:	4931      	ldr	r1, [pc, #196]	; (80023c4 <L6474_SetDeviceParamsToPredefinedValues+0x170>)
 8002300:	687a      	ldr	r2, [r7, #4]
 8002302:	4613      	mov	r3, r2
 8002304:	009b      	lsls	r3, r3, #2
 8002306:	4413      	add	r3, r2
 8002308:	00db      	lsls	r3, r3, #3
 800230a:	440b      	add	r3, r1
 800230c:	330c      	adds	r3, #12
 800230e:	2200      	movs	r2, #0
 8002310:	601a      	str	r2, [r3, #0]
    devicePrm[i].startDecPos = 0;
 8002312:	492c      	ldr	r1, [pc, #176]	; (80023c4 <L6474_SetDeviceParamsToPredefinedValues+0x170>)
 8002314:	687a      	ldr	r2, [r7, #4]
 8002316:	4613      	mov	r3, r2
 8002318:	009b      	lsls	r3, r3, #2
 800231a:	4413      	add	r3, r2
 800231c:	00db      	lsls	r3, r3, #3
 800231e:	440b      	add	r3, r1
 8002320:	3310      	adds	r3, #16
 8002322:	2200      	movs	r2, #0
 8002324:	601a      	str	r2, [r3, #0]
    devicePrm[i].stepsToTake = 0;
 8002326:	4927      	ldr	r1, [pc, #156]	; (80023c4 <L6474_SetDeviceParamsToPredefinedValues+0x170>)
 8002328:	687a      	ldr	r2, [r7, #4]
 800232a:	4613      	mov	r3, r2
 800232c:	009b      	lsls	r3, r3, #2
 800232e:	4413      	add	r3, r2
 8002330:	00db      	lsls	r3, r3, #3
 8002332:	440b      	add	r3, r1
 8002334:	3314      	adds	r3, #20
 8002336:	2200      	movs	r2, #0
 8002338:	601a      	str	r2, [r3, #0]
    devicePrm[i].speed = 0;
 800233a:	4922      	ldr	r1, [pc, #136]	; (80023c4 <L6474_SetDeviceParamsToPredefinedValues+0x170>)
 800233c:	687a      	ldr	r2, [r7, #4]
 800233e:	4613      	mov	r3, r2
 8002340:	009b      	lsls	r3, r3, #2
 8002342:	4413      	add	r3, r2
 8002344:	00db      	lsls	r3, r3, #3
 8002346:	440b      	add	r3, r1
 8002348:	3320      	adds	r3, #32
 800234a:	2200      	movs	r2, #0
 800234c:	801a      	strh	r2, [r3, #0]
    devicePrm[i].commandExecuted = NO_CMD;
 800234e:	491d      	ldr	r1, [pc, #116]	; (80023c4 <L6474_SetDeviceParamsToPredefinedValues+0x170>)
 8002350:	687a      	ldr	r2, [r7, #4]
 8002352:	4613      	mov	r3, r2
 8002354:	009b      	lsls	r3, r3, #2
 8002356:	4413      	add	r3, r2
 8002358:	00db      	lsls	r3, r3, #3
 800235a:	440b      	add	r3, r1
 800235c:	3322      	adds	r3, #34	; 0x22
 800235e:	2203      	movs	r2, #3
 8002360:	701a      	strb	r2, [r3, #0]
    devicePrm[i].direction = FORWARD;
 8002362:	4918      	ldr	r1, [pc, #96]	; (80023c4 <L6474_SetDeviceParamsToPredefinedValues+0x170>)
 8002364:	687a      	ldr	r2, [r7, #4]
 8002366:	4613      	mov	r3, r2
 8002368:	009b      	lsls	r3, r3, #2
 800236a:	4413      	add	r3, r2
 800236c:	00db      	lsls	r3, r3, #3
 800236e:	440b      	add	r3, r1
 8002370:	3323      	adds	r3, #35	; 0x23
 8002372:	2201      	movs	r2, #1
 8002374:	701a      	strb	r2, [r3, #0]
    devicePrm[i].motionState = INACTIVE;
 8002376:	4913      	ldr	r1, [pc, #76]	; (80023c4 <L6474_SetDeviceParamsToPredefinedValues+0x170>)
 8002378:	687a      	ldr	r2, [r7, #4]
 800237a:	4613      	mov	r3, r2
 800237c:	009b      	lsls	r3, r3, #2
 800237e:	4413      	add	r3, r2
 8002380:	00db      	lsls	r3, r3, #3
 8002382:	440b      	add	r3, r1
 8002384:	3324      	adds	r3, #36	; 0x24
 8002386:	2208      	movs	r2, #8
 8002388:	701a      	strb	r2, [r3, #0]
  for (i = 0; i < MAX_NUMBER_OF_DEVICES; i++)
 800238a:	687b      	ldr	r3, [r7, #4]
 800238c:	3301      	adds	r3, #1
 800238e:	607b      	str	r3, [r7, #4]
 8002390:	687b      	ldr	r3, [r7, #4]
 8002392:	2b06      	cmp	r3, #6
 8002394:	d996      	bls.n	80022c4 <L6474_SetDeviceParamsToPredefinedValues+0x70>
  }
  
  for (i = 0; i < numberOfDevices; i++)
 8002396:	2300      	movs	r3, #0
 8002398:	607b      	str	r3, [r7, #4]
 800239a:	e007      	b.n	80023ac <L6474_SetDeviceParamsToPredefinedValues+0x158>
  {
    L6474_SetRegisterToPredefinedValues(i);
 800239c:	687b      	ldr	r3, [r7, #4]
 800239e:	b2db      	uxtb	r3, r3
 80023a0:	4618      	mov	r0, r3
 80023a2:	f7ff fd49 	bl	8001e38 <L6474_SetRegisterToPredefinedValues>
  for (i = 0; i < numberOfDevices; i++)
 80023a6:	687b      	ldr	r3, [r7, #4]
 80023a8:	3301      	adds	r3, #1
 80023aa:	607b      	str	r3, [r7, #4]
 80023ac:	4b06      	ldr	r3, [pc, #24]	; (80023c8 <L6474_SetDeviceParamsToPredefinedValues+0x174>)
 80023ae:	781b      	ldrb	r3, [r3, #0]
 80023b0:	b2db      	uxtb	r3, r3
 80023b2:	461a      	mov	r2, r3
 80023b4:	687b      	ldr	r3, [r7, #4]
 80023b6:	429a      	cmp	r2, r3
 80023b8:	d8f0      	bhi.n	800239c <L6474_SetDeviceParamsToPredefinedValues+0x148>
  }   
}
 80023ba:	bf00      	nop
 80023bc:	3708      	adds	r7, #8
 80023be:	46bd      	mov	sp, r7
 80023c0:	bd80      	pop	{r7, pc}
 80023c2:	bf00      	nop
 80023c4:	20001100 	.word	0x20001100
 80023c8:	200004dc 	.word	0x200004dc

080023cc <L6474_StartMovement>:
 * and enable the power bridge
 * @param[in] deviceId (from 0 to 2)
 * @retval None
 **********************************************************/
void L6474_StartMovement(uint8_t deviceId)  
{
 80023cc:	b580      	push	{r7, lr}
 80023ce:	b082      	sub	sp, #8
 80023d0:	af00      	add	r7, sp, #0
 80023d2:	4603      	mov	r3, r0
 80023d4:	71fb      	strb	r3, [r7, #7]
  /* Enable L6474 powerstage */
  L6474_CmdEnable(deviceId);
 80023d6:	79fb      	ldrb	r3, [r7, #7]
 80023d8:	4618      	mov	r0, r3
 80023da:	f7ff f862 	bl	80014a2 <L6474_CmdEnable>
  if (devicePrm[deviceId].endAccPos != 0)
 80023de:	79fa      	ldrb	r2, [r7, #7]
 80023e0:	4922      	ldr	r1, [pc, #136]	; (800246c <L6474_StartMovement+0xa0>)
 80023e2:	4613      	mov	r3, r2
 80023e4:	009b      	lsls	r3, r3, #2
 80023e6:	4413      	add	r3, r2
 80023e8:	00db      	lsls	r3, r3, #3
 80023ea:	440b      	add	r3, r1
 80023ec:	3308      	adds	r3, #8
 80023ee:	681b      	ldr	r3, [r3, #0]
 80023f0:	2b00      	cmp	r3, #0
 80023f2:	d00a      	beq.n	800240a <L6474_StartMovement+0x3e>
  {
    devicePrm[deviceId].motionState = ACCELERATING;
 80023f4:	79fa      	ldrb	r2, [r7, #7]
 80023f6:	491d      	ldr	r1, [pc, #116]	; (800246c <L6474_StartMovement+0xa0>)
 80023f8:	4613      	mov	r3, r2
 80023fa:	009b      	lsls	r3, r3, #2
 80023fc:	4413      	add	r3, r2
 80023fe:	00db      	lsls	r3, r3, #3
 8002400:	440b      	add	r3, r1
 8002402:	3324      	adds	r3, #36	; 0x24
 8002404:	2200      	movs	r2, #0
 8002406:	701a      	strb	r2, [r3, #0]
 8002408:	e009      	b.n	800241e <L6474_StartMovement+0x52>
  }
  else
  {
    devicePrm[deviceId].motionState = DECELERATING;    
 800240a:	79fa      	ldrb	r2, [r7, #7]
 800240c:	4917      	ldr	r1, [pc, #92]	; (800246c <L6474_StartMovement+0xa0>)
 800240e:	4613      	mov	r3, r2
 8002410:	009b      	lsls	r3, r3, #2
 8002412:	4413      	add	r3, r2
 8002414:	00db      	lsls	r3, r3, #3
 8002416:	440b      	add	r3, r1
 8002418:	3324      	adds	r3, #36	; 0x24
 800241a:	2202      	movs	r2, #2
 800241c:	701a      	strb	r2, [r3, #0]
  }
  devicePrm[deviceId].accu = 0;
 800241e:	79fa      	ldrb	r2, [r7, #7]
 8002420:	4912      	ldr	r1, [pc, #72]	; (800246c <L6474_StartMovement+0xa0>)
 8002422:	4613      	mov	r3, r2
 8002424:	009b      	lsls	r3, r3, #2
 8002426:	4413      	add	r3, r2
 8002428:	00db      	lsls	r3, r3, #3
 800242a:	440b      	add	r3, r1
 800242c:	2200      	movs	r2, #0
 800242e:	601a      	str	r2, [r3, #0]
  devicePrm[deviceId].relativePos = 0;
 8002430:	79fa      	ldrb	r2, [r7, #7]
 8002432:	490e      	ldr	r1, [pc, #56]	; (800246c <L6474_StartMovement+0xa0>)
 8002434:	4613      	mov	r3, r2
 8002436:	009b      	lsls	r3, r3, #2
 8002438:	4413      	add	r3, r2
 800243a:	00db      	lsls	r3, r3, #3
 800243c:	440b      	add	r3, r1
 800243e:	330c      	adds	r3, #12
 8002440:	2200      	movs	r2, #0
 8002442:	601a      	str	r2, [r3, #0]
  L6474_ApplySpeed(deviceId, devicePrm[deviceId].minSpeed);
 8002444:	79fa      	ldrb	r2, [r7, #7]
 8002446:	4909      	ldr	r1, [pc, #36]	; (800246c <L6474_StartMovement+0xa0>)
 8002448:	4613      	mov	r3, r2
 800244a:	009b      	lsls	r3, r3, #2
 800244c:	4413      	add	r3, r2
 800244e:	00db      	lsls	r3, r3, #3
 8002450:	440b      	add	r3, r1
 8002452:	331e      	adds	r3, #30
 8002454:	881b      	ldrh	r3, [r3, #0]
 8002456:	b29a      	uxth	r2, r3
 8002458:	79fb      	ldrb	r3, [r7, #7]
 800245a:	4611      	mov	r1, r2
 800245c:	4618      	mov	r0, r3
 800245e:	f7ff fb35 	bl	8001acc <L6474_ApplySpeed>
}
 8002462:	bf00      	nop
 8002464:	3708      	adds	r7, #8
 8002466:	46bd      	mov	sp, r7
 8002468:	bd80      	pop	{r7, pc}
 800246a:	bf00      	nop
 800246c:	20001100 	.word	0x20001100

08002470 <L6474_StepClockHandler>:
 * @param[in] deviceId (from 0 to 2)
 * @retval None
 * @note Must only be called by the timer ISR
 **********************************************************/
void L6474_StepClockHandler(uint8_t deviceId)
{
 8002470:	b580      	push	{r7, lr}
 8002472:	b08c      	sub	sp, #48	; 0x30
 8002474:	af00      	add	r7, sp, #0
 8002476:	4603      	mov	r3, r0
 8002478:	71fb      	strb	r3, [r7, #7]
  /* Set isr flag */
  isrFlag = TRUE;
 800247a:	4b95      	ldr	r3, [pc, #596]	; (80026d0 <L6474_StepClockHandler+0x260>)
 800247c:	2201      	movs	r2, #1
 800247e:	701a      	strb	r2, [r3, #0]
  
  /* Incrementation of the relative position */
  devicePrm[deviceId].relativePos++;
 8002480:	79fa      	ldrb	r2, [r7, #7]
 8002482:	4994      	ldr	r1, [pc, #592]	; (80026d4 <L6474_StepClockHandler+0x264>)
 8002484:	4613      	mov	r3, r2
 8002486:	009b      	lsls	r3, r3, #2
 8002488:	4413      	add	r3, r2
 800248a:	00db      	lsls	r3, r3, #3
 800248c:	440b      	add	r3, r1
 800248e:	330c      	adds	r3, #12
 8002490:	681b      	ldr	r3, [r3, #0]
 8002492:	1c59      	adds	r1, r3, #1
 8002494:	488f      	ldr	r0, [pc, #572]	; (80026d4 <L6474_StepClockHandler+0x264>)
 8002496:	4613      	mov	r3, r2
 8002498:	009b      	lsls	r3, r3, #2
 800249a:	4413      	add	r3, r2
 800249c:	00db      	lsls	r3, r3, #3
 800249e:	4403      	add	r3, r0
 80024a0:	330c      	adds	r3, #12
 80024a2:	6019      	str	r1, [r3, #0]

  switch (devicePrm[deviceId].motionState) 
 80024a4:	79fa      	ldrb	r2, [r7, #7]
 80024a6:	498b      	ldr	r1, [pc, #556]	; (80026d4 <L6474_StepClockHandler+0x264>)
 80024a8:	4613      	mov	r3, r2
 80024aa:	009b      	lsls	r3, r3, #2
 80024ac:	4413      	add	r3, r2
 80024ae:	00db      	lsls	r3, r3, #3
 80024b0:	440b      	add	r3, r1
 80024b2:	3324      	adds	r3, #36	; 0x24
 80024b4:	781b      	ldrb	r3, [r3, #0]
 80024b6:	b2db      	uxtb	r3, r3
 80024b8:	2b02      	cmp	r3, #2
 80024ba:	f000 81a1 	beq.w	8002800 <L6474_StepClockHandler+0x390>
 80024be:	2b03      	cmp	r3, #3
 80024c0:	f000 810a 	beq.w	80026d8 <L6474_StepClockHandler+0x268>
 80024c4:	2b00      	cmp	r3, #0
 80024c6:	d000      	beq.n	80024ca <L6474_StepClockHandler+0x5a>
      }
      break;
    }
    default: 
    {
      break;
 80024c8:	e2a3      	b.n	8002a12 <L6474_StepClockHandler+0x5a2>
        uint32_t relPos = devicePrm[deviceId].relativePos;
 80024ca:	79fa      	ldrb	r2, [r7, #7]
 80024cc:	4981      	ldr	r1, [pc, #516]	; (80026d4 <L6474_StepClockHandler+0x264>)
 80024ce:	4613      	mov	r3, r2
 80024d0:	009b      	lsls	r3, r3, #2
 80024d2:	4413      	add	r3, r2
 80024d4:	00db      	lsls	r3, r3, #3
 80024d6:	440b      	add	r3, r1
 80024d8:	330c      	adds	r3, #12
 80024da:	681b      	ldr	r3, [r3, #0]
 80024dc:	627b      	str	r3, [r7, #36]	; 0x24
        uint32_t endAccPos = devicePrm[deviceId].endAccPos;
 80024de:	79fa      	ldrb	r2, [r7, #7]
 80024e0:	497c      	ldr	r1, [pc, #496]	; (80026d4 <L6474_StepClockHandler+0x264>)
 80024e2:	4613      	mov	r3, r2
 80024e4:	009b      	lsls	r3, r3, #2
 80024e6:	4413      	add	r3, r2
 80024e8:	00db      	lsls	r3, r3, #3
 80024ea:	440b      	add	r3, r1
 80024ec:	3308      	adds	r3, #8
 80024ee:	681b      	ldr	r3, [r3, #0]
 80024f0:	623b      	str	r3, [r7, #32]
        uint16_t speed = devicePrm[deviceId].speed;
 80024f2:	79fa      	ldrb	r2, [r7, #7]
 80024f4:	4977      	ldr	r1, [pc, #476]	; (80026d4 <L6474_StepClockHandler+0x264>)
 80024f6:	4613      	mov	r3, r2
 80024f8:	009b      	lsls	r3, r3, #2
 80024fa:	4413      	add	r3, r2
 80024fc:	00db      	lsls	r3, r3, #3
 80024fe:	440b      	add	r3, r1
 8002500:	3320      	adds	r3, #32
 8002502:	881b      	ldrh	r3, [r3, #0]
 8002504:	85fb      	strh	r3, [r7, #46]	; 0x2e
        uint32_t acc = ((uint32_t)devicePrm[deviceId].acceleration << 16);
 8002506:	79fa      	ldrb	r2, [r7, #7]
 8002508:	4972      	ldr	r1, [pc, #456]	; (80026d4 <L6474_StepClockHandler+0x264>)
 800250a:	4613      	mov	r3, r2
 800250c:	009b      	lsls	r3, r3, #2
 800250e:	4413      	add	r3, r2
 8002510:	00db      	lsls	r3, r3, #3
 8002512:	440b      	add	r3, r1
 8002514:	3318      	adds	r3, #24
 8002516:	881b      	ldrh	r3, [r3, #0]
 8002518:	b29b      	uxth	r3, r3
 800251a:	041b      	lsls	r3, r3, #16
 800251c:	61fb      	str	r3, [r7, #28]
        if ((devicePrm[deviceId].commandExecuted == SOFT_STOP_CMD)||
 800251e:	79fa      	ldrb	r2, [r7, #7]
 8002520:	496c      	ldr	r1, [pc, #432]	; (80026d4 <L6474_StepClockHandler+0x264>)
 8002522:	4613      	mov	r3, r2
 8002524:	009b      	lsls	r3, r3, #2
 8002526:	4413      	add	r3, r2
 8002528:	00db      	lsls	r3, r3, #3
 800252a:	440b      	add	r3, r1
 800252c:	3322      	adds	r3, #34	; 0x22
 800252e:	781b      	ldrb	r3, [r3, #0]
 8002530:	b2db      	uxtb	r3, r3
 8002532:	2b02      	cmp	r3, #2
 8002534:	d017      	beq.n	8002566 <L6474_StepClockHandler+0xf6>
            ((devicePrm[deviceId].commandExecuted != RUN_CMD)&&  
 8002536:	79fa      	ldrb	r2, [r7, #7]
 8002538:	4966      	ldr	r1, [pc, #408]	; (80026d4 <L6474_StepClockHandler+0x264>)
 800253a:	4613      	mov	r3, r2
 800253c:	009b      	lsls	r3, r3, #2
 800253e:	4413      	add	r3, r2
 8002540:	00db      	lsls	r3, r3, #3
 8002542:	440b      	add	r3, r1
 8002544:	3322      	adds	r3, #34	; 0x22
 8002546:	781b      	ldrb	r3, [r3, #0]
 8002548:	b2db      	uxtb	r3, r3
        if ((devicePrm[deviceId].commandExecuted == SOFT_STOP_CMD)||
 800254a:	2b00      	cmp	r3, #0
 800254c:	d01f      	beq.n	800258e <L6474_StepClockHandler+0x11e>
